{
  "address": "0x64bCb3Ff14930C855B7f71AA3eB2a94E097a31B4",
  "abi": [
    {
      "inputs": [
        {
          "internalType": "string",
          "name": "name",
          "type": "string"
        },
        {
          "internalType": "string",
          "name": "symbol",
          "type": "string"
        }
      ],
      "stateMutability": "nonpayable",
      "type": "constructor"
    },
    {
      "anonymous": false,
      "inputs": [
        {
          "indexed": true,
          "internalType": "address",
          "name": "owner",
          "type": "address"
        },
        {
          "indexed": true,
          "internalType": "address",
          "name": "approved",
          "type": "address"
        },
        {
          "indexed": true,
          "internalType": "uint256",
          "name": "tokenId",
          "type": "uint256"
        }
      ],
      "name": "Approval",
      "type": "event"
    },
    {
      "anonymous": false,
      "inputs": [
        {
          "indexed": true,
          "internalType": "address",
          "name": "owner",
          "type": "address"
        },
        {
          "indexed": true,
          "internalType": "address",
          "name": "operator",
          "type": "address"
        },
        {
          "indexed": false,
          "internalType": "bool",
          "name": "approved",
          "type": "bool"
        }
      ],
      "name": "ApprovalForAll",
      "type": "event"
    },
    {
      "anonymous": false,
      "inputs": [
        {
          "indexed": false,
          "internalType": "address",
          "name": "sender",
          "type": "address"
        },
        {
          "indexed": false,
          "internalType": "uint256",
          "name": "amount",
          "type": "uint256"
        },
        {
          "indexed": false,
          "internalType": "bytes",
          "name": "data",
          "type": "bytes"
        }
      ],
      "name": "CallReceived",
      "type": "event"
    },
    {
      "anonymous": false,
      "inputs": [
        {
          "indexed": false,
          "internalType": "address",
          "name": "employee",
          "type": "address"
        },
        {
          "indexed": false,
          "internalType": "uint256",
          "name": "tokenId",
          "type": "uint256"
        }
      ],
      "name": "EmployeeCardMinted",
      "type": "event"
    },
    {
      "anonymous": false,
      "inputs": [
        {
          "indexed": true,
          "internalType": "address",
          "name": "from",
          "type": "address"
        },
        {
          "indexed": true,
          "internalType": "address",
          "name": "to",
          "type": "address"
        },
        {
          "indexed": true,
          "internalType": "uint256",
          "name": "tokenId",
          "type": "uint256"
        },
        {
          "indexed": false,
          "internalType": "enum IERC5484.BurnAuth",
          "name": "burnAuth",
          "type": "uint8"
        }
      ],
      "name": "Issued",
      "type": "event"
    },
    {
      "anonymous": false,
      "inputs": [
        {
          "indexed": true,
          "internalType": "address",
          "name": "previousOwner",
          "type": "address"
        },
        {
          "indexed": true,
          "internalType": "address",
          "name": "newOwner",
          "type": "address"
        }
      ],
      "name": "OwnershipTransferred",
      "type": "event"
    },
    {
      "anonymous": false,
      "inputs": [
        {
          "indexed": false,
          "internalType": "address",
          "name": "sender",
          "type": "address"
        },
        {
          "indexed": false,
          "internalType": "uint256",
          "name": "amount",
          "type": "uint256"
        }
      ],
      "name": "TokenReceived",
      "type": "event"
    },
    {
      "anonymous": false,
      "inputs": [
        {
          "indexed": true,
          "internalType": "address",
          "name": "from",
          "type": "address"
        },
        {
          "indexed": true,
          "internalType": "address",
          "name": "to",
          "type": "address"
        },
        {
          "indexed": true,
          "internalType": "uint256",
          "name": "tokenId",
          "type": "uint256"
        }
      ],
      "name": "Transfer",
      "type": "event"
    },
    {
      "anonymous": false,
      "inputs": [
        {
          "indexed": false,
          "internalType": "address",
          "name": "employee",
          "type": "address"
        }
      ],
      "name": "VacationRightsCalculated",
      "type": "event"
    },
    {
      "stateMutability": "payable",
      "type": "fallback"
    },
    {
      "inputs": [
        {
          "internalType": "address",
          "name": "to",
          "type": "address"
        },
        {
          "internalType": "uint256",
          "name": "tokenId",
          "type": "uint256"
        }
      ],
      "name": "approve",
      "outputs": [],
      "stateMutability": "nonpayable",
      "type": "function"
    },
    {
      "inputs": [
        {
          "internalType": "uint256",
          "name": "tokenId",
          "type": "uint256"
        }
      ],
      "name": "approveAuth",
      "outputs": [
        {
          "internalType": "enum IERC5484ConsensuallyApprovable.ApproveAuth",
          "name": "",
          "type": "uint8"
        }
      ],
      "stateMutability": "view",
      "type": "function"
    },
    {
      "inputs": [
        {
          "internalType": "address",
          "name": "owner",
          "type": "address"
        }
      ],
      "name": "balanceOf",
      "outputs": [
        {
          "internalType": "uint256",
          "name": "",
          "type": "uint256"
        }
      ],
      "stateMutability": "view",
      "type": "function"
    },
    {
      "inputs": [
        {
          "internalType": "uint256",
          "name": "tokenId",
          "type": "uint256"
        }
      ],
      "name": "burnAuth",
      "outputs": [
        {
          "internalType": "enum IERC5484.BurnAuth",
          "name": "",
          "type": "uint8"
        }
      ],
      "stateMutability": "view",
      "type": "function"
    },
    {
      "inputs": [
        {
          "internalType": "address",
          "name": "_holder",
          "type": "address"
        }
      ],
      "name": "burnCard",
      "outputs": [],
      "stateMutability": "nonpayable",
      "type": "function"
    },
    {
      "inputs": [
        {
          "internalType": "uint256",
          "name": "tokenId",
          "type": "uint256"
        }
      ],
      "name": "getApproved",
      "outputs": [
        {
          "internalType": "address",
          "name": "",
          "type": "address"
        }
      ],
      "stateMutability": "view",
      "type": "function"
    },
    {
      "inputs": [
        {
          "internalType": "address",
          "name": "employee",
          "type": "address"
        }
      ],
      "name": "getEmployeeCardId",
      "outputs": [
        {
          "internalType": "uint256",
          "name": "",
          "type": "uint256"
        }
      ],
      "stateMutability": "view",
      "type": "function"
    },
    {
      "inputs": [
        {
          "internalType": "address",
          "name": "employee",
          "type": "address"
        }
      ],
      "name": "getEmployeeVacationRights",
      "outputs": [
        {
          "internalType": "uint256",
          "name": "",
          "type": "uint256"
        }
      ],
      "stateMutability": "view",
      "type": "function"
    },
    {
      "inputs": [
        {
          "internalType": "address",
          "name": "owner",
          "type": "address"
        },
        {
          "internalType": "address",
          "name": "operator",
          "type": "address"
        }
      ],
      "name": "isApprovedForAll",
      "outputs": [
        {
          "internalType": "bool",
          "name": "",
          "type": "bool"
        }
      ],
      "stateMutability": "view",
      "type": "function"
    },
    {
      "inputs": [
        {
          "internalType": "address",
          "name": "_recipient",
          "type": "address"
        },
        {
          "internalType": "string",
          "name": "_tokenURI",
          "type": "string"
        },
        {
          "internalType": "uint256",
          "name": "_startDate",
          "type": "uint256"
        }
      ],
      "name": "mint",
      "outputs": [],
      "stateMutability": "nonpayable",
      "type": "function"
    },
    {
      "inputs": [],
      "name": "name",
      "outputs": [
        {
          "internalType": "string",
          "name": "",
          "type": "string"
        }
      ],
      "stateMutability": "view",
      "type": "function"
    },
    {
      "inputs": [],
      "name": "owner",
      "outputs": [
        {
          "internalType": "address",
          "name": "",
          "type": "address"
        }
      ],
      "stateMutability": "view",
      "type": "function"
    },
    {
      "inputs": [
        {
          "internalType": "uint256",
          "name": "tokenId",
          "type": "uint256"
        }
      ],
      "name": "ownerOf",
      "outputs": [
        {
          "internalType": "address",
          "name": "",
          "type": "address"
        }
      ],
      "stateMutability": "view",
      "type": "function"
    },
    {
      "inputs": [],
      "name": "renounceOwnership",
      "outputs": [],
      "stateMutability": "nonpayable",
      "type": "function"
    },
    {
      "inputs": [
        {
          "internalType": "address",
          "name": "from",
          "type": "address"
        },
        {
          "internalType": "address",
          "name": "to",
          "type": "address"
        },
        {
          "internalType": "uint256",
          "name": "tokenId",
          "type": "uint256"
        }
      ],
      "name": "safeTransferFrom",
      "outputs": [],
      "stateMutability": "nonpayable",
      "type": "function"
    },
    {
      "inputs": [
        {
          "internalType": "address",
          "name": "from",
          "type": "address"
        },
        {
          "internalType": "address",
          "name": "to",
          "type": "address"
        },
        {
          "internalType": "uint256",
          "name": "tokenId",
          "type": "uint256"
        },
        {
          "internalType": "bytes",
          "name": "data",
          "type": "bytes"
        }
      ],
      "name": "safeTransferFrom",
      "outputs": [],
      "stateMutability": "nonpayable",
      "type": "function"
    },
    {
      "inputs": [
        {
          "internalType": "address",
          "name": "operator",
          "type": "address"
        },
        {
          "internalType": "bool",
          "name": "approved",
          "type": "bool"
        }
      ],
      "name": "setApprovalForAll",
      "outputs": [],
      "stateMutability": "nonpayable",
      "type": "function"
    },
    {
      "inputs": [
        {
          "internalType": "bytes4",
          "name": "interfaceId",
          "type": "bytes4"
        }
      ],
      "name": "supportsInterface",
      "outputs": [
        {
          "internalType": "bool",
          "name": "",
          "type": "bool"
        }
      ],
      "stateMutability": "view",
      "type": "function"
    },
    {
      "inputs": [],
      "name": "symbol",
      "outputs": [
        {
          "internalType": "string",
          "name": "",
          "type": "string"
        }
      ],
      "stateMutability": "view",
      "type": "function"
    },
    {
      "inputs": [
        {
          "internalType": "uint256",
          "name": "tokenId",
          "type": "uint256"
        }
      ],
      "name": "tokenURI",
      "outputs": [
        {
          "internalType": "string",
          "name": "",
          "type": "string"
        }
      ],
      "stateMutability": "view",
      "type": "function"
    },
    {
      "inputs": [
        {
          "internalType": "uint256",
          "name": "tokenId",
          "type": "uint256"
        }
      ],
      "name": "transferAuth",
      "outputs": [
        {
          "internalType": "enum IERC5484ConsensuallyTransferable.TransferAuth",
          "name": "",
          "type": "uint8"
        }
      ],
      "stateMutability": "view",
      "type": "function"
    },
    {
      "inputs": [
        {
          "internalType": "uint256",
          "name": "_tokenId",
          "type": "uint256"
        },
        {
          "internalType": "address",
          "name": "_newEmployeeAddress",
          "type": "address"
        }
      ],
      "name": "transferCard",
      "outputs": [],
      "stateMutability": "nonpayable",
      "type": "function"
    },
    {
      "inputs": [
        {
          "internalType": "address",
          "name": "from",
          "type": "address"
        },
        {
          "internalType": "address",
          "name": "to",
          "type": "address"
        },
        {
          "internalType": "uint256",
          "name": "tokenId",
          "type": "uint256"
        }
      ],
      "name": "transferFrom",
      "outputs": [],
      "stateMutability": "nonpayable",
      "type": "function"
    },
    {
      "inputs": [
        {
          "internalType": "address",
          "name": "newOwner",
          "type": "address"
        }
      ],
      "name": "transferOwnership",
      "outputs": [],
      "stateMutability": "nonpayable",
      "type": "function"
    },
    {
      "stateMutability": "payable",
      "type": "receive"
    }
  ],
  "transactionHash": "0x913bd731da3edb87c20e1f03c927a1957c97d4a447be3be708f7e27a255f4548",
  "args": [
    "Alyra Employee Card",
    "AEC"
  ],
  "numDeployments": 3,
  "solcInputHash": "de0b0f5cfdbc775b779d9f06a321a9a0",
  "bytecode": "0x60806040523480156200001157600080fd5b506040516200553a3803806200553a8339818101604052810190620000379190620002e8565b818181600090816200004a9190620005b8565b5080600190816200005c9190620005b8565b5050506200007f620000736200008760201b60201c565b6200008f60201b60201c565b50506200069f565b600033905090565b6000600660009054906101000a900473ffffffffffffffffffffffffffffffffffffffff16905081600660006101000a81548173ffffffffffffffffffffffffffffffffffffffff021916908373ffffffffffffffffffffffffffffffffffffffff1602179055508173ffffffffffffffffffffffffffffffffffffffff168173ffffffffffffffffffffffffffffffffffffffff167f8be0079c531659141344cd1fd0a4f28419497f9722a3daafe3b4186f6b6457e060405160405180910390a35050565b6000604051905090565b600080fd5b600080fd5b600080fd5b600080fd5b6000601f19601f8301169050919050565b7f4e487b7100000000000000000000000000000000000000000000000000000000600052604160045260246000fd5b620001be8262000173565b810181811067ffffffffffffffff82111715620001e057620001df62000184565b5b80604052505050565b6000620001f562000155565b9050620002038282620001b3565b919050565b600067ffffffffffffffff82111562000226576200022562000184565b5b620002318262000173565b9050602081019050919050565b60005b838110156200025e57808201518184015260208101905062000241565b60008484015250505050565b6000620002816200027b8462000208565b620001e9565b905082815260208101848484011115620002a0576200029f6200016e565b5b620002ad8482856200023e565b509392505050565b600082601f830112620002cd57620002cc62000169565b5b8151620002df8482602086016200026a565b91505092915050565b600080604083850312156200030257620003016200015f565b5b600083015167ffffffffffffffff81111562000323576200032262000164565b5b6200033185828601620002b5565b925050602083015167ffffffffffffffff81111562000355576200035462000164565b5b6200036385828601620002b5565b9150509250929050565b600081519050919050565b7f4e487b7100000000000000000000000000000000000000000000000000000000600052602260045260246000fd5b60006002820490506001821680620003c057607f821691505b602082108103620003d657620003d562000378565b5b50919050565b60008190508160005260206000209050919050565b60006020601f8301049050919050565b600082821b905092915050565b600060088302620004407fffffffffffffffffffffffffffffffffffffffffffffffffffffffffffffffff8262000401565b6200044c868362000401565b95508019841693508086168417925050509392505050565b6000819050919050565b6000819050919050565b600062000499620004936200048d8462000464565b6200046e565b62000464565b9050919050565b6000819050919050565b620004b58362000478565b620004cd620004c482620004a0565b8484546200040e565b825550505050565b600090565b620004e4620004d5565b620004f1818484620004aa565b505050565b5b8181101562000519576200050d600082620004da565b600181019050620004f7565b5050565b601f82111562000568576200053281620003dc565b6200053d84620003f1565b810160208510156200054d578190505b620005656200055c85620003f1565b830182620004f6565b50505b505050565b600082821c905092915050565b60006200058d600019846008026200056d565b1980831691505092915050565b6000620005a883836200057a565b9150826002028217905092915050565b620005c3826200036d565b67ffffffffffffffff811115620005df57620005de62000184565b5b620005eb8254620003a7565b620005f88282856200051d565b600060209050601f8311600181146200063057600084156200061b578287015190505b6200062785826200059a565b86555062000697565b601f1984166200064086620003dc565b60005b828110156200066a5784890151825560018201915060208501945060208101905062000643565b868310156200068a578489015162000686601f8916826200057a565b8355505b6001600288020188555050505b505050505050565b614e8b80620006af6000396000f3fe60806040526004361061014f5760003560e01c806372f79d24116100b6578063ba7aef431161006f578063ba7aef4314610541578063c87b56dd1461056a578063e8f881bf146105a7578063e985e9c5146105e4578063f2fde38b14610621578063f5ca0f1e1461064a57610197565b806372f79d24146104335780638da5cb5b1461045c57806395d89b4114610487578063a22cb465146104b2578063b88d4fde146104db578063b97d91551461050457610197565b8063095ea7b311610108578063095ea7b31461032757806323b872dd1461035057806342842e0e146103795780636352211e146103a257806370a08231146103df578063715018a61461041c57610197565b806301ffc9a7146101df57806304711ae81461021c5780630489b56f14610245578063050d2ce11461028257806306fdde03146102bf578063081812fc146102ea57610197565b366101975761015c610687565b7f47998b4998056cd0448b356cfcb8cb0eb18fa00844e43e71947e22fcb6fd43ef333460405161018d9291906130dd565b60405180910390a1005b61019f610687565b7f50eceacb6cf1f1249d7041630a444fc31eeed162b640e05965120166dfa583e633346000366040516101d59493929190613164565b60405180910390a1005b3480156101eb57600080fd5b5061020660048036038101906102019190613210565b610705565b6040516102139190613258565b60405180910390f35b34801561022857600080fd5b50610243600480360381019061023e919061329f565b6107e7565b005b34801561025157600080fd5b5061026c600480360381019061026791906132f8565b610841565b604051610279919061339c565b60405180910390f35b34801561028e57600080fd5b506102a960048036038101906102a491906132f8565b6108b3565b6040516102b691906133ff565b60405180910390f35b3480156102cb57600080fd5b506102d4610925565b6040516102e19190613499565b60405180910390f35b3480156102f657600080fd5b50610311600480360381019061030c91906132f8565b6109b7565b60405161031e91906134bb565b60405180910390f35b34801561033357600080fd5b5061034e600480360381019061034991906134d6565b6109fd565b005b34801561035c57600080fd5b5061037760048036038101906103729190613516565b610b14565b005b34801561038557600080fd5b506103a0600480360381019061039b9190613516565b610b74565b005b3480156103ae57600080fd5b506103c960048036038101906103c491906132f8565b610b94565b6040516103d691906134bb565b60405180910390f35b3480156103eb57600080fd5b506104066004803603810190610401919061329f565b610c1a565b6040516104139190613569565b60405180910390f35b34801561042857600080fd5b50610431610cd1565b005b34801561043f57600080fd5b5061045a60048036038101906104559190613584565b610ce5565b005b34801561046857600080fd5b50610471610d0b565b60405161047e91906134bb565b60405180910390f35b34801561049357600080fd5b5061049c610d35565b6040516104a99190613499565b60405180910390f35b3480156104be57600080fd5b506104d960048036038101906104d491906135f0565b610dc7565b005b3480156104e757600080fd5b5061050260048036038101906104fd9190613756565b610ddd565b005b34801561051057600080fd5b5061052b6004803603810190610526919061329f565b610e3f565b6040516105389190613569565b60405180910390f35b34801561054d57600080fd5b5061056860048036038101906105639190613839565b610ed0565b005b34801561057657600080fd5b50610591600480360381019061058c91906132f8565b6110b6565b60405161059e9190613499565b60405180910390f35b3480156105b357600080fd5b506105ce60048036038101906105c991906132f8565b6111a6565b6040516105db91906138f5565b60405180910390f35b3480156105f057600080fd5b5061060b60048036038101906106069190613910565b611218565b6040516106189190613258565b60405180910390f35b34801561062d57600080fd5b506106486004803603810190610643919061329f565b6112ac565b005b34801561065657600080fd5b50610671600480360381019061066c919061329f565b61132f565b60405161067e9190613569565b60405180910390f35b61068f611420565b73ffffffffffffffffffffffffffffffffffffffff166106ad610d0b565b73ffffffffffffffffffffffffffffffffffffffff1614610703576040517f08c379a00000000000000000000000000000000000000000000000000000000081526004016106fa9061399c565b60405180910390fd5b565b60007f80ac58cd000000000000000000000000000000000000000000000000000000007bffffffffffffffffffffffffffffffffffffffffffffffffffffffff1916827bffffffffffffffffffffffffffffffffffffffffffffffffffffffff191614806107d057507f5b5e139f000000000000000000000000000000000000000000000000000000007bffffffffffffffffffffffffffffffffffffffffffffffffffffffff1916827bffffffffffffffffffffffffffffffffffffffffffffffffffffffff1916145b806107e057506107df82611428565b5b9050919050565b6000600b60008373ffffffffffffffffffffffffffffffffffffffff1673ffffffffffffffffffffffffffffffffffffffff16815260200190815260200160002054905061083481611492565b61083d816114dd565b5050565b600061084c8261181a565b61088b576040517f08c379a000000000000000000000000000000000000000000000000000000000815260040161088290613a2e565b60405180910390fd5b6007600083815260200190815260200160002060009054906101000a900460ff169050919050565b60006108be8261181a565b6108fd576040517f08c379a00000000000000000000000000000000000000000000000000000000081526004016108f490613a2e565b60405180910390fd5b6009600083815260200190815260200160002060009054906101000a900460ff169050919050565b60606000805461093490613a7d565b80601f016020809104026020016040519081016040528092919081815260200182805461096090613a7d565b80156109ad5780601f10610982576101008083540402835291602001916109ad565b820191906000526020600020905b81548152906001019060200180831161099057829003601f168201915b5050505050905090565b60006109c282611492565b6004600083815260200190815260200160002060009054906101000a900473ffffffffffffffffffffffffffffffffffffffff169050919050565b6000610a0882610b94565b90508073ffffffffffffffffffffffffffffffffffffffff168373ffffffffffffffffffffffffffffffffffffffff1603610a78576040517f08c379a0000000000000000000000000000000000000000000000000000000008152600401610a6f90613b20565b60405180910390fd5b8073ffffffffffffffffffffffffffffffffffffffff16610a97611420565b73ffffffffffffffffffffffffffffffffffffffff161480610ac65750610ac581610ac0611420565b611218565b5b610b05576040517f08c379a0000000000000000000000000000000000000000000000000000000008152600401610afc90613bb2565b60405180910390fd5b610b0f838361185b565b505050565b610b25610b1f611420565b82611869565b610b64576040517f08c379a0000000000000000000000000000000000000000000000000000000008152600401610b5b90613c44565b60405180910390fd5b610b6f8383836118fe565b505050565b610b8f83838360405180602001604052806000815250610ddd565b505050565b600080610ba08361190e565b9050600073ffffffffffffffffffffffffffffffffffffffff168173ffffffffffffffffffffffffffffffffffffffff1603610c11576040517f08c379a0000000000000000000000000000000000000000000000000000000008152600401610c0890613cb0565b60405180910390fd5b80915050919050565b60008073ffffffffffffffffffffffffffffffffffffffff168273ffffffffffffffffffffffffffffffffffffffff1603610c8a576040517f08c379a0000000000000000000000000000000000000000000000000000000008152600401610c8190613d42565b60405180910390fd5b600360008373ffffffffffffffffffffffffffffffffffffffff1673ffffffffffffffffffffffffffffffffffffffff168152602001908152602001600020549050919050565b610cd9610687565b610ce3600061194b565b565b610cee82611492565b6000610cf983610b94565b9050610d06818385610b74565b505050565b6000600660009054906101000a900473ffffffffffffffffffffffffffffffffffffffff16905090565b606060018054610d4490613a7d565b80601f0160208091040260200160405190810160405280929190818152602001828054610d7090613a7d565b8015610dbd5780601f10610d9257610100808354040283529160200191610dbd565b820191906000526020600020905b815481529060010190602001808311610da057829003601f168201915b5050505050905090565b610dd9610dd2611420565b8383611a11565b5050565b610dee610de8611420565b83611869565b610e2d576040517f08c379a0000000000000000000000000000000000000000000000000000000008152600401610e2490613c44565b60405180910390fd5b610e3984848484611b7d565b50505050565b6000610e89600b60008473ffffffffffffffffffffffffffffffffffffffff1673ffffffffffffffffffffffffffffffffffffffff16815260200190815260200160002054611492565b600b60008373ffffffffffffffffffffffffffffffffffffffff1673ffffffffffffffffffffffffffffffffffffffff168152602001908152602001600020549050919050565b610ed8610687565b6000610ee385610c1a565b14610f23576040517f08c379a0000000000000000000000000000000000000000000000000000000008152600401610f1a90613dd4565b60405180910390fd5b6000610f2f600a611bd9565b9050610f4085826000806000611be7565b610f498161181a565b610f88576040517f08c379a0000000000000000000000000000000000000000000000000000000008152600401610f7f90613cb0565b60405180910390fd5b610f92600a611c0b565b80600b60008773ffffffffffffffffffffffffffffffffffffffff1673ffffffffffffffffffffffffffffffffffffffff16815260200190815260200160002081905550604051806040016040528085858080601f016020809104026020016040519081016040528093929190818152602001838380828437600081840152601f19601f82011690508083019250505050505050815260200183815250600c600083815260200190815260200160002060008201518160000190816110579190613fa0565b5060208201518160010155905050611076611070610d0b565b8261185b565b7fa22bf9c97dde6fadc0c06873f9a4a3f2f9d592a1973a74c3bb6f7f1746efa08785826040516110a79291906130dd565b60405180910390a15050505050565b60606110c18261181a565b611100576040517f08c379a00000000000000000000000000000000000000000000000000000000081526004016110f790613a2e565b60405180910390fd5b600c6000838152602001908152602001600020600001805461112190613a7d565b80601f016020809104026020016040519081016040528092919081815260200182805461114d90613a7d565b801561119a5780601f1061116f5761010080835404028352916020019161119a565b820191906000526020600020905b81548152906001019060200180831161117d57829003601f168201915b50505050509050919050565b60006111b18261181a565b6111f0576040517f08c379a00000000000000000000000000000000000000000000000000000000081526004016111e790613a2e565b60405180910390fd5b6008600083815260200190815260200160002060009054906101000a900460ff169050919050565b6000600560008473ffffffffffffffffffffffffffffffffffffffff1673ffffffffffffffffffffffffffffffffffffffff16815260200190815260200160002060008373ffffffffffffffffffffffffffffffffffffffff1673ffffffffffffffffffffffffffffffffffffffff16815260200190815260200160002060009054906101000a900460ff16905092915050565b6112b4610687565b600073ffffffffffffffffffffffffffffffffffffffff168173ffffffffffffffffffffffffffffffffffffffff1603611323576040517f08c379a000000000000000000000000000000000000000000000000000000000815260040161131a906140e4565b60405180910390fd5b61132c8161194b565b50565b6000611379600b60008473ffffffffffffffffffffffffffffffffffffffff1673ffffffffffffffffffffffffffffffffffffffff16815260200190815260200160002054611492565b6000600b60008473ffffffffffffffffffffffffffffffffffffffff1673ffffffffffffffffffffffffffffffffffffffff16815260200190815260200160002054905060006301e13380600c600084815260200190815260200160002060010154426113e69190614133565b6113f09190614196565b905060006005826114019190614196565b9050600081601961141291906141c7565b905080945050505050919050565b600033905090565b60007f01ffc9a7000000000000000000000000000000000000000000000000000000007bffffffffffffffffffffffffffffffffffffffffffffffffffffffff1916827bffffffffffffffffffffffffffffffffffffffffffffffffffffffff1916149050919050565b61149b8161181a565b6114da576040517f08c379a00000000000000000000000000000000000000000000000000000000081526004016114d190613cb0565b60405180910390fd5b50565b6003808111156114f0576114ef613325565b5b6007600083815260200190815260200160002060009054906101000a900460ff16600381111561152357611522613325565b5b03611563576040517f08c379a000000000000000000000000000000000000000000000000000000000815260040161155a90614247565b60405180910390fd5b6000600381111561157757611576613325565b5b6007600083815260200190815260200160002060009054906101000a900460ff1660038111156115aa576115a9613325565b5b03611630576115b7611420565b73ffffffffffffffffffffffffffffffffffffffff166115d5610d0b565b73ffffffffffffffffffffffffffffffffffffffff161461162b576040517f08c379a0000000000000000000000000000000000000000000000000000000008152600401611622906142d9565b60405180910390fd5b61180e565b6001600381111561164457611643613325565b5b6007600083815260200190815260200160002060009054906101000a900460ff16600381111561167757611676613325565b5b036116fe57611684611420565b73ffffffffffffffffffffffffffffffffffffffff166116a38261190e565b73ffffffffffffffffffffffffffffffffffffffff16146116f9576040517f08c379a00000000000000000000000000000000000000000000000000000000081526004016116f09061436b565b60405180910390fd5b61180d565b6002600381111561171257611711613325565b5b6007600083815260200190815260200160002060009054906101000a900460ff16600381111561174557611744613325565b5b0361180c57611752611420565b73ffffffffffffffffffffffffffffffffffffffff166117718261190e565b73ffffffffffffffffffffffffffffffffffffffff1614806117cc5750611796611420565b73ffffffffffffffffffffffffffffffffffffffff166117b4610d0b565b73ffffffffffffffffffffffffffffffffffffffff16145b61180b576040517f08c379a000000000000000000000000000000000000000000000000000000000815260040161180290614423565b60405180910390fd5b5b5b5b61181781611c21565b50565b60008073ffffffffffffffffffffffffffffffffffffffff1661183c8361190e565b73ffffffffffffffffffffffffffffffffffffffff1614159050919050565b6118658282611d6f565b5050565b60008061187583610b94565b90508073ffffffffffffffffffffffffffffffffffffffff168473ffffffffffffffffffffffffffffffffffffffff1614806118b757506118b68185611218565b5b806118f557508373ffffffffffffffffffffffffffffffffffffffff166118dd846109b7565b73ffffffffffffffffffffffffffffffffffffffff16145b91505092915050565b6119098383836120ae565b505050565b60006002600083815260200190815260200160002060009054906101000a900473ffffffffffffffffffffffffffffffffffffffff169050919050565b6000600660009054906101000a900473ffffffffffffffffffffffffffffffffffffffff16905081600660006101000a81548173ffffffffffffffffffffffffffffffffffffffff021916908373ffffffffffffffffffffffffffffffffffffffff1602179055508173ffffffffffffffffffffffffffffffffffffffff168173ffffffffffffffffffffffffffffffffffffffff167f8be0079c531659141344cd1fd0a4f28419497f9722a3daafe3b4186f6b6457e060405160405180910390a35050565b8173ffffffffffffffffffffffffffffffffffffffff168373ffffffffffffffffffffffffffffffffffffffff1603611a7f576040517f08c379a0000000000000000000000000000000000000000000000000000000008152600401611a769061448f565b60405180910390fd5b80600560008573ffffffffffffffffffffffffffffffffffffffff1673ffffffffffffffffffffffffffffffffffffffff16815260200190815260200160002060008473ffffffffffffffffffffffffffffffffffffffff1673ffffffffffffffffffffffffffffffffffffffff16815260200190815260200160002060006101000a81548160ff0219169083151502179055508173ffffffffffffffffffffffffffffffffffffffff168373ffffffffffffffffffffffffffffffffffffffff167f17307eab39ab6107e8899845ad3d59bd9653f200f220920489ca2b5937696c3183604051611b709190613258565b60405180910390a3505050565b611b888484846118fe565b611b94848484846123ef565b611bd3576040517f08c379a0000000000000000000000000000000000000000000000000000000008152600401611bca90614521565b60405180910390fd5b50505050565b600081600001549050919050565b611c04858585858560405180602001604052806000815250612576565b5050505050565b6001816000016000828254019250508190555050565b6000611c2c82610b94565b9050611c3c8160008460016125d7565b611c4582610b94565b90506004600083815260200190815260200160002060006101000a81549073ffffffffffffffffffffffffffffffffffffffff02191690556001600360008373ffffffffffffffffffffffffffffffffffffffff1673ffffffffffffffffffffffffffffffffffffffff168152602001908152602001600020600082825403925050819055506002600083815260200190815260200160002060006101000a81549073ffffffffffffffffffffffffffffffffffffffff021916905581600073ffffffffffffffffffffffffffffffffffffffff168273ffffffffffffffffffffffffffffffffffffffff167fddf252ad1be2c89b69c2b068fc378daa952ba7f163c4a11628f55a4df523b3ef60405160405180910390a4611d6b8160008460016126fd565b5050565b600380811115611d8257611d81613325565b5b6008600083815260200190815260200160002060009054906101000a900460ff166003811115611db557611db4613325565b5b03611df5576040517f08c379a0000000000000000000000000000000000000000000000000000000008152600401611dec9061458d565b60405180910390fd5b60006003811115611e0957611e08613325565b5b6008600083815260200190815260200160002060009054906101000a900460ff166003811115611e3c57611e3b613325565b5b03611ec257611e49611420565b73ffffffffffffffffffffffffffffffffffffffff16611e67610d0b565b73ffffffffffffffffffffffffffffffffffffffff1614611ebd576040517f08c379a0000000000000000000000000000000000000000000000000000000008152600401611eb49061461f565b60405180910390fd5b6120a0565b60016003811115611ed657611ed5613325565b5b6008600083815260200190815260200160002060009054906101000a900460ff166003811115611f0957611f08613325565b5b03611f9057611f16611420565b73ffffffffffffffffffffffffffffffffffffffff16611f358261190e565b73ffffffffffffffffffffffffffffffffffffffff1614611f8b576040517f08c379a0000000000000000000000000000000000000000000000000000000008152600401611f82906146b1565b60405180910390fd5b61209f565b60026003811115611fa457611fa3613325565b5b6008600083815260200190815260200160002060009054906101000a900460ff166003811115611fd757611fd6613325565b5b0361209e57611fe4611420565b73ffffffffffffffffffffffffffffffffffffffff166120038261190e565b73ffffffffffffffffffffffffffffffffffffffff16148061205e5750612028611420565b73ffffffffffffffffffffffffffffffffffffffff16612046610d0b565b73ffffffffffffffffffffffffffffffffffffffff16145b61209d576040517f08c379a000000000000000000000000000000000000000000000000000000000815260040161209490614769565b60405180910390fd5b5b5b5b6120aa8282612703565b5050565b6003808111156120c1576120c0613325565b5b6009600083815260200190815260200160002060009054906101000a900460ff1660038111156120f4576120f3613325565b5b03612134576040517f08c379a000000000000000000000000000000000000000000000000000000000815260040161212b906147fb565b60405180910390fd5b6000600381111561214857612147613325565b5b6009600083815260200190815260200160002060009054906101000a900460ff16600381111561217b5761217a613325565b5b0361220157612188611420565b73ffffffffffffffffffffffffffffffffffffffff166121a6610d0b565b73ffffffffffffffffffffffffffffffffffffffff16146121fc576040517f08c379a00000000000000000000000000000000000000000000000000000000081526004016121f39061488d565b60405180910390fd5b6123df565b6001600381111561221557612214613325565b5b6009600083815260200190815260200160002060009054906101000a900460ff16600381111561224857612247613325565b5b036122cf57612255611420565b73ffffffffffffffffffffffffffffffffffffffff166122748261190e565b73ffffffffffffffffffffffffffffffffffffffff16146122ca576040517f08c379a00000000000000000000000000000000000000000000000000000000081526004016122c19061491f565b60405180910390fd5b6123de565b600260038111156122e3576122e2613325565b5b6009600083815260200190815260200160002060009054906101000a900460ff16600381111561231657612315613325565b5b036123dd57612323611420565b73ffffffffffffffffffffffffffffffffffffffff166123428261190e565b73ffffffffffffffffffffffffffffffffffffffff16148061239d5750612367611420565b73ffffffffffffffffffffffffffffffffffffffff16612385610d0b565b73ffffffffffffffffffffffffffffffffffffffff16145b6123dc576040517f08c379a00000000000000000000000000000000000000000000000000000000081526004016123d3906149d7565b60405180910390fd5b5b5b5b6123ea8383836127bc565b505050565b60006124108473ffffffffffffffffffffffffffffffffffffffff16612ab5565b15612569578373ffffffffffffffffffffffffffffffffffffffff1663150b7a02612439611420565b8786866040518563ffffffff1660e01b815260040161245b9493929190614a3b565b6020604051808303816000875af192505050801561249757506040513d601f19601f820116820180604052508101906124949190614a9c565b60015b612519573d80600081146124c7576040519150601f19603f3d011682016040523d82523d6000602084013e6124cc565b606091505b506000815103612511576040517f08c379a000000000000000000000000000000000000000000000000000000000815260040161250890614521565b60405180910390fd5b805181602001fd5b63150b7a0260e01b7bffffffffffffffffffffffffffffffffffffffffffffffffffffffff1916817bffffffffffffffffffffffffffffffffffffffffffffffffffffffff19161491505061256e565b600190505b949350505050565b6125838686868686612ad8565b6125906000878784612c20565b6125cf576040517f08c379a00000000000000000000000000000000000000000000000000000000081526004016125c690614521565b60405180910390fd5b505050505050565b60018111156126f757600073ffffffffffffffffffffffffffffffffffffffff168473ffffffffffffffffffffffffffffffffffffffff161461266b5780600360008673ffffffffffffffffffffffffffffffffffffffff1673ffffffffffffffffffffffffffffffffffffffff16815260200190815260200160002060008282546126639190614133565b925050819055505b600073ffffffffffffffffffffffffffffffffffffffff168373ffffffffffffffffffffffffffffffffffffffff16146126f65780600360008573ffffffffffffffffffffffffffffffffffffffff1673ffffffffffffffffffffffffffffffffffffffff16815260200190815260200160002060008282546126ee91906141c7565b925050819055505b5b50505050565b50505050565b816004600083815260200190815260200160002060006101000a81548173ffffffffffffffffffffffffffffffffffffffff021916908373ffffffffffffffffffffffffffffffffffffffff160217905550808273ffffffffffffffffffffffffffffffffffffffff1661277683610b94565b73ffffffffffffffffffffffffffffffffffffffff167f8c5be1e5ebec7d5bd14f71427d1e84f3dd0314c0f7b2291e5b200ac8c7c3b92560405160405180910390a45050565b8273ffffffffffffffffffffffffffffffffffffffff166127dc82610b94565b73ffffffffffffffffffffffffffffffffffffffff1614612832576040517f08c379a000000000000000000000000000000000000000000000000000000000815260040161282990614b3b565b60405180910390fd5b600073ffffffffffffffffffffffffffffffffffffffff168273ffffffffffffffffffffffffffffffffffffffff16036128a1576040517f08c379a000000000000000000000000000000000000000000000000000000000815260040161289890614bcd565b60405180910390fd5b6128ae83838360016125d7565b8273ffffffffffffffffffffffffffffffffffffffff166128ce82610b94565b73ffffffffffffffffffffffffffffffffffffffff1614612924576040517f08c379a000000000000000000000000000000000000000000000000000000000815260040161291b90614b3b565b60405180910390fd5b6004600082815260200190815260200160002060006101000a81549073ffffffffffffffffffffffffffffffffffffffff02191690556001600360008573ffffffffffffffffffffffffffffffffffffffff1673ffffffffffffffffffffffffffffffffffffffff168152602001908152602001600020600082825403925050819055506001600360008473ffffffffffffffffffffffffffffffffffffffff1673ffffffffffffffffffffffffffffffffffffffff16815260200190815260200160002060008282540192505081905550816002600083815260200190815260200160002060006101000a81548173ffffffffffffffffffffffffffffffffffffffff021916908373ffffffffffffffffffffffffffffffffffffffff160217905550808273ffffffffffffffffffffffffffffffffffffffff168473ffffffffffffffffffffffffffffffffffffffff167fddf252ad1be2c89b69c2b068fc378daa952ba7f163c4a11628f55a4df523b3ef60405160405180910390a4612ab083838360016126fd565b505050565b6000808273ffffffffffffffffffffffffffffffffffffffff163b119050919050565b612ae0610687565b600073ffffffffffffffffffffffffffffffffffffffff168573ffffffffffffffffffffffffffffffffffffffff1603612b4f576040517f08c379a0000000000000000000000000000000000000000000000000000000008152600401612b4690614c5f565b60405180910390fd5b612b588461181a565b15612b98576040517f08c379a0000000000000000000000000000000000000000000000000000000008152600401612b8f90614ccb565b60405180910390fd5b806009600086815260200190815260200160002060006101000a81548160ff02191690836003811115612bce57612bcd613325565b5b0217905550816008600086815260200190815260200160002060006101000a81548160ff02191690836003811115612c0957612c08613325565b5b0217905550612c19858585612da7565b5050505050565b6000612c418473ffffffffffffffffffffffffffffffffffffffff16612ab5565b15612d9a578373ffffffffffffffffffffffffffffffffffffffff1663150b7a02612c6a611420565b8786866040518563ffffffff1660e01b8152600401612c8c9493929190614a3b565b6020604051808303816000875af1925050508015612cc857506040513d601f19601f82011682018060405250810190612cc59190614a9c565b60015b612d4a573d8060008114612cf8576040519150601f19603f3d011682016040523d82523d6000602084013e612cfd565b606091505b506000815103612d42576040517f08c379a0000000000000000000000000000000000000000000000000000000008152600401612d3990614d5d565b60405180910390fd5b805181602001fd5b63150b7a0260e01b7bffffffffffffffffffffffffffffffffffffffffffffffffffffffff1916817bffffffffffffffffffffffffffffffffffffffffffffffffffffffff191614915050612d9f565b600190505b949350505050565b612daf610687565b806007600084815260200190815260200160002060006101000a81548160ff02191690836003811115612de557612de4613325565b5b0217905550612df48383612e66565b818373ffffffffffffffffffffffffffffffffffffffff16612e14611420565b73ffffffffffffffffffffffffffffffffffffffff167f135ffb3383e06280e062ac5095bbf8faa98517161e596a2536bd98a9a8b64a8884604051612e59919061339c565b60405180910390a4505050565b600073ffffffffffffffffffffffffffffffffffffffff168273ffffffffffffffffffffffffffffffffffffffff1603612ed5576040517f08c379a0000000000000000000000000000000000000000000000000000000008152600401612ecc90614dc9565b60405180910390fd5b612ede8161181a565b15612f1e576040517f08c379a0000000000000000000000000000000000000000000000000000000008152600401612f1590614e35565b60405180910390fd5b612f2c6000838360016125d7565b612f358161181a565b15612f75576040517f08c379a0000000000000000000000000000000000000000000000000000000008152600401612f6c90614e35565b60405180910390fd5b6001600360008473ffffffffffffffffffffffffffffffffffffffff1673ffffffffffffffffffffffffffffffffffffffff16815260200190815260200160002060008282540192505081905550816002600083815260200190815260200160002060006101000a81548173ffffffffffffffffffffffffffffffffffffffff021916908373ffffffffffffffffffffffffffffffffffffffff160217905550808273ffffffffffffffffffffffffffffffffffffffff16600073ffffffffffffffffffffffffffffffffffffffff167fddf252ad1be2c89b69c2b068fc378daa952ba7f163c4a11628f55a4df523b3ef60405160405180910390a461307f6000838360016126fd565b5050565b600073ffffffffffffffffffffffffffffffffffffffff82169050919050565b60006130ae82613083565b9050919050565b6130be816130a3565b82525050565b6000819050919050565b6130d7816130c4565b82525050565b60006040820190506130f260008301856130b5565b6130ff60208301846130ce565b9392505050565b600082825260208201905092915050565b82818337600083830152505050565b6000601f19601f8301169050919050565b60006131438385613106565b9350613150838584613117565b61315983613126565b840190509392505050565b600060608201905061317960008301876130b5565b61318660208301866130ce565b8181036040830152613199818486613137565b905095945050505050565b6000604051905090565b600080fd5b600080fd5b60007fffffffff0000000000000000000000000000000000000000000000000000000082169050919050565b6131ed816131b8565b81146131f857600080fd5b50565b60008135905061320a816131e4565b92915050565b600060208284031215613226576132256131ae565b5b6000613234848285016131fb565b91505092915050565b60008115159050919050565b6132528161323d565b82525050565b600060208201905061326d6000830184613249565b92915050565b61327c816130a3565b811461328757600080fd5b50565b60008135905061329981613273565b92915050565b6000602082840312156132b5576132b46131ae565b5b60006132c38482850161328a565b91505092915050565b6132d5816130c4565b81146132e057600080fd5b50565b6000813590506132f2816132cc565b92915050565b60006020828403121561330e5761330d6131ae565b5b600061331c848285016132e3565b91505092915050565b7f4e487b7100000000000000000000000000000000000000000000000000000000600052602160045260246000fd5b6004811061336557613364613325565b5b50565b600081905061337682613354565b919050565b600061338682613368565b9050919050565b6133968161337b565b82525050565b60006020820190506133b1600083018461338d565b92915050565b600481106133c8576133c7613325565b5b50565b60008190506133d9826133b7565b919050565b60006133e9826133cb565b9050919050565b6133f9816133de565b82525050565b600060208201905061341460008301846133f0565b92915050565b600081519050919050565b600082825260208201905092915050565b60005b83811015613454578082015181840152602081019050613439565b60008484015250505050565b600061346b8261341a565b6134758185613425565b9350613485818560208601613436565b61348e81613126565b840191505092915050565b600060208201905081810360008301526134b38184613460565b905092915050565b60006020820190506134d060008301846130b5565b92915050565b600080604083850312156134ed576134ec6131ae565b5b60006134fb8582860161328a565b925050602061350c858286016132e3565b9150509250929050565b60008060006060848603121561352f5761352e6131ae565b5b600061353d8682870161328a565b935050602061354e8682870161328a565b925050604061355f868287016132e3565b9150509250925092565b600060208201905061357e60008301846130ce565b92915050565b6000806040838503121561359b5761359a6131ae565b5b60006135a9858286016132e3565b92505060206135ba8582860161328a565b9150509250929050565b6135cd8161323d565b81146135d857600080fd5b50565b6000813590506135ea816135c4565b92915050565b60008060408385031215613607576136066131ae565b5b60006136158582860161328a565b9250506020613626858286016135db565b9150509250929050565b600080fd5b600080fd5b7f4e487b7100000000000000000000000000000000000000000000000000000000600052604160045260246000fd5b61367282613126565b810181811067ffffffffffffffff821117156136915761369061363a565b5b80604052505050565b60006136a46131a4565b90506136b08282613669565b919050565b600067ffffffffffffffff8211156136d0576136cf61363a565b5b6136d982613126565b9050602081019050919050565b60006136f96136f4846136b5565b61369a565b90508281526020810184848401111561371557613714613635565b5b613720848285613117565b509392505050565b600082601f83011261373d5761373c613630565b5b813561374d8482602086016136e6565b91505092915050565b600080600080608085870312156137705761376f6131ae565b5b600061377e8782880161328a565b945050602061378f8782880161328a565b93505060406137a0878288016132e3565b925050606085013567ffffffffffffffff8111156137c1576137c06131b3565b5b6137cd87828801613728565b91505092959194509250565b600080fd5b600080fd5b60008083601f8401126137f9576137f8613630565b5b8235905067ffffffffffffffff811115613816576138156137d9565b5b602083019150836001820283011115613832576138316137de565b5b9250929050565b60008060008060608587031215613853576138526131ae565b5b60006138618782880161328a565b945050602085013567ffffffffffffffff811115613882576138816131b3565b5b61388e878288016137e3565b935093505060406138a1878288016132e3565b91505092959194509250565b600481106138be576138bd613325565b5b50565b60008190506138cf826138ad565b919050565b60006138df826138c1565b9050919050565b6138ef816138d4565b82525050565b600060208201905061390a60008301846138e6565b92915050565b60008060408385031215613927576139266131ae565b5b60006139358582860161328a565b92505060206139468582860161328a565b9150509250929050565b7f4f776e61626c653a2063616c6c6572206973206e6f7420746865206f776e6572600082015250565b6000613986602083613425565b915061399182613950565b602082019050919050565b600060208201905081810360008301526139b581613979565b9050919050565b7f456d706c6f796565436172643a20746f6b656e20646f6573206e6f742065786960008201527f7374000000000000000000000000000000000000000000000000000000000000602082015250565b6000613a18602283613425565b9150613a23826139bc565b604082019050919050565b60006020820190508181036000830152613a4781613a0b565b9050919050565b7f4e487b7100000000000000000000000000000000000000000000000000000000600052602260045260246000fd5b60006002820490506001821680613a9557607f821691505b602082108103613aa857613aa7613a4e565b5b50919050565b7f4552433732313a20617070726f76616c20746f2063757272656e74206f776e6560008201527f7200000000000000000000000000000000000000000000000000000000000000602082015250565b6000613b0a602183613425565b9150613b1582613aae565b604082019050919050565b60006020820190508181036000830152613b3981613afd565b9050919050565b7f4552433732313a20617070726f76652063616c6c6572206973206e6f7420746f60008201527f6b656e206f776e6572206f7220617070726f76656420666f7220616c6c000000602082015250565b6000613b9c603d83613425565b9150613ba782613b40565b604082019050919050565b60006020820190508181036000830152613bcb81613b8f565b9050919050565b7f4552433732313a2063616c6c6572206973206e6f7420746f6b656e206f776e6560008201527f72206f7220617070726f76656400000000000000000000000000000000000000602082015250565b6000613c2e602d83613425565b9150613c3982613bd2565b604082019050919050565b60006020820190508181036000830152613c5d81613c21565b9050919050565b7f4552433732313a20696e76616c696420746f6b656e2049440000000000000000600082015250565b6000613c9a601883613425565b9150613ca582613c64565b602082019050919050565b60006020820190508181036000830152613cc981613c8d565b9050919050565b7f4552433732313a2061646472657373207a65726f206973206e6f74206120766160008201527f6c6964206f776e65720000000000000000000000000000000000000000000000602082015250565b6000613d2c602983613425565b9150613d3782613cd0565b604082019050919050565b60006020820190508181036000830152613d5b81613d1f565b9050919050565b7f416e20656d706c6f7965652063616e206f6e6c792068617665203120746f6b6560008201527f6e00000000000000000000000000000000000000000000000000000000000000602082015250565b6000613dbe602183613425565b9150613dc982613d62565b604082019050919050565b60006020820190508181036000830152613ded81613db1565b9050919050565b60008190508160005260206000209050919050565b60006020601f8301049050919050565b600082821b905092915050565b600060088302613e567fffffffffffffffffffffffffffffffffffffffffffffffffffffffffffffffff82613e19565b613e608683613e19565b95508019841693508086168417925050509392505050565b6000819050919050565b6000613e9d613e98613e93846130c4565b613e78565b6130c4565b9050919050565b6000819050919050565b613eb783613e82565b613ecb613ec382613ea4565b848454613e26565b825550505050565b600090565b613ee0613ed3565b613eeb818484613eae565b505050565b5b81811015613f0f57613f04600082613ed8565b600181019050613ef1565b5050565b601f821115613f5457613f2581613df4565b613f2e84613e09565b81016020851015613f3d578190505b613f51613f4985613e09565b830182613ef0565b50505b505050565b600082821c905092915050565b6000613f7760001984600802613f59565b1980831691505092915050565b6000613f908383613f66565b9150826002028217905092915050565b613fa98261341a565b67ffffffffffffffff811115613fc257613fc161363a565b5b613fcc8254613a7d565b613fd7828285613f13565b600060209050601f83116001811461400a5760008415613ff8578287015190505b6140028582613f84565b86555061406a565b601f19841661401886613df4565b60005b828110156140405784890151825560018201915060208501945060208101905061401b565b8683101561405d5784890151614059601f891682613f66565b8355505b6001600288020188555050505b505050505050565b7f4f776e61626c653a206e6577206f776e657220697320746865207a65726f206160008201527f6464726573730000000000000000000000000000000000000000000000000000602082015250565b60006140ce602683613425565b91506140d982614072565b604082019050919050565b600060208201905081810360008301526140fd816140c1565b9050919050565b7f4e487b7100000000000000000000000000000000000000000000000000000000600052601160045260246000fd5b600061413e826130c4565b9150614149836130c4565b925082820390508181111561416157614160614104565b5b92915050565b7f4e487b7100000000000000000000000000000000000000000000000000000000600052601260045260246000fd5b60006141a1826130c4565b91506141ac836130c4565b9250826141bc576141bb614167565b5b828204905092915050565b60006141d2826130c4565b91506141dd836130c4565b92508282019050808211156141f5576141f4614104565b5b92915050565b7f45524320353438343a204275726e206973206e6f7420616c6c6f776564000000600082015250565b6000614231601d83613425565b915061423c826141fb565b602082019050919050565b6000602082019050818103600083015261426081614224565b9050919050565b7f45524320353438343a204f6e6c792074686520697373756572206f662074686560008201527f20746f6b656e20697320616c6c6f77656420746f206275726e2e000000000000602082015250565b60006142c3603a83613425565b91506142ce82614267565b604082019050919050565b600060208201905081810360008301526142f2816142b6565b9050919050565b7f45524320353438343a204f6e6c7920746865206f776e6572206f66207468652060008201527f746f6b656e20697320616c6c6f77656420746f206275726e2e00000000000000602082015250565b6000614355603983613425565b9150614360826142f9565b604082019050919050565b6000602082019050818103600083015261438481614348565b9050919050565b7f45524320353438343a204f6e6c7920746865206f776e6572206f72207468652060008201527f697373756572206f662074686520746f6b656e2061726520616c6c6f7765642060208201527f746f206275726e2e000000000000000000000000000000000000000000000000604082015250565b600061440d604883613425565b91506144188261438b565b606082019050919050565b6000602082019050818103600083015261443c81614400565b9050919050565b7f4552433732313a20617070726f766520746f2063616c6c657200000000000000600082015250565b6000614479601983613425565b915061448482614443565b602082019050919050565b600060208201905081810360008301526144a88161446c565b9050919050565b7f4552433732313a207472616e7366657220746f206e6f6e20455243373231526560008201527f63656976657220696d706c656d656e7465720000000000000000000000000000602082015250565b600061450b603283613425565b9150614516826144af565b604082019050919050565b6000602082019050818103600083015261453a816144fe565b9050919050565b7f45524320353438343a20417070726f7665206973206e6f7420616c6c6f776564600082015250565b6000614577602083613425565b915061458282614541565b602082019050919050565b600060208201905081810360008301526145a68161456a565b9050919050565b7f45524320353438343a204f6e6c792074686520697373756572206f662074686560008201527f20746f6b656e20697320616c6c6f77656420746f20617070726f76652e000000602082015250565b6000614609603d83613425565b9150614614826145ad565b604082019050919050565b60006020820190508181036000830152614638816145fc565b9050919050565b7f45524320353438343a204f6e6c7920746865206f776e6572206f66207468652060008201527f746f6b656e20697320616c6c6f77656420746f20617070726f76652e00000000602082015250565b600061469b603c83613425565b91506146a68261463f565b604082019050919050565b600060208201905081810360008301526146ca8161468e565b9050919050565b7f45524320353438343a204f6e6c7920746865206f776e6572206f72207468652060008201527f697373756572206f662074686520746f6b656e2061726520616c6c6f7765642060208201527f746f20617070726f76652e000000000000000000000000000000000000000000604082015250565b6000614753604b83613425565b915061475e826146d1565b606082019050919050565b6000602082019050818103600083015261478281614746565b9050919050565b7f45524320353438343a205472616e73666572206973206e6f7420616c6c6f776560008201527f6400000000000000000000000000000000000000000000000000000000000000602082015250565b60006147e5602183613425565b91506147f082614789565b604082019050919050565b60006020820190508181036000830152614814816147d8565b9050919050565b7f45524320353438343a204f6e6c792074686520697373756572206f662074686560008201527f20746f6b656e20697320616c6c6f77656420746f207472616e736665722e0000602082015250565b6000614877603e83613425565b91506148828261481b565b604082019050919050565b600060208201905081810360008301526148a68161486a565b9050919050565b7f45524320353438343a204f6e6c7920746865206f776e6572206f66207468652060008201527f746f6b656e20697320616c6c6f77656420746f207472616e736665722e000000602082015250565b6000614909603d83613425565b9150614914826148ad565b604082019050919050565b60006020820190508181036000830152614938816148fc565b9050919050565b7f45524320353438343a204f6e6c7920746865206f776e6572206f72207468652060008201527f697373756572206f662074686520746f6b656e2061726520616c6c6f7765642060208201527f746f207472616e736665722e0000000000000000000000000000000000000000604082015250565b60006149c1604c83613425565b91506149cc8261493f565b606082019050919050565b600060208201905081810360008301526149f0816149b4565b9050919050565b600081519050919050565b6000614a0d826149f7565b614a178185613106565b9350614a27818560208601613436565b614a3081613126565b840191505092915050565b6000608082019050614a5060008301876130b5565b614a5d60208301866130b5565b614a6a60408301856130ce565b8181036060830152614a7c8184614a02565b905095945050505050565b600081519050614a96816131e4565b92915050565b600060208284031215614ab257614ab16131ae565b5b6000614ac084828501614a87565b91505092915050565b7f4552433732313a207472616e736665722066726f6d20696e636f72726563742060008201527f6f776e6572000000000000000000000000000000000000000000000000000000602082015250565b6000614b25602583613425565b9150614b3082614ac9565b604082019050919050565b60006020820190508181036000830152614b5481614b18565b9050919050565b7f4552433732313a207472616e7366657220746f20746865207a65726f2061646460008201527f7265737300000000000000000000000000000000000000000000000000000000602082015250565b6000614bb7602483613425565b9150614bc282614b5b565b604082019050919050565b60006020820190508181036000830152614be681614baa565b9050919050565b7f455243353438343a206d696e7420746f20746865207a65726f2061646472657360008201527f7300000000000000000000000000000000000000000000000000000000000000602082015250565b6000614c49602183613425565b9150614c5482614bed565b604082019050919050565b60006020820190508181036000830152614c7881614c3c565b9050919050565b7f455243353438343a20746f6b656e20616c7265616479206d696e746564000000600082015250565b6000614cb5601d83613425565b9150614cc082614c7f565b602082019050919050565b60006020820190508181036000830152614ce481614ca8565b9050919050565b7f455243353438343a207472616e7366657220746f206e6f6e204552433732315260008201527f6563656976657220696d706c656d656e74657200000000000000000000000000602082015250565b6000614d47603383613425565b9150614d5282614ceb565b604082019050919050565b60006020820190508181036000830152614d7681614d3a565b9050919050565b7f4552433732313a206d696e7420746f20746865207a65726f2061646472657373600082015250565b6000614db3602083613425565b9150614dbe82614d7d565b602082019050919050565b60006020820190508181036000830152614de281614da6565b9050919050565b7f4552433732313a20746f6b656e20616c7265616479206d696e74656400000000600082015250565b6000614e1f601c83613425565b9150614e2a82614de9565b602082019050919050565b60006020820190508181036000830152614e4e81614e12565b905091905056fea264697066735822122082696526d02205858b574d6f77fd7911065aaf19945ea0fc82456c72524b221064736f6c63430008110033",
  "devdoc": {
    "kind": "dev",
    "methods": {
      "approve(address,uint256)": {
        "details": "See {IERC721-approve}."
      },
      "approveAuth(uint256)": {
        "details": "Gets the approve authorization information for this token."
      },
      "balanceOf(address)": {
        "details": "See {IERC721-balanceOf}."
      },
      "burnAuth(uint256)": {
        "details": "Gets the burn authorization information for this token."
      },
      "burnCard(address)": {
        "params": {
          "_holder": "Current holder of the card."
        }
      },
      "getApproved(uint256)": {
        "details": "See {IERC721-getApproved}."
      },
      "getEmployeeCardId(address)": {
        "params": {
          "employee": "Employee address."
        }
      },
      "getEmployeeVacationRights(address)": {
        "params": {
          "employee": "Employee address."
        }
      },
      "isApprovedForAll(address,address)": {
        "details": "See {IERC721-isApprovedForAll}."
      },
      "mint(address,string,uint256)": {
        "params": {
          "_recipient": "Recipient address",
          "_startDate": "Employee start date  ",
          "_tokenURI": "The token URI"
        }
      },
      "name()": {
        "details": "See {IERC721Metadata-name}."
      },
      "owner()": {
        "details": "Returns the address of the current owner."
      },
      "ownerOf(uint256)": {
        "details": "See {IERC721-ownerOf}."
      },
      "renounceOwnership()": {
        "details": "Leaves the contract without owner. It will not be possible to call `onlyOwner` functions anymore. Can only be called by the current owner. NOTE: Renouncing ownership will leave the contract without an owner, thereby removing any functionality that is only available to the owner."
      },
      "safeTransferFrom(address,address,uint256)": {
        "details": "See {IERC721-safeTransferFrom}."
      },
      "safeTransferFrom(address,address,uint256,bytes)": {
        "details": "See {IERC721-safeTransferFrom}."
      },
      "setApprovalForAll(address,bool)": {
        "details": "See {IERC721-setApprovalForAll}."
      },
      "supportsInterface(bytes4)": {
        "details": "See {IERC165-supportsInterface}."
      },
      "symbol()": {
        "details": "See {IERC721Metadata-symbol}."
      },
      "transferAuth(uint256)": {
        "details": "Gets the transfer authorization information for this token."
      },
      "transferCard(uint256,address)": {
        "params": {
          "_newEmployeeAddress": "New address of the employee.",
          "_tokenId": "Id of the card to transfer."
        }
      },
      "transferFrom(address,address,uint256)": {
        "details": "See {IERC721-transferFrom}."
      },
      "transferOwnership(address)": {
        "details": "Transfers ownership of the contract to a new account (`newOwner`). Can only be called by the current owner."
      }
    },
    "version": 1
  },
  "userdoc": {
    "events": {
      "Issued(address,address,uint256,uint8)": {
        "notice": "Emitted when a soulbound token is issued."
      }
    },
    "kind": "user",
    "methods": {
      "burnCard(address)": {
        "notice": "Allows the owner to burn the card. "
      },
      "getEmployeeCardId(address)": {
        "notice": "Gets the employee card id. "
      },
      "getEmployeeVacationRights(address)": {
        "notice": "Calculate total amount of days the employee can expect according to its time in the company. "
      },
      "mint(address,string,uint256)": {
        "notice": "Mint a new employee card SBT token. "
      },
      "tokenURI(uint256)": {
        "notice": "Gets the URI of the token metadata. Using IPFS URI is highly recommended."
      },
      "transferCard(uint256,address)": {
        "notice": "Allows the owner to transfer the card. "
      }
    },
    "version": 1
  },
  "storageLayout": {
    "storage": [
      {
        "astId": 138,
        "contract": "contracts/EmployeeCard.sol:EmployeeCard",
        "label": "_name",
        "offset": 0,
        "slot": "0",
        "type": "t_string_storage"
      },
      {
        "astId": 140,
        "contract": "contracts/EmployeeCard.sol:EmployeeCard",
        "label": "_symbol",
        "offset": 0,
        "slot": "1",
        "type": "t_string_storage"
      },
      {
        "astId": 144,
        "contract": "contracts/EmployeeCard.sol:EmployeeCard",
        "label": "_owners",
        "offset": 0,
        "slot": "2",
        "type": "t_mapping(t_uint256,t_address)"
      },
      {
        "astId": 148,
        "contract": "contracts/EmployeeCard.sol:EmployeeCard",
        "label": "_balances",
        "offset": 0,
        "slot": "3",
        "type": "t_mapping(t_address,t_uint256)"
      },
      {
        "astId": 152,
        "contract": "contracts/EmployeeCard.sol:EmployeeCard",
        "label": "_tokenApprovals",
        "offset": 0,
        "slot": "4",
        "type": "t_mapping(t_uint256,t_address)"
      },
      {
        "astId": 158,
        "contract": "contracts/EmployeeCard.sol:EmployeeCard",
        "label": "_operatorApprovals",
        "offset": 0,
        "slot": "5",
        "type": "t_mapping(t_address,t_mapping(t_address,t_bool))"
      },
      {
        "astId": 7,
        "contract": "contracts/EmployeeCard.sol:EmployeeCard",
        "label": "_owner",
        "offset": 0,
        "slot": "6",
        "type": "t_address"
      },
      {
        "astId": 3053,
        "contract": "contracts/EmployeeCard.sol:EmployeeCard",
        "label": "burnAuths",
        "offset": 0,
        "slot": "7",
        "type": "t_mapping(t_uint256,t_enum(BurnAuth)3345)"
      },
      {
        "astId": 3381,
        "contract": "contracts/EmployeeCard.sol:EmployeeCard",
        "label": "approveAuths",
        "offset": 0,
        "slot": "8",
        "type": "t_mapping(t_uint256,t_enum(ApproveAuth)4027)"
      },
      {
        "astId": 3792,
        "contract": "contracts/EmployeeCard.sol:EmployeeCard",
        "label": "transferAuths",
        "offset": 0,
        "slot": "9",
        "type": "t_mapping(t_uint256,t_enum(TransferAuth)4048)"
      },
      {
        "astId": 2736,
        "contract": "contracts/EmployeeCard.sol:EmployeeCard",
        "label": "_counter",
        "offset": 0,
        "slot": "10",
        "type": "t_struct(Counter)1576_storage"
      },
      {
        "astId": 2745,
        "contract": "contracts/EmployeeCard.sol:EmployeeCard",
        "label": "_cards",
        "offset": 0,
        "slot": "11",
        "type": "t_mapping(t_address,t_uint256)"
      },
      {
        "astId": 2750,
        "contract": "contracts/EmployeeCard.sol:EmployeeCard",
        "label": "_cardsData",
        "offset": 0,
        "slot": "12",
        "type": "t_mapping(t_uint256,t_struct(CardData)2741_storage)"
      }
    ],
    "types": {
      "t_address": {
        "encoding": "inplace",
        "label": "address",
        "numberOfBytes": "20"
      },
      "t_bool": {
        "encoding": "inplace",
        "label": "bool",
        "numberOfBytes": "1"
      },
      "t_enum(ApproveAuth)4027": {
        "encoding": "inplace",
        "label": "enum IERC5484ConsensuallyApprovable.ApproveAuth",
        "numberOfBytes": "1"
      },
      "t_enum(BurnAuth)3345": {
        "encoding": "inplace",
        "label": "enum IERC5484.BurnAuth",
        "numberOfBytes": "1"
      },
      "t_enum(TransferAuth)4048": {
        "encoding": "inplace",
        "label": "enum IERC5484ConsensuallyTransferable.TransferAuth",
        "numberOfBytes": "1"
      },
      "t_mapping(t_address,t_bool)": {
        "encoding": "mapping",
        "key": "t_address",
        "label": "mapping(address => bool)",
        "numberOfBytes": "32",
        "value": "t_bool"
      },
      "t_mapping(t_address,t_mapping(t_address,t_bool))": {
        "encoding": "mapping",
        "key": "t_address",
        "label": "mapping(address => mapping(address => bool))",
        "numberOfBytes": "32",
        "value": "t_mapping(t_address,t_bool)"
      },
      "t_mapping(t_address,t_uint256)": {
        "encoding": "mapping",
        "key": "t_address",
        "label": "mapping(address => uint256)",
        "numberOfBytes": "32",
        "value": "t_uint256"
      },
      "t_mapping(t_uint256,t_address)": {
        "encoding": "mapping",
        "key": "t_uint256",
        "label": "mapping(uint256 => address)",
        "numberOfBytes": "32",
        "value": "t_address"
      },
      "t_mapping(t_uint256,t_enum(ApproveAuth)4027)": {
        "encoding": "mapping",
        "key": "t_uint256",
        "label": "mapping(uint256 => enum IERC5484ConsensuallyApprovable.ApproveAuth)",
        "numberOfBytes": "32",
        "value": "t_enum(ApproveAuth)4027"
      },
      "t_mapping(t_uint256,t_enum(BurnAuth)3345)": {
        "encoding": "mapping",
        "key": "t_uint256",
        "label": "mapping(uint256 => enum IERC5484.BurnAuth)",
        "numberOfBytes": "32",
        "value": "t_enum(BurnAuth)3345"
      },
      "t_mapping(t_uint256,t_enum(TransferAuth)4048)": {
        "encoding": "mapping",
        "key": "t_uint256",
        "label": "mapping(uint256 => enum IERC5484ConsensuallyTransferable.TransferAuth)",
        "numberOfBytes": "32",
        "value": "t_enum(TransferAuth)4048"
      },
      "t_mapping(t_uint256,t_struct(CardData)2741_storage)": {
        "encoding": "mapping",
        "key": "t_uint256",
        "label": "mapping(uint256 => struct EmployeeCard.CardData)",
        "numberOfBytes": "32",
        "value": "t_struct(CardData)2741_storage"
      },
      "t_string_storage": {
        "encoding": "bytes",
        "label": "string",
        "numberOfBytes": "32"
      },
      "t_struct(CardData)2741_storage": {
        "encoding": "inplace",
        "label": "struct EmployeeCard.CardData",
        "members": [
          {
            "astId": 2738,
            "contract": "contracts/EmployeeCard.sol:EmployeeCard",
            "label": "tokenURI",
            "offset": 0,
            "slot": "0",
            "type": "t_string_storage"
          },
          {
            "astId": 2740,
            "contract": "contracts/EmployeeCard.sol:EmployeeCard",
            "label": "startDate",
            "offset": 0,
            "slot": "1",
            "type": "t_uint256"
          }
        ],
        "numberOfBytes": "64"
      },
      "t_struct(Counter)1576_storage": {
        "encoding": "inplace",
        "label": "struct Counters.Counter",
        "members": [
          {
            "astId": 1575,
            "contract": "contracts/EmployeeCard.sol:EmployeeCard",
            "label": "_value",
            "offset": 0,
            "slot": "0",
            "type": "t_uint256"
          }
        ],
        "numberOfBytes": "32"
      },
      "t_uint256": {
        "encoding": "inplace",
        "label": "uint256",
        "numberOfBytes": "32"
      }
    }
  }
}