{
  "address": "0x96e28ce7f5c49E24E24b1BFc8e00Ec77e7EdAA2B",
  "abi": [
    {
      "inputs": [
        {
          "internalType": "string",
          "name": "name",
          "type": "string"
        },
        {
          "internalType": "string",
          "name": "symbol",
          "type": "string"
        }
      ],
      "stateMutability": "nonpayable",
      "type": "constructor"
    },
    {
      "anonymous": false,
      "inputs": [
        {
          "indexed": true,
          "internalType": "address",
          "name": "owner",
          "type": "address"
        },
        {
          "indexed": true,
          "internalType": "address",
          "name": "approved",
          "type": "address"
        },
        {
          "indexed": true,
          "internalType": "uint256",
          "name": "tokenId",
          "type": "uint256"
        }
      ],
      "name": "Approval",
      "type": "event"
    },
    {
      "anonymous": false,
      "inputs": [
        {
          "indexed": true,
          "internalType": "address",
          "name": "owner",
          "type": "address"
        },
        {
          "indexed": true,
          "internalType": "address",
          "name": "operator",
          "type": "address"
        },
        {
          "indexed": false,
          "internalType": "bool",
          "name": "approved",
          "type": "bool"
        }
      ],
      "name": "ApprovalForAll",
      "type": "event"
    },
    {
      "anonymous": false,
      "inputs": [
        {
          "indexed": false,
          "internalType": "address",
          "name": "sender",
          "type": "address"
        },
        {
          "indexed": false,
          "internalType": "uint256",
          "name": "amount",
          "type": "uint256"
        },
        {
          "indexed": false,
          "internalType": "bytes",
          "name": "data",
          "type": "bytes"
        }
      ],
      "name": "CallReceived",
      "type": "event"
    },
    {
      "anonymous": false,
      "inputs": [
        {
          "indexed": false,
          "internalType": "address",
          "name": "employee",
          "type": "address"
        },
        {
          "indexed": false,
          "internalType": "uint256",
          "name": "tokenId",
          "type": "uint256"
        }
      ],
      "name": "EmployeeCardMinted",
      "type": "event"
    },
    {
      "anonymous": false,
      "inputs": [
        {
          "indexed": true,
          "internalType": "address",
          "name": "previousOwner",
          "type": "address"
        },
        {
          "indexed": true,
          "internalType": "address",
          "name": "newOwner",
          "type": "address"
        }
      ],
      "name": "OwnershipTransferred",
      "type": "event"
    },
    {
      "anonymous": false,
      "inputs": [
        {
          "indexed": false,
          "internalType": "address",
          "name": "sender",
          "type": "address"
        },
        {
          "indexed": false,
          "internalType": "uint256",
          "name": "amount",
          "type": "uint256"
        }
      ],
      "name": "TokenReceived",
      "type": "event"
    },
    {
      "anonymous": false,
      "inputs": [
        {
          "indexed": true,
          "internalType": "address",
          "name": "from",
          "type": "address"
        },
        {
          "indexed": true,
          "internalType": "address",
          "name": "to",
          "type": "address"
        },
        {
          "indexed": true,
          "internalType": "uint256",
          "name": "tokenId",
          "type": "uint256"
        }
      ],
      "name": "Transfer",
      "type": "event"
    },
    {
      "anonymous": false,
      "inputs": [
        {
          "indexed": false,
          "internalType": "address",
          "name": "employee",
          "type": "address"
        }
      ],
      "name": "VacationRightsCalculated",
      "type": "event"
    },
    {
      "stateMutability": "payable",
      "type": "fallback"
    },
    {
      "inputs": [
        {
          "internalType": "address",
          "name": "to",
          "type": "address"
        },
        {
          "internalType": "uint256",
          "name": "tokenId",
          "type": "uint256"
        }
      ],
      "name": "approve",
      "outputs": [],
      "stateMutability": "nonpayable",
      "type": "function"
    },
    {
      "inputs": [
        {
          "internalType": "address",
          "name": "owner",
          "type": "address"
        }
      ],
      "name": "balanceOf",
      "outputs": [
        {
          "internalType": "uint256",
          "name": "",
          "type": "uint256"
        }
      ],
      "stateMutability": "view",
      "type": "function"
    },
    {
      "inputs": [
        {
          "internalType": "address",
          "name": "_holder",
          "type": "address"
        }
      ],
      "name": "burnCard",
      "outputs": [],
      "stateMutability": "nonpayable",
      "type": "function"
    },
    {
      "inputs": [
        {
          "internalType": "uint256",
          "name": "tokenId",
          "type": "uint256"
        }
      ],
      "name": "getApproved",
      "outputs": [
        {
          "internalType": "address",
          "name": "",
          "type": "address"
        }
      ],
      "stateMutability": "view",
      "type": "function"
    },
    {
      "inputs": [
        {
          "internalType": "address",
          "name": "employee",
          "type": "address"
        }
      ],
      "name": "getEmployeeVacationRights",
      "outputs": [
        {
          "internalType": "uint256",
          "name": "",
          "type": "uint256"
        }
      ],
      "stateMutability": "view",
      "type": "function"
    },
    {
      "inputs": [
        {
          "internalType": "address",
          "name": "owner",
          "type": "address"
        },
        {
          "internalType": "address",
          "name": "operator",
          "type": "address"
        }
      ],
      "name": "isApprovedForAll",
      "outputs": [
        {
          "internalType": "bool",
          "name": "",
          "type": "bool"
        }
      ],
      "stateMutability": "view",
      "type": "function"
    },
    {
      "inputs": [
        {
          "internalType": "address",
          "name": "_recipient",
          "type": "address"
        },
        {
          "internalType": "string",
          "name": "_tokenURI",
          "type": "string"
        },
        {
          "internalType": "uint256",
          "name": "_startDate",
          "type": "uint256"
        }
      ],
      "name": "mint",
      "outputs": [],
      "stateMutability": "nonpayable",
      "type": "function"
    },
    {
      "inputs": [],
      "name": "name",
      "outputs": [
        {
          "internalType": "string",
          "name": "",
          "type": "string"
        }
      ],
      "stateMutability": "view",
      "type": "function"
    },
    {
      "inputs": [],
      "name": "owner",
      "outputs": [
        {
          "internalType": "address",
          "name": "",
          "type": "address"
        }
      ],
      "stateMutability": "view",
      "type": "function"
    },
    {
      "inputs": [
        {
          "internalType": "uint256",
          "name": "tokenId",
          "type": "uint256"
        }
      ],
      "name": "ownerOf",
      "outputs": [
        {
          "internalType": "address",
          "name": "",
          "type": "address"
        }
      ],
      "stateMutability": "view",
      "type": "function"
    },
    {
      "inputs": [],
      "name": "renounceOwnership",
      "outputs": [],
      "stateMutability": "nonpayable",
      "type": "function"
    },
    {
      "inputs": [
        {
          "internalType": "address",
          "name": "from",
          "type": "address"
        },
        {
          "internalType": "address",
          "name": "to",
          "type": "address"
        },
        {
          "internalType": "uint256",
          "name": "tokenId",
          "type": "uint256"
        }
      ],
      "name": "safeTransferFrom",
      "outputs": [],
      "stateMutability": "nonpayable",
      "type": "function"
    },
    {
      "inputs": [
        {
          "internalType": "address",
          "name": "from",
          "type": "address"
        },
        {
          "internalType": "address",
          "name": "to",
          "type": "address"
        },
        {
          "internalType": "uint256",
          "name": "tokenId",
          "type": "uint256"
        },
        {
          "internalType": "bytes",
          "name": "data",
          "type": "bytes"
        }
      ],
      "name": "safeTransferFrom",
      "outputs": [],
      "stateMutability": "nonpayable",
      "type": "function"
    },
    {
      "inputs": [
        {
          "internalType": "address",
          "name": "operator",
          "type": "address"
        },
        {
          "internalType": "bool",
          "name": "approved",
          "type": "bool"
        }
      ],
      "name": "setApprovalForAll",
      "outputs": [],
      "stateMutability": "nonpayable",
      "type": "function"
    },
    {
      "inputs": [
        {
          "internalType": "bytes4",
          "name": "interfaceId",
          "type": "bytes4"
        }
      ],
      "name": "supportsInterface",
      "outputs": [
        {
          "internalType": "bool",
          "name": "",
          "type": "bool"
        }
      ],
      "stateMutability": "view",
      "type": "function"
    },
    {
      "inputs": [],
      "name": "symbol",
      "outputs": [
        {
          "internalType": "string",
          "name": "",
          "type": "string"
        }
      ],
      "stateMutability": "view",
      "type": "function"
    },
    {
      "inputs": [
        {
          "internalType": "uint256",
          "name": "index",
          "type": "uint256"
        }
      ],
      "name": "tokenByIndex",
      "outputs": [
        {
          "internalType": "uint256",
          "name": "",
          "type": "uint256"
        }
      ],
      "stateMutability": "view",
      "type": "function"
    },
    {
      "inputs": [
        {
          "internalType": "address",
          "name": "owner",
          "type": "address"
        },
        {
          "internalType": "uint256",
          "name": "index",
          "type": "uint256"
        }
      ],
      "name": "tokenOfOwnerByIndex",
      "outputs": [
        {
          "internalType": "uint256",
          "name": "",
          "type": "uint256"
        }
      ],
      "stateMutability": "view",
      "type": "function"
    },
    {
      "inputs": [
        {
          "internalType": "uint256",
          "name": "tokenId",
          "type": "uint256"
        }
      ],
      "name": "tokenURI",
      "outputs": [
        {
          "internalType": "string",
          "name": "",
          "type": "string"
        }
      ],
      "stateMutability": "view",
      "type": "function"
    },
    {
      "inputs": [],
      "name": "totalSupply",
      "outputs": [
        {
          "internalType": "uint256",
          "name": "",
          "type": "uint256"
        }
      ],
      "stateMutability": "view",
      "type": "function"
    },
    {
      "inputs": [
        {
          "internalType": "uint256",
          "name": "_tokenId",
          "type": "uint256"
        },
        {
          "internalType": "address",
          "name": "_newEmployeeAddress",
          "type": "address"
        }
      ],
      "name": "transferCard",
      "outputs": [],
      "stateMutability": "nonpayable",
      "type": "function"
    },
    {
      "inputs": [
        {
          "internalType": "address",
          "name": "from",
          "type": "address"
        },
        {
          "internalType": "address",
          "name": "to",
          "type": "address"
        },
        {
          "internalType": "uint256",
          "name": "tokenId",
          "type": "uint256"
        }
      ],
      "name": "transferFrom",
      "outputs": [],
      "stateMutability": "nonpayable",
      "type": "function"
    },
    {
      "inputs": [
        {
          "internalType": "address",
          "name": "newOwner",
          "type": "address"
        }
      ],
      "name": "transferOwnership",
      "outputs": [],
      "stateMutability": "nonpayable",
      "type": "function"
    },
    {
      "stateMutability": "payable",
      "type": "receive"
    }
  ],
  "transactionHash": "0x720409744986f24945f70afcc6ac599e525a43da7c8c38f463ca8e5babb3c8bb",
  "args": [
    "Alyra Employee Card",
    "AEC"
  ],
  "numDeployments": 1,
  "solcInputHash": "e46bc7cf0e70b875797074e7ea62e06e",
  "bytecode": "0x60806040523480156200001157600080fd5b5060405162004474380380620044748339818101604052810190620000379190620002e6565b8181620000596200004d6200008760201b60201c565b6200008f60201b60201c565b81600190816200006a9190620005b6565b5080600290816200007c9190620005b6565b50505050506200069d565b600033905090565b60008060009054906101000a900473ffffffffffffffffffffffffffffffffffffffff169050816000806101000a81548173ffffffffffffffffffffffffffffffffffffffff021916908373ffffffffffffffffffffffffffffffffffffffff1602179055508173ffffffffffffffffffffffffffffffffffffffff168173ffffffffffffffffffffffffffffffffffffffff167f8be0079c531659141344cd1fd0a4f28419497f9722a3daafe3b4186f6b6457e060405160405180910390a35050565b6000604051905090565b600080fd5b600080fd5b600080fd5b600080fd5b6000601f19601f8301169050919050565b7f4e487b7100000000000000000000000000000000000000000000000000000000600052604160045260246000fd5b620001bc8262000171565b810181811067ffffffffffffffff82111715620001de57620001dd62000182565b5b80604052505050565b6000620001f362000153565b9050620002018282620001b1565b919050565b600067ffffffffffffffff82111562000224576200022362000182565b5b6200022f8262000171565b9050602081019050919050565b60005b838110156200025c5780820151818401526020810190506200023f565b60008484015250505050565b60006200027f620002798462000206565b620001e7565b9050828152602081018484840111156200029e576200029d6200016c565b5b620002ab8482856200023c565b509392505050565b600082601f830112620002cb57620002ca62000167565b5b8151620002dd84826020860162000268565b91505092915050565b600080604083850312156200030057620002ff6200015d565b5b600083015167ffffffffffffffff81111562000321576200032062000162565b5b6200032f85828601620002b3565b925050602083015167ffffffffffffffff81111562000353576200035262000162565b5b6200036185828601620002b3565b9150509250929050565b600081519050919050565b7f4e487b7100000000000000000000000000000000000000000000000000000000600052602260045260246000fd5b60006002820490506001821680620003be57607f821691505b602082108103620003d457620003d362000376565b5b50919050565b60008190508160005260206000209050919050565b60006020601f8301049050919050565b600082821b905092915050565b6000600883026200043e7fffffffffffffffffffffffffffffffffffffffffffffffffffffffffffffffff82620003ff565b6200044a8683620003ff565b95508019841693508086168417925050509392505050565b6000819050919050565b6000819050919050565b600062000497620004916200048b8462000462565b6200046c565b62000462565b9050919050565b6000819050919050565b620004b38362000476565b620004cb620004c2826200049e565b8484546200040c565b825550505050565b600090565b620004e2620004d3565b620004ef818484620004a8565b505050565b5b8181101562000517576200050b600082620004d8565b600181019050620004f5565b5050565b601f82111562000566576200053081620003da565b6200053b84620003ef565b810160208510156200054b578190505b620005636200055a85620003ef565b830182620004f4565b50505b505050565b600082821c905092915050565b60006200058b600019846008026200056b565b1980831691505092915050565b6000620005a6838362000578565b9150826002028217905092915050565b620005c1826200036b565b67ffffffffffffffff811115620005dd57620005dc62000182565b5b620005e98254620003a5565b620005f68282856200051b565b600060209050601f8311600181146200062e576000841562000619578287015190505b62000625858262000598565b86555062000695565b601f1984166200063e86620003da565b60005b82811015620006685784890151825560018201915060208501945060208101905062000641565b8683101562000688578489015162000684601f89168262000578565b8355505b6001600288020188555050505b505050505050565b613dc780620006ad6000396000f3fe6080604052600436106101445760003560e01c806370a08231116100b6578063b88d4fde1161006f578063b88d4fde146104fb578063ba7aef4314610524578063c87b56dd1461054d578063e985e9c51461058a578063f2fde38b146105c7578063f5ca0f1e146105f05761018c565b806370a08231146103ff578063715018a61461043c57806372f79d24146104535780638da5cb5b1461047c57806395d89b41146104a7578063a22cb465146104d25761018c565b806318160ddd1161010857806318160ddd146102cb57806323b872dd146102f65780632f745c591461031f57806342842e0e1461035c5780634f6ccce7146103855780636352211e146103c25761018c565b806301ffc9a7146101d457806304711ae81461021157806306fdde031461023a578063081812fc14610265578063095ea7b3146102a25761018c565b3661018c5761015161062d565b7f47998b4998056cd0448b356cfcb8cb0eb18fa00844e43e71947e22fcb6fd43ef33346040516101829291906127a9565b60405180910390a1005b61019461062d565b7f50eceacb6cf1f1249d7041630a444fc31eeed162b640e05965120166dfa583e633346000366040516101ca9493929190612830565b60405180910390a1005b3480156101e057600080fd5b506101fb60048036038101906101f691906128dc565b6106ab565b6040516102089190612924565b60405180910390f35b34801561021d57600080fd5b506102386004803603810190610233919061296b565b610725565b005b34801561024657600080fd5b5061024f610787565b60405161025c9190612a17565b60405180910390f35b34801561027157600080fd5b5061028c60048036038101906102879190612a65565b610819565b6040516102999190612a92565b60405180910390f35b3480156102ae57600080fd5b506102c960048036038101906102c49190612aad565b61085f565b005b3480156102d757600080fd5b506102e0610976565b6040516102ed9190612aed565b60405180910390f35b34801561030257600080fd5b5061031d60048036038101906103189190612b08565b610983565b005b34801561032b57600080fd5b5061034660048036038101906103419190612aad565b6109e3565b6040516103539190612aed565b60405180910390f35b34801561036857600080fd5b50610383600480360381019061037e9190612b08565b610a88565b005b34801561039157600080fd5b506103ac60048036038101906103a79190612a65565b610aa8565b6040516103b99190612aed565b60405180910390f35b3480156103ce57600080fd5b506103e960048036038101906103e49190612a65565b610b19565b6040516103f69190612a92565b60405180910390f35b34801561040b57600080fd5b506104266004803603810190610421919061296b565b610b9f565b6040516104339190612aed565b60405180910390f35b34801561044857600080fd5b50610451610c56565b005b34801561045f57600080fd5b5061047a60048036038101906104759190612b5b565b610c6a565b005b34801561048857600080fd5b50610491610c98565b60405161049e9190612a92565b60405180910390f35b3480156104b357600080fd5b506104bc610cc1565b6040516104c99190612a17565b60405180910390f35b3480156104de57600080fd5b506104f960048036038101906104f49190612bc7565b610d53565b005b34801561050757600080fd5b50610522600480360381019061051d9190612d2d565b610d69565b005b34801561053057600080fd5b5061054b60048036038101906105469190612e10565b610dcb565b005b34801561055957600080fd5b50610574600480360381019061056f9190612a65565b611007565b6040516105819190612a17565b60405180910390f35b34801561059657600080fd5b506105b160048036038101906105ac9190612e84565b6110f7565b6040516105be9190612924565b60405180910390f35b3480156105d357600080fd5b506105ee60048036038101906105e9919061296b565b61118b565b005b3480156105fc57600080fd5b506106176004803603810190610612919061296b565b61120e565b6040516106249190612aed565b60405180910390f35b6106356112ff565b73ffffffffffffffffffffffffffffffffffffffff16610653610c98565b73ffffffffffffffffffffffffffffffffffffffff16146106a9576040517f08c379a00000000000000000000000000000000000000000000000000000000081526004016106a090612f10565b60405180910390fd5b565b60007f780e9d63000000000000000000000000000000000000000000000000000000007bffffffffffffffffffffffffffffffffffffffffffffffffffffffff1916827bffffffffffffffffffffffffffffffffffffffffffffffffffffffff1916148061071e575061071d82611307565b5b9050919050565b61072d61062d565b6000600c60008373ffffffffffffffffffffffffffffffffffffffff1673ffffffffffffffffffffffffffffffffffffffff16815260200190815260200160002054905061077a816113e9565b61078381611434565b5050565b60606001805461079690612f5f565b80601f01602080910402602001604051908101604052809291908181526020018280546107c290612f5f565b801561080f5780601f106107e45761010080835404028352916020019161080f565b820191906000526020600020905b8154815290600101906020018083116107f257829003601f168201915b5050505050905090565b6000610824826113e9565b6005600083815260200190815260200160002060009054906101000a900473ffffffffffffffffffffffffffffffffffffffff169050919050565b600061086a82610b19565b90508073ffffffffffffffffffffffffffffffffffffffff168373ffffffffffffffffffffffffffffffffffffffff16036108da576040517f08c379a00000000000000000000000000000000000000000000000000000000081526004016108d190613002565b60405180910390fd5b8073ffffffffffffffffffffffffffffffffffffffff166108f96112ff565b73ffffffffffffffffffffffffffffffffffffffff1614806109285750610927816109226112ff565b6110f7565b5b610967576040517f08c379a000000000000000000000000000000000000000000000000000000000815260040161095e90613094565b60405180910390fd5b6109718383611448565b505050565b6000600980549050905090565b61099461098e6112ff565b8261145e565b6109d3576040517f08c379a00000000000000000000000000000000000000000000000000000000081526004016109ca90613126565b60405180910390fd5b6109de8383836114f3565b505050565b60006109ee83610b9f565b8210610a2f576040517f08c379a0000000000000000000000000000000000000000000000000000000008152600401610a26906131b8565b60405180910390fd5b600760008473ffffffffffffffffffffffffffffffffffffffff1673ffffffffffffffffffffffffffffffffffffffff168152602001908152602001600020600083815260200190815260200160002054905092915050565b610aa383838360405180602001604052806000815250610d69565b505050565b6000610ab2610976565b8210610af3576040517f08c379a0000000000000000000000000000000000000000000000000000000008152600401610aea9061324a565b60405180910390fd5b60098281548110610b0757610b0661326a565b5b90600052602060002001549050919050565b600080610b258361150b565b9050600073ffffffffffffffffffffffffffffffffffffffff168173ffffffffffffffffffffffffffffffffffffffff1603610b96576040517f08c379a0000000000000000000000000000000000000000000000000000000008152600401610b8d906132e5565b60405180910390fd5b80915050919050565b60008073ffffffffffffffffffffffffffffffffffffffff168273ffffffffffffffffffffffffffffffffffffffff1603610c0f576040517f08c379a0000000000000000000000000000000000000000000000000000000008152600401610c0690613377565b60405180910390fd5b600460008373ffffffffffffffffffffffffffffffffffffffff1673ffffffffffffffffffffffffffffffffffffffff168152602001908152602001600020549050919050565b610c5e61062d565b610c686000611548565b565b610c7261062d565b610c7b826113e9565b6000610c8683610b19565b9050610c93818385610a88565b505050565b60008060009054906101000a900473ffffffffffffffffffffffffffffffffffffffff16905090565b606060028054610cd090612f5f565b80601f0160208091040260200160405190810160405280929190818152602001828054610cfc90612f5f565b8015610d495780601f10610d1e57610100808354040283529160200191610d49565b820191906000526020600020905b815481529060010190602001808311610d2c57829003601f168201915b5050505050905090565b610d65610d5e6112ff565b838361160c565b5050565b610d7a610d746112ff565b8361145e565b610db9576040517f08c379a0000000000000000000000000000000000000000000000000000000008152600401610db090613126565b60405180910390fd5b610dc584848484611778565b50505050565b610dd361062d565b6000610dde85610b9f565b14610e1e576040517f08c379a0000000000000000000000000000000000000000000000000000000008152600401610e1590613409565b60405180910390fd5b60003073ffffffffffffffffffffffffffffffffffffffff166318160ddd6040518163ffffffff1660e01b8152600401602060405180830381865afa158015610e6b573d6000803e3d6000fd5b505050506040513d601f19601f82011682018060405250810190610e8f919061343e565b9050610e9b85826117d4565b610ea4816117f2565b610ee3576040517f08c379a0000000000000000000000000000000000000000000000000000000008152600401610eda906132e5565b60405180910390fd5b80600c60008773ffffffffffffffffffffffffffffffffffffffff1673ffffffffffffffffffffffffffffffffffffffff16815260200190815260200160002081905550604051806040016040528085858080601f016020809104026020016040519081016040528093929190818152602001838380828437600081840152601f19601f82011690508083019250505050505050815260200183815250600d60008381526020019081526020016000206000820151816000019081610fa89190613617565b5060208201518160010155905050610fc7610fc1610c98565b82611448565b7fa22bf9c97dde6fadc0c06873f9a4a3f2f9d592a1973a74c3bb6f7f1746efa0878582604051610ff89291906127a9565b60405180910390a15050505050565b6060611012826117f2565b611051576040517f08c379a00000000000000000000000000000000000000000000000000000000081526004016110489061375b565b60405180910390fd5b600d6000838152602001908152602001600020600001805461107290612f5f565b80601f016020809104026020016040519081016040528092919081815260200182805461109e90612f5f565b80156110eb5780601f106110c0576101008083540402835291602001916110eb565b820191906000526020600020905b8154815290600101906020018083116110ce57829003601f168201915b50505050509050919050565b6000600660008473ffffffffffffffffffffffffffffffffffffffff1673ffffffffffffffffffffffffffffffffffffffff16815260200190815260200160002060008373ffffffffffffffffffffffffffffffffffffffff1673ffffffffffffffffffffffffffffffffffffffff16815260200190815260200160002060009054906101000a900460ff16905092915050565b61119361062d565b600073ffffffffffffffffffffffffffffffffffffffff168173ffffffffffffffffffffffffffffffffffffffff1603611202576040517f08c379a00000000000000000000000000000000000000000000000000000000081526004016111f9906137ed565b60405180910390fd5b61120b81611548565b50565b6000611258600c60008473ffffffffffffffffffffffffffffffffffffffff1673ffffffffffffffffffffffffffffffffffffffff168152602001908152602001600020546113e9565b6000600c60008473ffffffffffffffffffffffffffffffffffffffff1673ffffffffffffffffffffffffffffffffffffffff16815260200190815260200160002054905060006301e13380600d600084815260200190815260200160002060010154426112c5919061383c565b6112cf919061389f565b905060006005826112e0919061389f565b905060008160196112f191906138d0565b905080945050505050919050565b600033905090565b60007f80ac58cd000000000000000000000000000000000000000000000000000000007bffffffffffffffffffffffffffffffffffffffffffffffffffffffff1916827bffffffffffffffffffffffffffffffffffffffffffffffffffffffff191614806113d257507f5b5e139f000000000000000000000000000000000000000000000000000000007bffffffffffffffffffffffffffffffffffffffffffffffffffffffff1916827bffffffffffffffffffffffffffffffffffffffffffffffffffffffff1916145b806113e257506113e182611833565b5b9050919050565b6113f2816117f2565b611431576040517f08c379a0000000000000000000000000000000000000000000000000000000008152600401611428906132e5565b60405180910390fd5b50565b61143c61062d565b6114458161189d565b50565b61145061062d565b61145a82826119eb565b5050565b60008061146a83610b19565b90508073ffffffffffffffffffffffffffffffffffffffff168473ffffffffffffffffffffffffffffffffffffffff1614806114ac57506114ab81856110f7565b5b806114ea57508373ffffffffffffffffffffffffffffffffffffffff166114d284610819565b73ffffffffffffffffffffffffffffffffffffffff16145b91505092915050565b6114fb61062d565b611506838383611aa4565b505050565b60006003600083815260200190815260200160002060009054906101000a900473ffffffffffffffffffffffffffffffffffffffff169050919050565b60008060009054906101000a900473ffffffffffffffffffffffffffffffffffffffff169050816000806101000a81548173ffffffffffffffffffffffffffffffffffffffff021916908373ffffffffffffffffffffffffffffffffffffffff1602179055508173ffffffffffffffffffffffffffffffffffffffff168173ffffffffffffffffffffffffffffffffffffffff167f8be0079c531659141344cd1fd0a4f28419497f9722a3daafe3b4186f6b6457e060405160405180910390a35050565b8173ffffffffffffffffffffffffffffffffffffffff168373ffffffffffffffffffffffffffffffffffffffff160361167a576040517f08c379a000000000000000000000000000000000000000000000000000000000815260040161167190613950565b60405180910390fd5b80600660008573ffffffffffffffffffffffffffffffffffffffff1673ffffffffffffffffffffffffffffffffffffffff16815260200190815260200160002060008473ffffffffffffffffffffffffffffffffffffffff1673ffffffffffffffffffffffffffffffffffffffff16815260200190815260200160002060006101000a81548160ff0219169083151502179055508173ffffffffffffffffffffffffffffffffffffffff168373ffffffffffffffffffffffffffffffffffffffff167f17307eab39ab6107e8899845ad3d59bd9653f200f220920489ca2b5937696c318360405161176b9190612924565b60405180910390a3505050565b6117838484846114f3565b61178f84848484611d9d565b6117ce576040517f08c379a00000000000000000000000000000000000000000000000000000000081526004016117c5906139e2565b60405180910390fd5b50505050565b6117ee828260405180602001604052806000815250611f24565b5050565b60008073ffffffffffffffffffffffffffffffffffffffff166118148361150b565b73ffffffffffffffffffffffffffffffffffffffff1614159050919050565b60007f01ffc9a7000000000000000000000000000000000000000000000000000000007bffffffffffffffffffffffffffffffffffffffffffffffffffffffff1916827bffffffffffffffffffffffffffffffffffffffffffffffffffffffff1916149050919050565b60006118a882610b19565b90506118b8816000846001611f7f565b6118c182610b19565b90506005600083815260200190815260200160002060006101000a81549073ffffffffffffffffffffffffffffffffffffffff02191690556001600460008373ffffffffffffffffffffffffffffffffffffffff1673ffffffffffffffffffffffffffffffffffffffff168152602001908152602001600020600082825403925050819055506003600083815260200190815260200160002060006101000a81549073ffffffffffffffffffffffffffffffffffffffff021916905581600073ffffffffffffffffffffffffffffffffffffffff168273ffffffffffffffffffffffffffffffffffffffff167fddf252ad1be2c89b69c2b068fc378daa952ba7f163c4a11628f55a4df523b3ef60405160405180910390a46119e78160008460016120dd565b5050565b816005600083815260200190815260200160002060006101000a81548173ffffffffffffffffffffffffffffffffffffffff021916908373ffffffffffffffffffffffffffffffffffffffff160217905550808273ffffffffffffffffffffffffffffffffffffffff16611a5e83610b19565b73ffffffffffffffffffffffffffffffffffffffff167f8c5be1e5ebec7d5bd14f71427d1e84f3dd0314c0f7b2291e5b200ac8c7c3b92560405160405180910390a45050565b8273ffffffffffffffffffffffffffffffffffffffff16611ac482610b19565b73ffffffffffffffffffffffffffffffffffffffff1614611b1a576040517f08c379a0000000000000000000000000000000000000000000000000000000008152600401611b1190613a74565b60405180910390fd5b600073ffffffffffffffffffffffffffffffffffffffff168273ffffffffffffffffffffffffffffffffffffffff1603611b89576040517f08c379a0000000000000000000000000000000000000000000000000000000008152600401611b8090613b06565b60405180910390fd5b611b968383836001611f7f565b8273ffffffffffffffffffffffffffffffffffffffff16611bb682610b19565b73ffffffffffffffffffffffffffffffffffffffff1614611c0c576040517f08c379a0000000000000000000000000000000000000000000000000000000008152600401611c0390613a74565b60405180910390fd5b6005600082815260200190815260200160002060006101000a81549073ffffffffffffffffffffffffffffffffffffffff02191690556001600460008573ffffffffffffffffffffffffffffffffffffffff1673ffffffffffffffffffffffffffffffffffffffff168152602001908152602001600020600082825403925050819055506001600460008473ffffffffffffffffffffffffffffffffffffffff1673ffffffffffffffffffffffffffffffffffffffff16815260200190815260200160002060008282540192505081905550816003600083815260200190815260200160002060006101000a81548173ffffffffffffffffffffffffffffffffffffffff021916908373ffffffffffffffffffffffffffffffffffffffff160217905550808273ffffffffffffffffffffffffffffffffffffffff168473ffffffffffffffffffffffffffffffffffffffff167fddf252ad1be2c89b69c2b068fc378daa952ba7f163c4a11628f55a4df523b3ef60405160405180910390a4611d9883838360016120dd565b505050565b6000611dbe8473ffffffffffffffffffffffffffffffffffffffff166120e3565b15611f17578373ffffffffffffffffffffffffffffffffffffffff1663150b7a02611de76112ff565b8786866040518563ffffffff1660e01b8152600401611e099493929190613b6a565b6020604051808303816000875af1925050508015611e4557506040513d601f19601f82011682018060405250810190611e429190613bcb565b60015b611ec7573d8060008114611e75576040519150601f19603f3d011682016040523d82523d6000602084013e611e7a565b606091505b506000815103611ebf576040517f08c379a0000000000000000000000000000000000000000000000000000000008152600401611eb6906139e2565b60405180910390fd5b805181602001fd5b63150b7a0260e01b7bffffffffffffffffffffffffffffffffffffffffffffffffffffffff1916817bffffffffffffffffffffffffffffffffffffffffffffffffffffffff191614915050611f1c565b600190505b949350505050565b611f2e8383612106565b611f3b6000848484611d9d565b611f7a576040517f08c379a0000000000000000000000000000000000000000000000000000000008152600401611f71906139e2565b60405180910390fd5b505050565b611f8b84848484612323565b6001811115611fcf576040517f08c379a0000000000000000000000000000000000000000000000000000000008152600401611fc690613c6a565b60405180910390fd5b6000829050600073ffffffffffffffffffffffffffffffffffffffff168573ffffffffffffffffffffffffffffffffffffffff16036120165761201181612449565b612055565b8373ffffffffffffffffffffffffffffffffffffffff168573ffffffffffffffffffffffffffffffffffffffff1614612054576120538582612492565b5b5b600073ffffffffffffffffffffffffffffffffffffffff168473ffffffffffffffffffffffffffffffffffffffff160361209757612092816125ff565b6120d6565b8473ffffffffffffffffffffffffffffffffffffffff168473ffffffffffffffffffffffffffffffffffffffff16146120d5576120d484826126d0565b5b5b5050505050565b50505050565b6000808273ffffffffffffffffffffffffffffffffffffffff163b119050919050565b600073ffffffffffffffffffffffffffffffffffffffff168273ffffffffffffffffffffffffffffffffffffffff1603612175576040517f08c379a000000000000000000000000000000000000000000000000000000000815260040161216c90613cd6565b60405180910390fd5b61217e816117f2565b156121be576040517f08c379a00000000000000000000000000000000000000000000000000000000081526004016121b590613d42565b60405180910390fd5b6121cc600083836001611f7f565b6121d5816117f2565b15612215576040517f08c379a000000000000000000000000000000000000000000000000000000000815260040161220c90613d42565b60405180910390fd5b6001600460008473ffffffffffffffffffffffffffffffffffffffff1673ffffffffffffffffffffffffffffffffffffffff16815260200190815260200160002060008282540192505081905550816003600083815260200190815260200160002060006101000a81548173ffffffffffffffffffffffffffffffffffffffff021916908373ffffffffffffffffffffffffffffffffffffffff160217905550808273ffffffffffffffffffffffffffffffffffffffff16600073ffffffffffffffffffffffffffffffffffffffff167fddf252ad1be2c89b69c2b068fc378daa952ba7f163c4a11628f55a4df523b3ef60405160405180910390a461231f6000838360016120dd565b5050565b600181111561244357600073ffffffffffffffffffffffffffffffffffffffff168473ffffffffffffffffffffffffffffffffffffffff16146123b75780600460008673ffffffffffffffffffffffffffffffffffffffff1673ffffffffffffffffffffffffffffffffffffffff16815260200190815260200160002060008282546123af919061383c565b925050819055505b600073ffffffffffffffffffffffffffffffffffffffff168373ffffffffffffffffffffffffffffffffffffffff16146124425780600460008573ffffffffffffffffffffffffffffffffffffffff1673ffffffffffffffffffffffffffffffffffffffff168152602001908152602001600020600082825461243a91906138d0565b925050819055505b5b50505050565b600980549050600a600083815260200190815260200160002081905550600981908060018154018082558091505060019003906000526020600020016000909190919091505550565b6000600161249f84610b9f565b6124a9919061383c565b905060006008600084815260200190815260200160002054905081811461258e576000600760008673ffffffffffffffffffffffffffffffffffffffff1673ffffffffffffffffffffffffffffffffffffffff168152602001908152602001600020600084815260200190815260200160002054905080600760008773ffffffffffffffffffffffffffffffffffffffff1673ffffffffffffffffffffffffffffffffffffffff168152602001908152602001600020600084815260200190815260200160002081905550816008600083815260200190815260200160002081905550505b6008600084815260200190815260200160002060009055600760008573ffffffffffffffffffffffffffffffffffffffff1673ffffffffffffffffffffffffffffffffffffffff16815260200190815260200160002060008381526020019081526020016000206000905550505050565b60006001600980549050612613919061383c565b90506000600a60008481526020019081526020016000205490506000600983815481106126435761264261326a565b5b9060005260206000200154905080600983815481106126655761266461326a565b5b906000526020600020018190555081600a600083815260200190815260200160002081905550600a60008581526020019081526020016000206000905560098054806126b4576126b3613d62565b5b6001900381819060005260206000200160009055905550505050565b60006126db83610b9f565b905081600760008573ffffffffffffffffffffffffffffffffffffffff1673ffffffffffffffffffffffffffffffffffffffff168152602001908152602001600020600083815260200190815260200160002081905550806008600084815260200190815260200160002081905550505050565b600073ffffffffffffffffffffffffffffffffffffffff82169050919050565b600061277a8261274f565b9050919050565b61278a8161276f565b82525050565b6000819050919050565b6127a381612790565b82525050565b60006040820190506127be6000830185612781565b6127cb602083018461279a565b9392505050565b600082825260208201905092915050565b82818337600083830152505050565b6000601f19601f8301169050919050565b600061280f83856127d2565b935061281c8385846127e3565b612825836127f2565b840190509392505050565b60006060820190506128456000830187612781565b612852602083018661279a565b8181036040830152612865818486612803565b905095945050505050565b6000604051905090565b600080fd5b600080fd5b60007fffffffff0000000000000000000000000000000000000000000000000000000082169050919050565b6128b981612884565b81146128c457600080fd5b50565b6000813590506128d6816128b0565b92915050565b6000602082840312156128f2576128f161287a565b5b6000612900848285016128c7565b91505092915050565b60008115159050919050565b61291e81612909565b82525050565b60006020820190506129396000830184612915565b92915050565b6129488161276f565b811461295357600080fd5b50565b6000813590506129658161293f565b92915050565b6000602082840312156129815761298061287a565b5b600061298f84828501612956565b91505092915050565b600081519050919050565b600082825260208201905092915050565b60005b838110156129d25780820151818401526020810190506129b7565b60008484015250505050565b60006129e982612998565b6129f381856129a3565b9350612a038185602086016129b4565b612a0c816127f2565b840191505092915050565b60006020820190508181036000830152612a3181846129de565b905092915050565b612a4281612790565b8114612a4d57600080fd5b50565b600081359050612a5f81612a39565b92915050565b600060208284031215612a7b57612a7a61287a565b5b6000612a8984828501612a50565b91505092915050565b6000602082019050612aa76000830184612781565b92915050565b60008060408385031215612ac457612ac361287a565b5b6000612ad285828601612956565b9250506020612ae385828601612a50565b9150509250929050565b6000602082019050612b02600083018461279a565b92915050565b600080600060608486031215612b2157612b2061287a565b5b6000612b2f86828701612956565b9350506020612b4086828701612956565b9250506040612b5186828701612a50565b9150509250925092565b60008060408385031215612b7257612b7161287a565b5b6000612b8085828601612a50565b9250506020612b9185828601612956565b9150509250929050565b612ba481612909565b8114612baf57600080fd5b50565b600081359050612bc181612b9b565b92915050565b60008060408385031215612bde57612bdd61287a565b5b6000612bec85828601612956565b9250506020612bfd85828601612bb2565b9150509250929050565b600080fd5b600080fd5b7f4e487b7100000000000000000000000000000000000000000000000000000000600052604160045260246000fd5b612c49826127f2565b810181811067ffffffffffffffff82111715612c6857612c67612c11565b5b80604052505050565b6000612c7b612870565b9050612c878282612c40565b919050565b600067ffffffffffffffff821115612ca757612ca6612c11565b5b612cb0826127f2565b9050602081019050919050565b6000612cd0612ccb84612c8c565b612c71565b905082815260208101848484011115612cec57612ceb612c0c565b5b612cf78482856127e3565b509392505050565b600082601f830112612d1457612d13612c07565b5b8135612d24848260208601612cbd565b91505092915050565b60008060008060808587031215612d4757612d4661287a565b5b6000612d5587828801612956565b9450506020612d6687828801612956565b9350506040612d7787828801612a50565b925050606085013567ffffffffffffffff811115612d9857612d9761287f565b5b612da487828801612cff565b91505092959194509250565b600080fd5b600080fd5b60008083601f840112612dd057612dcf612c07565b5b8235905067ffffffffffffffff811115612ded57612dec612db0565b5b602083019150836001820283011115612e0957612e08612db5565b5b9250929050565b60008060008060608587031215612e2a57612e2961287a565b5b6000612e3887828801612956565b945050602085013567ffffffffffffffff811115612e5957612e5861287f565b5b612e6587828801612dba565b93509350506040612e7887828801612a50565b91505092959194509250565b60008060408385031215612e9b57612e9a61287a565b5b6000612ea985828601612956565b9250506020612eba85828601612956565b9150509250929050565b7f4f776e61626c653a2063616c6c6572206973206e6f7420746865206f776e6572600082015250565b6000612efa6020836129a3565b9150612f0582612ec4565b602082019050919050565b60006020820190508181036000830152612f2981612eed565b9050919050565b7f4e487b7100000000000000000000000000000000000000000000000000000000600052602260045260246000fd5b60006002820490506001821680612f7757607f821691505b602082108103612f8a57612f89612f30565b5b50919050565b7f4552433732313a20617070726f76616c20746f2063757272656e74206f776e6560008201527f7200000000000000000000000000000000000000000000000000000000000000602082015250565b6000612fec6021836129a3565b9150612ff782612f90565b604082019050919050565b6000602082019050818103600083015261301b81612fdf565b9050919050565b7f4552433732313a20617070726f76652063616c6c6572206973206e6f7420746f60008201527f6b656e206f776e6572206f7220617070726f76656420666f7220616c6c000000602082015250565b600061307e603d836129a3565b915061308982613022565b604082019050919050565b600060208201905081810360008301526130ad81613071565b9050919050565b7f4552433732313a2063616c6c6572206973206e6f7420746f6b656e206f776e6560008201527f72206f7220617070726f76656400000000000000000000000000000000000000602082015250565b6000613110602d836129a3565b915061311b826130b4565b604082019050919050565b6000602082019050818103600083015261313f81613103565b9050919050565b7f455243373231456e756d657261626c653a206f776e657220696e646578206f7560008201527f74206f6620626f756e6473000000000000000000000000000000000000000000602082015250565b60006131a2602b836129a3565b91506131ad82613146565b604082019050919050565b600060208201905081810360008301526131d181613195565b9050919050565b7f455243373231456e756d657261626c653a20676c6f62616c20696e646578206f60008201527f7574206f6620626f756e64730000000000000000000000000000000000000000602082015250565b6000613234602c836129a3565b915061323f826131d8565b604082019050919050565b6000602082019050818103600083015261326381613227565b9050919050565b7f4e487b7100000000000000000000000000000000000000000000000000000000600052603260045260246000fd5b7f4552433732313a20696e76616c696420746f6b656e2049440000000000000000600082015250565b60006132cf6018836129a3565b91506132da82613299565b602082019050919050565b600060208201905081810360008301526132fe816132c2565b9050919050565b7f4552433732313a2061646472657373207a65726f206973206e6f74206120766160008201527f6c6964206f776e65720000000000000000000000000000000000000000000000602082015250565b60006133616029836129a3565b915061336c82613305565b604082019050919050565b6000602082019050818103600083015261339081613354565b9050919050565b7f416e20656d706c6f7965652063616e206f6e6c792068617665203120746f6b6560008201527f6e00000000000000000000000000000000000000000000000000000000000000602082015250565b60006133f36021836129a3565b91506133fe82613397565b604082019050919050565b60006020820190508181036000830152613422816133e6565b9050919050565b60008151905061343881612a39565b92915050565b6000602082840312156134545761345361287a565b5b600061346284828501613429565b91505092915050565b60008190508160005260206000209050919050565b60006020601f8301049050919050565b600082821b905092915050565b6000600883026134cd7fffffffffffffffffffffffffffffffffffffffffffffffffffffffffffffffff82613490565b6134d78683613490565b95508019841693508086168417925050509392505050565b6000819050919050565b600061351461350f61350a84612790565b6134ef565b612790565b9050919050565b6000819050919050565b61352e836134f9565b61354261353a8261351b565b84845461349d565b825550505050565b600090565b61355761354a565b613562818484613525565b505050565b5b818110156135865761357b60008261354f565b600181019050613568565b5050565b601f8211156135cb5761359c8161346b565b6135a584613480565b810160208510156135b4578190505b6135c86135c085613480565b830182613567565b50505b505050565b600082821c905092915050565b60006135ee600019846008026135d0565b1980831691505092915050565b600061360783836135dd565b9150826002028217905092915050565b61362082612998565b67ffffffffffffffff81111561363957613638612c11565b5b6136438254612f5f565b61364e82828561358a565b600060209050601f831160018114613681576000841561366f578287015190505b61367985826135fb565b8655506136e1565b601f19841661368f8661346b565b60005b828110156136b757848901518255600182019150602085019450602081019050613692565b868310156136d457848901516136d0601f8916826135dd565b8355505b6001600288020188555050505b505050505050565b7f456d706c6f796565436172643a20746f6b656e20646f6573206e6f742065786960008201527f7374000000000000000000000000000000000000000000000000000000000000602082015250565b60006137456022836129a3565b9150613750826136e9565b604082019050919050565b6000602082019050818103600083015261377481613738565b9050919050565b7f4f776e61626c653a206e6577206f776e657220697320746865207a65726f206160008201527f6464726573730000000000000000000000000000000000000000000000000000602082015250565b60006137d76026836129a3565b91506137e28261377b565b604082019050919050565b60006020820190508181036000830152613806816137ca565b9050919050565b7f4e487b7100000000000000000000000000000000000000000000000000000000600052601160045260246000fd5b600061384782612790565b915061385283612790565b925082820390508181111561386a5761386961380d565b5b92915050565b7f4e487b7100000000000000000000000000000000000000000000000000000000600052601260045260246000fd5b60006138aa82612790565b91506138b583612790565b9250826138c5576138c4613870565b5b828204905092915050565b60006138db82612790565b91506138e683612790565b92508282019050808211156138fe576138fd61380d565b5b92915050565b7f4552433732313a20617070726f766520746f2063616c6c657200000000000000600082015250565b600061393a6019836129a3565b915061394582613904565b602082019050919050565b600060208201905081810360008301526139698161392d565b9050919050565b7f4552433732313a207472616e7366657220746f206e6f6e20455243373231526560008201527f63656976657220696d706c656d656e7465720000000000000000000000000000602082015250565b60006139cc6032836129a3565b91506139d782613970565b604082019050919050565b600060208201905081810360008301526139fb816139bf565b9050919050565b7f4552433732313a207472616e736665722066726f6d20696e636f72726563742060008201527f6f776e6572000000000000000000000000000000000000000000000000000000602082015250565b6000613a5e6025836129a3565b9150613a6982613a02565b604082019050919050565b60006020820190508181036000830152613a8d81613a51565b9050919050565b7f4552433732313a207472616e7366657220746f20746865207a65726f2061646460008201527f7265737300000000000000000000000000000000000000000000000000000000602082015250565b6000613af06024836129a3565b9150613afb82613a94565b604082019050919050565b60006020820190508181036000830152613b1f81613ae3565b9050919050565b600081519050919050565b6000613b3c82613b26565b613b4681856127d2565b9350613b568185602086016129b4565b613b5f816127f2565b840191505092915050565b6000608082019050613b7f6000830187612781565b613b8c6020830186612781565b613b99604083018561279a565b8181036060830152613bab8184613b31565b905095945050505050565b600081519050613bc5816128b0565b92915050565b600060208284031215613be157613be061287a565b5b6000613bef84828501613bb6565b91505092915050565b7f455243373231456e756d657261626c653a20636f6e736563757469766520747260008201527f616e7366657273206e6f7420737570706f727465640000000000000000000000602082015250565b6000613c546035836129a3565b9150613c5f82613bf8565b604082019050919050565b60006020820190508181036000830152613c8381613c47565b9050919050565b7f4552433732313a206d696e7420746f20746865207a65726f2061646472657373600082015250565b6000613cc06020836129a3565b9150613ccb82613c8a565b602082019050919050565b60006020820190508181036000830152613cef81613cb3565b9050919050565b7f4552433732313a20746f6b656e20616c7265616479206d696e74656400000000600082015250565b6000613d2c601c836129a3565b9150613d3782613cf6565b602082019050919050565b60006020820190508181036000830152613d5b81613d1f565b9050919050565b7f4e487b7100000000000000000000000000000000000000000000000000000000600052603160045260246000fdfea2646970667358221220cd5b5525cb01fd14bf7fd1e4781bf97d31fc961a648df25c69df8c5e39d63cfe64736f6c63430008110033",
  "devdoc": {
    "kind": "dev",
    "methods": {
      "approve(address,uint256)": {
        "details": "See {IERC721-approve}."
      },
      "balanceOf(address)": {
        "details": "See {IERC721-balanceOf}."
      },
      "burnCard(address)": {
        "params": {
          "_holder": "Current holder of the card."
        }
      },
      "getApproved(uint256)": {
        "details": "See {IERC721-getApproved}."
      },
      "getEmployeeVacationRights(address)": {
        "params": {
          "employee": "Employee Address."
        }
      },
      "isApprovedForAll(address,address)": {
        "details": "See {IERC721-isApprovedForAll}."
      },
      "mint(address,string,uint256)": {
        "params": {
          "_recipient": "Recipient address",
          "_startDate": "Employee start date  ",
          "_tokenURI": "The token URI"
        }
      },
      "name()": {
        "details": "See {IERC721Metadata-name}."
      },
      "owner()": {
        "details": "Returns the address of the current owner."
      },
      "ownerOf(uint256)": {
        "details": "See {IERC721-ownerOf}."
      },
      "renounceOwnership()": {
        "details": "Leaves the contract without owner. It will not be possible to call `onlyOwner` functions anymore. Can only be called by the current owner. NOTE: Renouncing ownership will leave the contract without an owner, thereby removing any functionality that is only available to the owner."
      },
      "safeTransferFrom(address,address,uint256)": {
        "details": "See {IERC721-safeTransferFrom}."
      },
      "safeTransferFrom(address,address,uint256,bytes)": {
        "details": "See {IERC721-safeTransferFrom}."
      },
      "setApprovalForAll(address,bool)": {
        "details": "See {IERC721-setApprovalForAll}."
      },
      "supportsInterface(bytes4)": {
        "details": "See {IERC165-supportsInterface}."
      },
      "symbol()": {
        "details": "See {IERC721Metadata-symbol}."
      },
      "tokenByIndex(uint256)": {
        "details": "See {IERC721Enumerable-tokenByIndex}."
      },
      "tokenOfOwnerByIndex(address,uint256)": {
        "details": "See {IERC721Enumerable-tokenOfOwnerByIndex}."
      },
      "totalSupply()": {
        "details": "See {IERC721Enumerable-totalSupply}."
      },
      "transferCard(uint256,address)": {
        "params": {
          "_newEmployeeAddress": "New address of the employee.",
          "_tokenId": "Id of the card to transfer."
        }
      },
      "transferFrom(address,address,uint256)": {
        "details": "See {IERC721-transferFrom}."
      },
      "transferOwnership(address)": {
        "details": "Transfers ownership of the contract to a new account (`newOwner`). Can only be called by the current owner."
      }
    },
    "version": 1
  },
  "userdoc": {
    "kind": "user",
    "methods": {
      "burnCard(address)": {
        "notice": "Allows the owner to burn the card. "
      },
      "getEmployeeVacationRights(address)": {
        "notice": "Calculate total amount of days the employee can expect according to its time in the company. "
      },
      "mint(address,string,uint256)": {
        "notice": "Mint a new employee card SBT token. "
      },
      "tokenURI(uint256)": {
        "notice": "Gets the URI of the token metadata. Using IPFS URI is highly recommended."
      },
      "transferCard(uint256,address)": {
        "notice": "Allows the owner to transfer the card. "
      }
    },
    "version": 1
  },
  "storageLayout": {
    "storage": [
      {
        "astId": 7,
        "contract": "contracts/EmployeeCard.sol:EmployeeCard",
        "label": "_owner",
        "offset": 0,
        "slot": "0",
        "type": "t_address"
      },
      {
        "astId": 138,
        "contract": "contracts/EmployeeCard.sol:EmployeeCard",
        "label": "_name",
        "offset": 0,
        "slot": "1",
        "type": "t_string_storage"
      },
      {
        "astId": 140,
        "contract": "contracts/EmployeeCard.sol:EmployeeCard",
        "label": "_symbol",
        "offset": 0,
        "slot": "2",
        "type": "t_string_storage"
      },
      {
        "astId": 144,
        "contract": "contracts/EmployeeCard.sol:EmployeeCard",
        "label": "_owners",
        "offset": 0,
        "slot": "3",
        "type": "t_mapping(t_uint256,t_address)"
      },
      {
        "astId": 148,
        "contract": "contracts/EmployeeCard.sol:EmployeeCard",
        "label": "_balances",
        "offset": 0,
        "slot": "4",
        "type": "t_mapping(t_address,t_uint256)"
      },
      {
        "astId": 152,
        "contract": "contracts/EmployeeCard.sol:EmployeeCard",
        "label": "_tokenApprovals",
        "offset": 0,
        "slot": "5",
        "type": "t_mapping(t_uint256,t_address)"
      },
      {
        "astId": 158,
        "contract": "contracts/EmployeeCard.sol:EmployeeCard",
        "label": "_operatorApprovals",
        "offset": 0,
        "slot": "6",
        "type": "t_mapping(t_address,t_mapping(t_address,t_bool))"
      },
      {
        "astId": 1206,
        "contract": "contracts/EmployeeCard.sol:EmployeeCard",
        "label": "_ownedTokens",
        "offset": 0,
        "slot": "7",
        "type": "t_mapping(t_address,t_mapping(t_uint256,t_uint256))"
      },
      {
        "astId": 1210,
        "contract": "contracts/EmployeeCard.sol:EmployeeCard",
        "label": "_ownedTokensIndex",
        "offset": 0,
        "slot": "8",
        "type": "t_mapping(t_uint256,t_uint256)"
      },
      {
        "astId": 1213,
        "contract": "contracts/EmployeeCard.sol:EmployeeCard",
        "label": "_allTokens",
        "offset": 0,
        "slot": "9",
        "type": "t_array(t_uint256)dyn_storage"
      },
      {
        "astId": 1217,
        "contract": "contracts/EmployeeCard.sol:EmployeeCard",
        "label": "_allTokensIndex",
        "offset": 0,
        "slot": "10",
        "type": "t_mapping(t_uint256,t_uint256)"
      },
      {
        "astId": 3121,
        "contract": "contracts/EmployeeCard.sol:EmployeeCard",
        "label": "_counter",
        "offset": 0,
        "slot": "11",
        "type": "t_struct(Counter)1961_storage"
      },
      {
        "astId": 3130,
        "contract": "contracts/EmployeeCard.sol:EmployeeCard",
        "label": "_cards",
        "offset": 0,
        "slot": "12",
        "type": "t_mapping(t_address,t_uint256)"
      },
      {
        "astId": 3135,
        "contract": "contracts/EmployeeCard.sol:EmployeeCard",
        "label": "_cardsData",
        "offset": 0,
        "slot": "13",
        "type": "t_mapping(t_uint256,t_struct(CardData)3126_storage)"
      }
    ],
    "types": {
      "t_address": {
        "encoding": "inplace",
        "label": "address",
        "numberOfBytes": "20"
      },
      "t_array(t_uint256)dyn_storage": {
        "base": "t_uint256",
        "encoding": "dynamic_array",
        "label": "uint256[]",
        "numberOfBytes": "32"
      },
      "t_bool": {
        "encoding": "inplace",
        "label": "bool",
        "numberOfBytes": "1"
      },
      "t_mapping(t_address,t_bool)": {
        "encoding": "mapping",
        "key": "t_address",
        "label": "mapping(address => bool)",
        "numberOfBytes": "32",
        "value": "t_bool"
      },
      "t_mapping(t_address,t_mapping(t_address,t_bool))": {
        "encoding": "mapping",
        "key": "t_address",
        "label": "mapping(address => mapping(address => bool))",
        "numberOfBytes": "32",
        "value": "t_mapping(t_address,t_bool)"
      },
      "t_mapping(t_address,t_mapping(t_uint256,t_uint256))": {
        "encoding": "mapping",
        "key": "t_address",
        "label": "mapping(address => mapping(uint256 => uint256))",
        "numberOfBytes": "32",
        "value": "t_mapping(t_uint256,t_uint256)"
      },
      "t_mapping(t_address,t_uint256)": {
        "encoding": "mapping",
        "key": "t_address",
        "label": "mapping(address => uint256)",
        "numberOfBytes": "32",
        "value": "t_uint256"
      },
      "t_mapping(t_uint256,t_address)": {
        "encoding": "mapping",
        "key": "t_uint256",
        "label": "mapping(uint256 => address)",
        "numberOfBytes": "32",
        "value": "t_address"
      },
      "t_mapping(t_uint256,t_struct(CardData)3126_storage)": {
        "encoding": "mapping",
        "key": "t_uint256",
        "label": "mapping(uint256 => struct EmployeeCard.CardData)",
        "numberOfBytes": "32",
        "value": "t_struct(CardData)3126_storage"
      },
      "t_mapping(t_uint256,t_uint256)": {
        "encoding": "mapping",
        "key": "t_uint256",
        "label": "mapping(uint256 => uint256)",
        "numberOfBytes": "32",
        "value": "t_uint256"
      },
      "t_string_storage": {
        "encoding": "bytes",
        "label": "string",
        "numberOfBytes": "32"
      },
      "t_struct(CardData)3126_storage": {
        "encoding": "inplace",
        "label": "struct EmployeeCard.CardData",
        "members": [
          {
            "astId": 3123,
            "contract": "contracts/EmployeeCard.sol:EmployeeCard",
            "label": "tokenURI",
            "offset": 0,
            "slot": "0",
            "type": "t_string_storage"
          },
          {
            "astId": 3125,
            "contract": "contracts/EmployeeCard.sol:EmployeeCard",
            "label": "startDate",
            "offset": 0,
            "slot": "1",
            "type": "t_uint256"
          }
        ],
        "numberOfBytes": "64"
      },
      "t_struct(Counter)1961_storage": {
        "encoding": "inplace",
        "label": "struct Counters.Counter",
        "members": [
          {
            "astId": 1960,
            "contract": "contracts/EmployeeCard.sol:EmployeeCard",
            "label": "_value",
            "offset": 0,
            "slot": "0",
            "type": "t_uint256"
          }
        ],
        "numberOfBytes": "32"
      },
      "t_uint256": {
        "encoding": "inplace",
        "label": "uint256",
        "numberOfBytes": "32"
      }
    }
  }
}