{
  "address": "0x34e6b600b68217da09a281D6eB45fbe1a3261862",
  "abi": [
    {
      "inputs": [
        {
          "internalType": "string",
          "name": "name",
          "type": "string"
        },
        {
          "internalType": "string",
          "name": "symbol",
          "type": "string"
        }
      ],
      "stateMutability": "nonpayable",
      "type": "constructor"
    },
    {
      "anonymous": false,
      "inputs": [
        {
          "indexed": true,
          "internalType": "address",
          "name": "owner",
          "type": "address"
        },
        {
          "indexed": true,
          "internalType": "address",
          "name": "approved",
          "type": "address"
        },
        {
          "indexed": true,
          "internalType": "uint256",
          "name": "tokenId",
          "type": "uint256"
        }
      ],
      "name": "Approval",
      "type": "event"
    },
    {
      "anonymous": false,
      "inputs": [
        {
          "indexed": true,
          "internalType": "address",
          "name": "owner",
          "type": "address"
        },
        {
          "indexed": true,
          "internalType": "address",
          "name": "operator",
          "type": "address"
        },
        {
          "indexed": false,
          "internalType": "bool",
          "name": "approved",
          "type": "bool"
        }
      ],
      "name": "ApprovalForAll",
      "type": "event"
    },
    {
      "anonymous": false,
      "inputs": [
        {
          "indexed": false,
          "internalType": "address",
          "name": "sender",
          "type": "address"
        },
        {
          "indexed": false,
          "internalType": "uint256",
          "name": "amount",
          "type": "uint256"
        },
        {
          "indexed": false,
          "internalType": "bytes",
          "name": "data",
          "type": "bytes"
        }
      ],
      "name": "CallReceived",
      "type": "event"
    },
    {
      "anonymous": false,
      "inputs": [
        {
          "indexed": false,
          "internalType": "uint256",
          "name": "tokenId",
          "type": "uint256"
        },
        {
          "indexed": false,
          "internalType": "uint256",
          "name": "endTime",
          "type": "uint256"
        }
      ],
      "name": "EmployeeCardEnded",
      "type": "event"
    },
    {
      "anonymous": false,
      "inputs": [
        {
          "indexed": false,
          "internalType": "address",
          "name": "employee",
          "type": "address"
        },
        {
          "indexed": false,
          "internalType": "uint256",
          "name": "tokenId",
          "type": "uint256"
        }
      ],
      "name": "EmployeeCardMinted",
      "type": "event"
    },
    {
      "anonymous": false,
      "inputs": [
        {
          "indexed": true,
          "internalType": "address",
          "name": "from",
          "type": "address"
        },
        {
          "indexed": true,
          "internalType": "address",
          "name": "to",
          "type": "address"
        },
        {
          "indexed": true,
          "internalType": "uint256",
          "name": "tokenId",
          "type": "uint256"
        },
        {
          "indexed": false,
          "internalType": "enum IERC5484.BurnAuth",
          "name": "burnAuth",
          "type": "uint8"
        }
      ],
      "name": "Issued",
      "type": "event"
    },
    {
      "anonymous": false,
      "inputs": [
        {
          "indexed": true,
          "internalType": "address",
          "name": "previousOwner",
          "type": "address"
        },
        {
          "indexed": true,
          "internalType": "address",
          "name": "newOwner",
          "type": "address"
        }
      ],
      "name": "OwnershipTransferred",
      "type": "event"
    },
    {
      "anonymous": false,
      "inputs": [
        {
          "indexed": false,
          "internalType": "address",
          "name": "sender",
          "type": "address"
        },
        {
          "indexed": false,
          "internalType": "uint256",
          "name": "amount",
          "type": "uint256"
        }
      ],
      "name": "TokenReceived",
      "type": "event"
    },
    {
      "anonymous": false,
      "inputs": [
        {
          "indexed": true,
          "internalType": "address",
          "name": "from",
          "type": "address"
        },
        {
          "indexed": true,
          "internalType": "address",
          "name": "to",
          "type": "address"
        },
        {
          "indexed": true,
          "internalType": "uint256",
          "name": "tokenId",
          "type": "uint256"
        }
      ],
      "name": "Transfer",
      "type": "event"
    },
    {
      "anonymous": false,
      "inputs": [
        {
          "indexed": false,
          "internalType": "address",
          "name": "employee",
          "type": "address"
        }
      ],
      "name": "VacationRightsCalculated",
      "type": "event"
    },
    {
      "inputs": [
        {
          "internalType": "address",
          "name": "to",
          "type": "address"
        },
        {
          "internalType": "uint256",
          "name": "tokenId",
          "type": "uint256"
        }
      ],
      "name": "approve",
      "outputs": [],
      "stateMutability": "nonpayable",
      "type": "function"
    },
    {
      "inputs": [
        {
          "internalType": "address",
          "name": "owner",
          "type": "address"
        }
      ],
      "name": "balanceOf",
      "outputs": [
        {
          "internalType": "uint256",
          "name": "",
          "type": "uint256"
        }
      ],
      "stateMutability": "view",
      "type": "function"
    },
    {
      "inputs": [
        {
          "internalType": "uint256",
          "name": "tokenId",
          "type": "uint256"
        }
      ],
      "name": "burnAuth",
      "outputs": [
        {
          "internalType": "enum IERC5484.BurnAuth",
          "name": "",
          "type": "uint8"
        }
      ],
      "stateMutability": "view",
      "type": "function"
    },
    {
      "inputs": [
        {
          "internalType": "address",
          "name": "employee",
          "type": "address"
        }
      ],
      "name": "burnCard",
      "outputs": [],
      "stateMutability": "nonpayable",
      "type": "function"
    },
    {
      "inputs": [
        {
          "internalType": "uint256",
          "name": "tokenId",
          "type": "uint256"
        }
      ],
      "name": "getApproved",
      "outputs": [
        {
          "internalType": "address",
          "name": "",
          "type": "address"
        }
      ],
      "stateMutability": "view",
      "type": "function"
    },
    {
      "inputs": [
        {
          "internalType": "uint256",
          "name": "tokenId",
          "type": "uint256"
        }
      ],
      "name": "getEmployeeCardEndTime",
      "outputs": [
        {
          "internalType": "uint256",
          "name": "",
          "type": "uint256"
        }
      ],
      "stateMutability": "view",
      "type": "function"
    },
    {
      "inputs": [
        {
          "internalType": "address",
          "name": "employee",
          "type": "address"
        }
      ],
      "name": "getEmployeeCardId",
      "outputs": [
        {
          "internalType": "uint256",
          "name": "",
          "type": "uint256"
        }
      ],
      "stateMutability": "view",
      "type": "function"
    },
    {
      "inputs": [
        {
          "internalType": "uint256",
          "name": "tokenId",
          "type": "uint256"
        },
        {
          "internalType": "uint256",
          "name": "endTime",
          "type": "uint256"
        }
      ],
      "name": "invalidateEmployeeCard",
      "outputs": [],
      "stateMutability": "nonpayable",
      "type": "function"
    },
    {
      "inputs": [
        {
          "internalType": "address",
          "name": "owner",
          "type": "address"
        },
        {
          "internalType": "address",
          "name": "operator",
          "type": "address"
        }
      ],
      "name": "isApprovedForAll",
      "outputs": [
        {
          "internalType": "bool",
          "name": "",
          "type": "bool"
        }
      ],
      "stateMutability": "view",
      "type": "function"
    },
    {
      "inputs": [
        {
          "internalType": "uint256",
          "name": "tokenId",
          "type": "uint256"
        }
      ],
      "name": "isTokenValid",
      "outputs": [
        {
          "internalType": "bool",
          "name": "",
          "type": "bool"
        }
      ],
      "stateMutability": "view",
      "type": "function"
    },
    {
      "inputs": [
        {
          "internalType": "address",
          "name": "_recipient",
          "type": "address"
        },
        {
          "internalType": "string",
          "name": "_tokenURI",
          "type": "string"
        }
      ],
      "name": "mint",
      "outputs": [],
      "stateMutability": "nonpayable",
      "type": "function"
    },
    {
      "inputs": [],
      "name": "name",
      "outputs": [
        {
          "internalType": "string",
          "name": "",
          "type": "string"
        }
      ],
      "stateMutability": "view",
      "type": "function"
    },
    {
      "inputs": [],
      "name": "owner",
      "outputs": [
        {
          "internalType": "address",
          "name": "",
          "type": "address"
        }
      ],
      "stateMutability": "view",
      "type": "function"
    },
    {
      "inputs": [
        {
          "internalType": "uint256",
          "name": "tokenId",
          "type": "uint256"
        }
      ],
      "name": "ownerOf",
      "outputs": [
        {
          "internalType": "address",
          "name": "",
          "type": "address"
        }
      ],
      "stateMutability": "view",
      "type": "function"
    },
    {
      "inputs": [],
      "name": "renounceOwnership",
      "outputs": [],
      "stateMutability": "nonpayable",
      "type": "function"
    },
    {
      "inputs": [
        {
          "internalType": "address",
          "name": "from",
          "type": "address"
        },
        {
          "internalType": "address",
          "name": "to",
          "type": "address"
        },
        {
          "internalType": "uint256",
          "name": "tokenId",
          "type": "uint256"
        }
      ],
      "name": "safeTransferFrom",
      "outputs": [],
      "stateMutability": "nonpayable",
      "type": "function"
    },
    {
      "inputs": [
        {
          "internalType": "address",
          "name": "from",
          "type": "address"
        },
        {
          "internalType": "address",
          "name": "to",
          "type": "address"
        },
        {
          "internalType": "uint256",
          "name": "tokenId",
          "type": "uint256"
        },
        {
          "internalType": "bytes",
          "name": "data",
          "type": "bytes"
        }
      ],
      "name": "safeTransferFrom",
      "outputs": [],
      "stateMutability": "nonpayable",
      "type": "function"
    },
    {
      "inputs": [
        {
          "internalType": "address",
          "name": "operator",
          "type": "address"
        },
        {
          "internalType": "bool",
          "name": "approved",
          "type": "bool"
        }
      ],
      "name": "setApprovalForAll",
      "outputs": [],
      "stateMutability": "nonpayable",
      "type": "function"
    },
    {
      "inputs": [
        {
          "internalType": "bytes4",
          "name": "interfaceId",
          "type": "bytes4"
        }
      ],
      "name": "supportsInterface",
      "outputs": [
        {
          "internalType": "bool",
          "name": "",
          "type": "bool"
        }
      ],
      "stateMutability": "view",
      "type": "function"
    },
    {
      "inputs": [],
      "name": "symbol",
      "outputs": [
        {
          "internalType": "string",
          "name": "",
          "type": "string"
        }
      ],
      "stateMutability": "view",
      "type": "function"
    },
    {
      "inputs": [
        {
          "internalType": "uint256",
          "name": "index",
          "type": "uint256"
        }
      ],
      "name": "tokenByIndex",
      "outputs": [
        {
          "internalType": "uint256",
          "name": "",
          "type": "uint256"
        }
      ],
      "stateMutability": "view",
      "type": "function"
    },
    {
      "inputs": [
        {
          "internalType": "address",
          "name": "owner",
          "type": "address"
        },
        {
          "internalType": "uint256",
          "name": "index",
          "type": "uint256"
        }
      ],
      "name": "tokenOfOwnerByIndex",
      "outputs": [
        {
          "internalType": "uint256",
          "name": "",
          "type": "uint256"
        }
      ],
      "stateMutability": "view",
      "type": "function"
    },
    {
      "inputs": [
        {
          "internalType": "uint256",
          "name": "tokenId",
          "type": "uint256"
        }
      ],
      "name": "tokenURI",
      "outputs": [
        {
          "internalType": "string",
          "name": "",
          "type": "string"
        }
      ],
      "stateMutability": "view",
      "type": "function"
    },
    {
      "inputs": [],
      "name": "totalSupply",
      "outputs": [
        {
          "internalType": "uint256",
          "name": "",
          "type": "uint256"
        }
      ],
      "stateMutability": "view",
      "type": "function"
    },
    {
      "inputs": [
        {
          "internalType": "address",
          "name": "from",
          "type": "address"
        },
        {
          "internalType": "address",
          "name": "to",
          "type": "address"
        },
        {
          "internalType": "uint256",
          "name": "tokenId",
          "type": "uint256"
        }
      ],
      "name": "transferFrom",
      "outputs": [],
      "stateMutability": "nonpayable",
      "type": "function"
    },
    {
      "inputs": [
        {
          "internalType": "address",
          "name": "newOwner",
          "type": "address"
        }
      ],
      "name": "transferOwnership",
      "outputs": [],
      "stateMutability": "nonpayable",
      "type": "function"
    }
  ],
  "transactionHash": "0x1382dc6de9a1de03b6f0ccde106728e4ea28627a745ad1533a993c4a80b1a8c2",
  "args": [
    "Alyra Employee Card",
    "AEC"
  ],
  "numDeployments": 2,
  "solcInputHash": "fae491fdda32b2eedcf6070716764283",
  "bytecode": "0x60806040523480156200001157600080fd5b5060405162004911380380620049118339818101604052810190620000379190620002ec565b8181818181600090816200004c9190620005bc565b5080600190816200005e9190620005bc565b50505062000081620000756200008b60201b60201c565b6200009360201b60201c565b50505050620006a3565b600033905090565b6000600a60009054906101000a900473ffffffffffffffffffffffffffffffffffffffff16905081600a60006101000a81548173ffffffffffffffffffffffffffffffffffffffff021916908373ffffffffffffffffffffffffffffffffffffffff1602179055508173ffffffffffffffffffffffffffffffffffffffff168173ffffffffffffffffffffffffffffffffffffffff167f8be0079c531659141344cd1fd0a4f28419497f9722a3daafe3b4186f6b6457e060405160405180910390a35050565b6000604051905090565b600080fd5b600080fd5b600080fd5b600080fd5b6000601f19601f8301169050919050565b7f4e487b7100000000000000000000000000000000000000000000000000000000600052604160045260246000fd5b620001c28262000177565b810181811067ffffffffffffffff82111715620001e457620001e362000188565b5b80604052505050565b6000620001f962000159565b9050620002078282620001b7565b919050565b600067ffffffffffffffff8211156200022a576200022962000188565b5b620002358262000177565b9050602081019050919050565b60005b838110156200026257808201518184015260208101905062000245565b60008484015250505050565b6000620002856200027f846200020c565b620001ed565b905082815260208101848484011115620002a457620002a362000172565b5b620002b184828562000242565b509392505050565b600082601f830112620002d157620002d06200016d565b5b8151620002e38482602086016200026e565b91505092915050565b6000806040838503121562000306576200030562000163565b5b600083015167ffffffffffffffff81111562000327576200032662000168565b5b6200033585828601620002b9565b925050602083015167ffffffffffffffff81111562000359576200035862000168565b5b6200036785828601620002b9565b9150509250929050565b600081519050919050565b7f4e487b7100000000000000000000000000000000000000000000000000000000600052602260045260246000fd5b60006002820490506001821680620003c457607f821691505b602082108103620003da57620003d96200037c565b5b50919050565b60008190508160005260206000209050919050565b60006020601f8301049050919050565b600082821b905092915050565b600060088302620004447fffffffffffffffffffffffffffffffffffffffffffffffffffffffffffffffff8262000405565b62000450868362000405565b95508019841693508086168417925050509392505050565b6000819050919050565b6000819050919050565b60006200049d62000497620004918462000468565b62000472565b62000468565b9050919050565b6000819050919050565b620004b9836200047c565b620004d1620004c882620004a4565b84845462000412565b825550505050565b600090565b620004e8620004d9565b620004f5818484620004ae565b505050565b5b818110156200051d5762000511600082620004de565b600181019050620004fb565b5050565b601f8211156200056c576200053681620003e0565b6200054184620003f5565b8101602085101562000551578190505b620005696200056085620003f5565b830182620004fa565b50505b505050565b600082821c905092915050565b6000620005916000198460080262000571565b1980831691505092915050565b6000620005ac83836200057e565b9150826002028217905092915050565b620005c78262000371565b67ffffffffffffffff811115620005e357620005e262000188565b5b620005ef8254620003ab565b620005fc82828562000521565b600060209050601f8311600181146200063457600084156200061f578287015190505b6200062b85826200059e565b8655506200069b565b601f1984166200064486620003e0565b60005b828110156200066e5784890151825560018201915060208501945060208101905062000647565b868310156200068e57848901516200068a601f8916826200057e565b8355505b6001600288020188555050505b505050505050565b61425e80620006b36000396000f3fe608060405234801561001057600080fd5b506004361061018e5760003560e01c80636352211e116100de578063b88d4fde11610097578063c92243d811610071578063c92243d8146104b9578063d0def521146104e9578063e985e9c514610505578063f2fde38b146105355761018e565b8063b88d4fde1461043d578063b97d915514610459578063c87b56dd146104895761018e565b80636352211e1461037b57806370a08231146103ab578063715018a6146103db5780638da5cb5b146103e557806395d89b4114610403578063a22cb465146104215761018e565b806318160ddd1161014b57806323b872dd1161012557806323b872dd146102e35780632f745c59146102ff57806342842e0e1461032f5780634f6ccce71461034b5761018e565b806318160ddd1461027957806318aabf9b146102975780631ba63502146102c75761018e565b806301ffc9a71461019357806304711ae8146101c35780630489b56f146101df57806306fdde031461020f578063081812fc1461022d578063095ea7b31461025d575b600080fd5b6101ad60048036038101906101a8919061290c565b610551565b6040516101ba9190612954565b60405180910390f35b6101dd60048036038101906101d891906129cd565b6105cb565b005b6101f960048036038101906101f49190612a30565b610634565b6040516102069190612ad4565b60405180910390f35b6102176106a6565b6040516102249190612b7f565b60405180910390f35b61024760048036038101906102429190612a30565b610738565b6040516102549190612bb0565b60405180910390f35b61027760048036038101906102729190612bcb565b61077e565b005b610281610895565b60405161028e9190612c1a565b60405180910390f35b6102b160048036038101906102ac9190612a30565b6108a2565b6040516102be9190612c1a565b60405180910390f35b6102e160048036038101906102dc9190612c35565b6108c8565b005b6102fd60048036038101906102f89190612c75565b610971565b005b61031960048036038101906103149190612bcb565b6109d1565b6040516103269190612c1a565b60405180910390f35b61034960048036038101906103449190612c75565b610a76565b005b61036560048036038101906103609190612a30565b610a96565b6040516103729190612c1a565b60405180910390f35b61039560048036038101906103909190612a30565b610b07565b6040516103a29190612bb0565b60405180910390f35b6103c560048036038101906103c091906129cd565b610b8d565b6040516103d29190612c1a565b60405180910390f35b6103e3610c44565b005b6103ed610c58565b6040516103fa9190612bb0565b60405180910390f35b61040b610c82565b6040516104189190612b7f565b60405180910390f35b61043b60048036038101906104369190612cf4565b610d14565b005b61045760048036038101906104529190612e69565b610d2a565b005b610473600480360381019061046e91906129cd565b610d8c565b6040516104809190612c1a565b60405180910390f35b6104a3600480360381019061049e9190612a30565b610e6b565b6040516104b09190612b7f565b60405180910390f35b6104d360048036038101906104ce9190612a30565b610f22565b6040516104e09190612954565b60405180910390f35b61050360048036038101906104fe9190612f4c565b610f69565b005b61051f600480360381019061051a9190612fac565b61112d565b60405161052c9190612954565b60405180910390f35b61054f600480360381019061054a91906129cd565b6111c1565b005b60007f780e9d63000000000000000000000000000000000000000000000000000000007bffffffffffffffffffffffffffffffffffffffffffffffffffffffff1916827bffffffffffffffffffffffffffffffffffffffffffffffffffffffff191614806105c457506105c382611244565b5b9050919050565b6105d3611326565b60006105de82610d8c565b90506105e9816113a4565b6000600c600083815260200190815260200160002080546106099061301b565b90501461063057600c6000828152602001908152602001600020600061062f9190612843565b5b5050565b600061063f826116e1565b61067e576040517f08c379a0000000000000000000000000000000000000000000000000000000008152600401610675906130be565b60405180910390fd5b600b600083815260200190815260200160002060009054906101000a900460ff169050919050565b6060600080546106b59061301b565b80601f01602080910402602001604051908101604052809291908181526020018280546106e19061301b565b801561072e5780601f106107035761010080835404028352916020019161072e565b820191906000526020600020905b81548152906001019060200180831161071157829003601f168201915b5050505050905090565b600061074382611722565b6004600083815260200190815260200160002060009054906101000a900473ffffffffffffffffffffffffffffffffffffffff169050919050565b600061078982610b07565b90508073ffffffffffffffffffffffffffffffffffffffff168373ffffffffffffffffffffffffffffffffffffffff16036107f9576040517f08c379a00000000000000000000000000000000000000000000000000000000081526004016107f090613150565b60405180910390fd5b8073ffffffffffffffffffffffffffffffffffffffff1661081861176d565b73ffffffffffffffffffffffffffffffffffffffff16148061084757506108468161084161176d565b61112d565b5b610886576040517f08c379a000000000000000000000000000000000000000000000000000000000815260040161087d906131e2565b60405180910390fd5b6108908383611775565b505050565b6000600880549050905090565b60006108ad82611722565b600d6000838152602001908152602001600020549050919050565b6108d0611326565b6108d982611722565b4281101561091c576040517f08c379a000000000000000000000000000000000000000000000000000000000815260040161091390613274565b60405180910390fd5b80600d6000848152602001908152602001600020819055507f52767825acc7341e2660d222b20ba1359d0b47fed9b395535e2659656e7419318282604051610965929190613294565b60405180910390a15050565b61098261097c61176d565b8261182e565b6109c1576040517f08c379a00000000000000000000000000000000000000000000000000000000081526004016109b89061332f565b60405180910390fd5b6109cc8383836118c3565b505050565b60006109dc83610b8d565b8210610a1d576040517f08c379a0000000000000000000000000000000000000000000000000000000008152600401610a14906133c1565b60405180910390fd5b600660008473ffffffffffffffffffffffffffffffffffffffff1673ffffffffffffffffffffffffffffffffffffffff168152602001908152602001600020600083815260200190815260200160002054905092915050565b610a9183838360405180602001604052806000815250610d2a565b505050565b6000610aa0610895565b8210610ae1576040517f08c379a0000000000000000000000000000000000000000000000000000000008152600401610ad890613453565b60405180910390fd5b60088281548110610af557610af4613473565b5b90600052602060002001549050919050565b600080610b13836118fe565b9050600073ffffffffffffffffffffffffffffffffffffffff168173ffffffffffffffffffffffffffffffffffffffff1603610b84576040517f08c379a0000000000000000000000000000000000000000000000000000000008152600401610b7b906134ee565b60405180910390fd5b80915050919050565b60008073ffffffffffffffffffffffffffffffffffffffff168273ffffffffffffffffffffffffffffffffffffffff1603610bfd576040517f08c379a0000000000000000000000000000000000000000000000000000000008152600401610bf490613580565b60405180910390fd5b600360008373ffffffffffffffffffffffffffffffffffffffff1673ffffffffffffffffffffffffffffffffffffffff168152602001908152602001600020549050919050565b610c4c611326565b610c56600061193b565b565b6000600a60009054906101000a900473ffffffffffffffffffffffffffffffffffffffff16905090565b606060018054610c919061301b565b80601f0160208091040260200160405190810160405280929190818152602001828054610cbd9061301b565b8015610d0a5780601f10610cdf57610100808354040283529160200191610d0a565b820191906000526020600020905b815481529060010190602001808311610ced57829003601f168201915b5050505050905090565b610d26610d1f61176d565b8383611a01565b5050565b610d3b610d3561176d565b8361182e565b610d7a576040517f08c379a0000000000000000000000000000000000000000000000000000000008152600401610d719061332f565b60405180910390fd5b610d8684848484611b6d565b50505050565b60003073ffffffffffffffffffffffffffffffffffffffff166370a08231836040518263ffffffff1660e01b8152600401610dc79190612bb0565b602060405180830381865afa158015610de4573d6000803e3d6000fd5b505050506040513d601f19601f82011682018060405250810190610e0891906135b5565b600010610e4a576040517f08c379a0000000000000000000000000000000000000000000000000000000008152600401610e4190613654565b60405180910390fd5b6000610e578360006109d1565b9050610e6281611722565b80915050919050565b6060610e76826116e1565b610e7f57600080fd5b600c60008381526020019081526020016000208054610e9d9061301b565b80601f0160208091040260200160405190810160405280929190818152602001828054610ec99061301b565b8015610f165780601f10610eeb57610100808354040283529160200191610f16565b820191906000526020600020905b815481529060010190602001808311610ef957829003601f168201915b50505050509050919050565b6000610f2d82611722565b6000600d6000848152602001908152602001600020541480610f62575042600d60008481526020019081526020016000205410155b9050919050565b610f71611326565b6000610f7c84610b8d565b14610fbc576040517f08c379a0000000000000000000000000000000000000000000000000000000008152600401610fb3906136e6565b60405180910390fd5b600060013073ffffffffffffffffffffffffffffffffffffffff166318160ddd6040518163ffffffff1660e01b8152600401602060405180830381865afa15801561100b573d6000803e3d6000fd5b505050506040513d601f19601f8201168201806040525081019061102f91906135b5565b6110399190613735565b905061104784826002611bc9565b611050816116e1565b61108f576040517f08c379a0000000000000000000000000000000000000000000000000000000008152600401611086906137db565b60405180910390fd5b6110dd8184848080601f016020809104026020016040519081016040528093929190818152602001838380828437600081840152601f19601f82011690508083019250505050505050611be9565b7fa22bf9c97dde6fadc0c06873f9a4a3f2f9d592a1973a74c3bb6f7f1746efa087848260405161110e9291906137fb565b60405180910390a1611127611121610c58565b82611775565b50505050565b6000600560008473ffffffffffffffffffffffffffffffffffffffff1673ffffffffffffffffffffffffffffffffffffffff16815260200190815260200160002060008373ffffffffffffffffffffffffffffffffffffffff1673ffffffffffffffffffffffffffffffffffffffff16815260200190815260200160002060009054906101000a900460ff16905092915050565b6111c9611326565b600073ffffffffffffffffffffffffffffffffffffffff168173ffffffffffffffffffffffffffffffffffffffff1603611238576040517f08c379a000000000000000000000000000000000000000000000000000000000815260040161122f90613896565b60405180910390fd5b6112418161193b565b50565b60007f80ac58cd000000000000000000000000000000000000000000000000000000007bffffffffffffffffffffffffffffffffffffffffffffffffffffffff1916827bffffffffffffffffffffffffffffffffffffffffffffffffffffffff1916148061130f57507f5b5e139f000000000000000000000000000000000000000000000000000000007bffffffffffffffffffffffffffffffffffffffffffffffffffffffff1916827bffffffffffffffffffffffffffffffffffffffffffffffffffffffff1916145b8061131f575061131e82611c20565b5b9050919050565b61132e61176d565b73ffffffffffffffffffffffffffffffffffffffff1661134c610c58565b73ffffffffffffffffffffffffffffffffffffffff16146113a2576040517f08c379a000000000000000000000000000000000000000000000000000000000815260040161139990613902565b60405180910390fd5b565b6003808111156113b7576113b6612a5d565b5b600b600083815260200190815260200160002060009054906101000a900460ff1660038111156113ea576113e9612a5d565b5b0361142a576040517f08c379a00000000000000000000000000000000000000000000000000000000081526004016114219061396e565b60405180910390fd5b6000600381111561143e5761143d612a5d565b5b600b600083815260200190815260200160002060009054906101000a900460ff16600381111561147157611470612a5d565b5b036114f75761147e61176d565b73ffffffffffffffffffffffffffffffffffffffff1661149c610c58565b73ffffffffffffffffffffffffffffffffffffffff16146114f2576040517f08c379a00000000000000000000000000000000000000000000000000000000081526004016114e990613a00565b60405180910390fd5b6116d5565b6001600381111561150b5761150a612a5d565b5b600b600083815260200190815260200160002060009054906101000a900460ff16600381111561153e5761153d612a5d565b5b036115c55761154b61176d565b73ffffffffffffffffffffffffffffffffffffffff1661156a826118fe565b73ffffffffffffffffffffffffffffffffffffffff16146115c0576040517f08c379a00000000000000000000000000000000000000000000000000000000081526004016115b790613a92565b60405180910390fd5b6116d4565b600260038111156115d9576115d8612a5d565b5b600b600083815260200190815260200160002060009054906101000a900460ff16600381111561160c5761160b612a5d565b5b036116d35761161961176d565b73ffffffffffffffffffffffffffffffffffffffff16611638826118fe565b73ffffffffffffffffffffffffffffffffffffffff161480611693575061165d61176d565b73ffffffffffffffffffffffffffffffffffffffff1661167b610c58565b73ffffffffffffffffffffffffffffffffffffffff16145b6116d2576040517f08c379a00000000000000000000000000000000000000000000000000000000081526004016116c990613b4a565b60405180910390fd5b5b5b5b6116de81611c8a565b50565b60008073ffffffffffffffffffffffffffffffffffffffff16611703836118fe565b73ffffffffffffffffffffffffffffffffffffffff1614159050919050565b61172b816116e1565b61176a576040517f08c379a0000000000000000000000000000000000000000000000000000000008152600401611761906134ee565b60405180910390fd5b50565b600033905090565b816004600083815260200190815260200160002060006101000a81548173ffffffffffffffffffffffffffffffffffffffff021916908373ffffffffffffffffffffffffffffffffffffffff160217905550808273ffffffffffffffffffffffffffffffffffffffff166117e883610b07565b73ffffffffffffffffffffffffffffffffffffffff167f8c5be1e5ebec7d5bd14f71427d1e84f3dd0314c0f7b2291e5b200ac8c7c3b92560405160405180910390a45050565b60008061183a83610b07565b90508073ffffffffffffffffffffffffffffffffffffffff168473ffffffffffffffffffffffffffffffffffffffff16148061187c575061187b818561112d565b5b806118ba57508373ffffffffffffffffffffffffffffffffffffffff166118a284610738565b73ffffffffffffffffffffffffffffffffffffffff16145b91505092915050565b6040517f08c379a00000000000000000000000000000000000000000000000000000000081526004016118f590613bdc565b60405180910390fd5b60006002600083815260200190815260200160002060009054906101000a900473ffffffffffffffffffffffffffffffffffffffff169050919050565b6000600a60009054906101000a900473ffffffffffffffffffffffffffffffffffffffff16905081600a60006101000a81548173ffffffffffffffffffffffffffffffffffffffff021916908373ffffffffffffffffffffffffffffffffffffffff1602179055508173ffffffffffffffffffffffffffffffffffffffff168173ffffffffffffffffffffffffffffffffffffffff167f8be0079c531659141344cd1fd0a4f28419497f9722a3daafe3b4186f6b6457e060405160405180910390a35050565b8173ffffffffffffffffffffffffffffffffffffffff168373ffffffffffffffffffffffffffffffffffffffff1603611a6f576040517f08c379a0000000000000000000000000000000000000000000000000000000008152600401611a6690613c48565b60405180910390fd5b80600560008573ffffffffffffffffffffffffffffffffffffffff1673ffffffffffffffffffffffffffffffffffffffff16815260200190815260200160002060008473ffffffffffffffffffffffffffffffffffffffff1673ffffffffffffffffffffffffffffffffffffffff16815260200190815260200160002060006101000a81548160ff0219169083151502179055508173ffffffffffffffffffffffffffffffffffffffff168373ffffffffffffffffffffffffffffffffffffffff167f17307eab39ab6107e8899845ad3d59bd9653f200f220920489ca2b5937696c3183604051611b609190612954565b60405180910390a3505050565b611b788484846118c3565b611b8484848484611dd8565b611bc3576040517f08c379a0000000000000000000000000000000000000000000000000000000008152600401611bba90613cda565b60405180910390fd5b50505050565b611be483838360405180602001604052806000815250611f5f565b505050565b611bf2826116e1565b611bfb57600080fd5b80600c60008481526020019081526020016000209081611c1b9190613ea6565b505050565b60007f01ffc9a7000000000000000000000000000000000000000000000000000000007bffffffffffffffffffffffffffffffffffffffffffffffffffffffff1916827bffffffffffffffffffffffffffffffffffffffffffffffffffffffff1916149050919050565b6000611c9582610b07565b9050611ca5816000846001612018565b611cae82610b07565b90506004600083815260200190815260200160002060006101000a81549073ffffffffffffffffffffffffffffffffffffffff02191690556001600360008373ffffffffffffffffffffffffffffffffffffffff1673ffffffffffffffffffffffffffffffffffffffff168152602001908152602001600020600082825403925050819055506002600083815260200190815260200160002060006101000a81549073ffffffffffffffffffffffffffffffffffffffff021916905581600073ffffffffffffffffffffffffffffffffffffffff168273ffffffffffffffffffffffffffffffffffffffff167fddf252ad1be2c89b69c2b068fc378daa952ba7f163c4a11628f55a4df523b3ef60405160405180910390a4611dd4816000846001612176565b5050565b6000611df98473ffffffffffffffffffffffffffffffffffffffff1661217c565b15611f52578373ffffffffffffffffffffffffffffffffffffffff1663150b7a02611e2261176d565b8786866040518563ffffffff1660e01b8152600401611e449493929190613fcd565b6020604051808303816000875af1925050508015611e8057506040513d601f19601f82011682018060405250810190611e7d919061402e565b60015b611f02573d8060008114611eb0576040519150601f19603f3d011682016040523d82523d6000602084013e611eb5565b606091505b506000815103611efa576040517f08c379a0000000000000000000000000000000000000000000000000000000008152600401611ef190613cda565b60405180910390fd5b805181602001fd5b63150b7a0260e01b7bffffffffffffffffffffffffffffffffffffffffffffffffffffffff1916817bffffffffffffffffffffffffffffffffffffffffffffffffffffffff191614915050611f57565b600190505b949350505050565b81600b600085815260200190815260200160002060006101000a81548160ff02191690836003811115611f9557611f94612a5d565b5b0217905550611fa584848361219f565b828473ffffffffffffffffffffffffffffffffffffffff16611fc561176d565b73ffffffffffffffffffffffffffffffffffffffff167f135ffb3383e06280e062ac5095bbf8faa98517161e596a2536bd98a9a8b64a888560405161200a9190612ad4565b60405180910390a450505050565b612024848484846121fa565b6001811115612068576040517f08c379a000000000000000000000000000000000000000000000000000000000815260040161205f906140cd565b60405180910390fd5b6000829050600073ffffffffffffffffffffffffffffffffffffffff168573ffffffffffffffffffffffffffffffffffffffff16036120af576120aa81612320565b6120ee565b8373ffffffffffffffffffffffffffffffffffffffff168573ffffffffffffffffffffffffffffffffffffffff16146120ed576120ec8582612369565b5b5b600073ffffffffffffffffffffffffffffffffffffffff168473ffffffffffffffffffffffffffffffffffffffff16036121305761212b816124d6565b61216f565b8473ffffffffffffffffffffffffffffffffffffffff168473ffffffffffffffffffffffffffffffffffffffff161461216e5761216d84826125a7565b5b5b5050505050565b50505050565b6000808273ffffffffffffffffffffffffffffffffffffffff163b119050919050565b6121a98383612626565b6121b66000848484611dd8565b6121f5576040517f08c379a00000000000000000000000000000000000000000000000000000000081526004016121ec90613cda565b60405180910390fd5b505050565b600181111561231a57600073ffffffffffffffffffffffffffffffffffffffff168473ffffffffffffffffffffffffffffffffffffffff161461228e5780600360008673ffffffffffffffffffffffffffffffffffffffff1673ffffffffffffffffffffffffffffffffffffffff168152602001908152602001600020600082825461228691906140ed565b925050819055505b600073ffffffffffffffffffffffffffffffffffffffff168373ffffffffffffffffffffffffffffffffffffffff16146123195780600360008573ffffffffffffffffffffffffffffffffffffffff1673ffffffffffffffffffffffffffffffffffffffff16815260200190815260200160002060008282546123119190613735565b925050819055505b5b50505050565b6008805490506009600083815260200190815260200160002081905550600881908060018154018082558091505060019003906000526020600020016000909190919091505550565b6000600161237684610b8d565b61238091906140ed565b9050600060076000848152602001908152602001600020549050818114612465576000600660008673ffffffffffffffffffffffffffffffffffffffff1673ffffffffffffffffffffffffffffffffffffffff168152602001908152602001600020600084815260200190815260200160002054905080600660008773ffffffffffffffffffffffffffffffffffffffff1673ffffffffffffffffffffffffffffffffffffffff168152602001908152602001600020600084815260200190815260200160002081905550816007600083815260200190815260200160002081905550505b6007600084815260200190815260200160002060009055600660008573ffffffffffffffffffffffffffffffffffffffff1673ffffffffffffffffffffffffffffffffffffffff16815260200190815260200160002060008381526020019081526020016000206000905550505050565b600060016008805490506124ea91906140ed565b905060006009600084815260200190815260200160002054905060006008838154811061251a57612519613473565b5b90600052602060002001549050806008838154811061253c5761253b613473565b5b90600052602060002001819055508160096000838152602001908152602001600020819055506009600085815260200190815260200160002060009055600880548061258b5761258a614121565b5b6001900381819060005260206000200160009055905550505050565b60006125b283610b8d565b905081600660008573ffffffffffffffffffffffffffffffffffffffff1673ffffffffffffffffffffffffffffffffffffffff168152602001908152602001600020600083815260200190815260200160002081905550806007600084815260200190815260200160002081905550505050565b600073ffffffffffffffffffffffffffffffffffffffff168273ffffffffffffffffffffffffffffffffffffffff1603612695576040517f08c379a000000000000000000000000000000000000000000000000000000000815260040161268c9061419c565b60405180910390fd5b61269e816116e1565b156126de576040517f08c379a00000000000000000000000000000000000000000000000000000000081526004016126d590614208565b60405180910390fd5b6126ec600083836001612018565b6126f5816116e1565b15612735576040517f08c379a000000000000000000000000000000000000000000000000000000000815260040161272c90614208565b60405180910390fd5b6001600360008473ffffffffffffffffffffffffffffffffffffffff1673ffffffffffffffffffffffffffffffffffffffff16815260200190815260200160002060008282540192505081905550816002600083815260200190815260200160002060006101000a81548173ffffffffffffffffffffffffffffffffffffffff021916908373ffffffffffffffffffffffffffffffffffffffff160217905550808273ffffffffffffffffffffffffffffffffffffffff16600073ffffffffffffffffffffffffffffffffffffffff167fddf252ad1be2c89b69c2b068fc378daa952ba7f163c4a11628f55a4df523b3ef60405160405180910390a461283f600083836001612176565b5050565b50805461284f9061301b565b6000825580601f106128615750612880565b601f01602090049060005260206000209081019061287f9190612883565b5b50565b5b8082111561289c576000816000905550600101612884565b5090565b6000604051905090565b600080fd5b600080fd5b60007fffffffff0000000000000000000000000000000000000000000000000000000082169050919050565b6128e9816128b4565b81146128f457600080fd5b50565b600081359050612906816128e0565b92915050565b600060208284031215612922576129216128aa565b5b6000612930848285016128f7565b91505092915050565b60008115159050919050565b61294e81612939565b82525050565b60006020820190506129696000830184612945565b92915050565b600073ffffffffffffffffffffffffffffffffffffffff82169050919050565b600061299a8261296f565b9050919050565b6129aa8161298f565b81146129b557600080fd5b50565b6000813590506129c7816129a1565b92915050565b6000602082840312156129e3576129e26128aa565b5b60006129f1848285016129b8565b91505092915050565b6000819050919050565b612a0d816129fa565b8114612a1857600080fd5b50565b600081359050612a2a81612a04565b92915050565b600060208284031215612a4657612a456128aa565b5b6000612a5484828501612a1b565b91505092915050565b7f4e487b7100000000000000000000000000000000000000000000000000000000600052602160045260246000fd5b60048110612a9d57612a9c612a5d565b5b50565b6000819050612aae82612a8c565b919050565b6000612abe82612aa0565b9050919050565b612ace81612ab3565b82525050565b6000602082019050612ae96000830184612ac5565b92915050565b600081519050919050565b600082825260208201905092915050565b60005b83811015612b29578082015181840152602081019050612b0e565b60008484015250505050565b6000601f19601f8301169050919050565b6000612b5182612aef565b612b5b8185612afa565b9350612b6b818560208601612b0b565b612b7481612b35565b840191505092915050565b60006020820190508181036000830152612b998184612b46565b905092915050565b612baa8161298f565b82525050565b6000602082019050612bc56000830184612ba1565b92915050565b60008060408385031215612be257612be16128aa565b5b6000612bf0858286016129b8565b9250506020612c0185828601612a1b565b9150509250929050565b612c14816129fa565b82525050565b6000602082019050612c2f6000830184612c0b565b92915050565b60008060408385031215612c4c57612c4b6128aa565b5b6000612c5a85828601612a1b565b9250506020612c6b85828601612a1b565b9150509250929050565b600080600060608486031215612c8e57612c8d6128aa565b5b6000612c9c868287016129b8565b9350506020612cad868287016129b8565b9250506040612cbe86828701612a1b565b9150509250925092565b612cd181612939565b8114612cdc57600080fd5b50565b600081359050612cee81612cc8565b92915050565b60008060408385031215612d0b57612d0a6128aa565b5b6000612d19858286016129b8565b9250506020612d2a85828601612cdf565b9150509250929050565b600080fd5b600080fd5b7f4e487b7100000000000000000000000000000000000000000000000000000000600052604160045260246000fd5b612d7682612b35565b810181811067ffffffffffffffff82111715612d9557612d94612d3e565b5b80604052505050565b6000612da86128a0565b9050612db48282612d6d565b919050565b600067ffffffffffffffff821115612dd457612dd3612d3e565b5b612ddd82612b35565b9050602081019050919050565b82818337600083830152505050565b6000612e0c612e0784612db9565b612d9e565b905082815260208101848484011115612e2857612e27612d39565b5b612e33848285612dea565b509392505050565b600082601f830112612e5057612e4f612d34565b5b8135612e60848260208601612df9565b91505092915050565b60008060008060808587031215612e8357612e826128aa565b5b6000612e91878288016129b8565b9450506020612ea2878288016129b8565b9350506040612eb387828801612a1b565b925050606085013567ffffffffffffffff811115612ed457612ed36128af565b5b612ee087828801612e3b565b91505092959194509250565b600080fd5b600080fd5b60008083601f840112612f0c57612f0b612d34565b5b8235905067ffffffffffffffff811115612f2957612f28612eec565b5b602083019150836001820283011115612f4557612f44612ef1565b5b9250929050565b600080600060408486031215612f6557612f646128aa565b5b6000612f73868287016129b8565b935050602084013567ffffffffffffffff811115612f9457612f936128af565b5b612fa086828701612ef6565b92509250509250925092565b60008060408385031215612fc357612fc26128aa565b5b6000612fd1858286016129b8565b9250506020612fe2858286016129b8565b9150509250929050565b7f4e487b7100000000000000000000000000000000000000000000000000000000600052602260045260246000fd5b6000600282049050600182168061303357607f821691505b60208210810361304657613045612fec565b5b50919050565b7f456d706c6f796565436172643a20746f6b656e20646f6573206e6f742065786960008201527f7374000000000000000000000000000000000000000000000000000000000000602082015250565b60006130a8602283612afa565b91506130b38261304c565b604082019050919050565b600060208201905081810360008301526130d78161309b565b9050919050565b7f4552433732313a20617070726f76616c20746f2063757272656e74206f776e6560008201527f7200000000000000000000000000000000000000000000000000000000000000602082015250565b600061313a602183612afa565b9150613145826130de565b604082019050919050565b600060208201905081810360008301526131698161312d565b9050919050565b7f4552433732313a20617070726f76652063616c6c6572206973206e6f7420746f60008201527f6b656e206f776e6572206f7220617070726f76656420666f7220616c6c000000602082015250565b60006131cc603d83612afa565b91506131d782613170565b604082019050919050565b600060208201905081810360008301526131fb816131bf565b9050919050565b7f456d706c6f796565436172643a20796f75206d7573742073706563696679206160008201527f20656e642074696d6520696e2074686520667574757265000000000000000000602082015250565b600061325e603783612afa565b915061326982613202565b604082019050919050565b6000602082019050818103600083015261328d81613251565b9050919050565b60006040820190506132a96000830185612c0b565b6132b66020830184612c0b565b9392505050565b7f4552433732313a2063616c6c6572206973206e6f7420746f6b656e206f776e6560008201527f72206f7220617070726f76656400000000000000000000000000000000000000602082015250565b6000613319602d83612afa565b9150613324826132bd565b604082019050919050565b600060208201905081810360008301526133488161330c565b9050919050565b7f455243373231456e756d657261626c653a206f776e657220696e646578206f7560008201527f74206f6620626f756e6473000000000000000000000000000000000000000000602082015250565b60006133ab602b83612afa565b91506133b68261334f565b604082019050919050565b600060208201905081810360008301526133da8161339e565b9050919050565b7f455243373231456e756d657261626c653a20676c6f62616c20696e646578206f60008201527f7574206f6620626f756e64730000000000000000000000000000000000000000602082015250565b600061343d602c83612afa565b9150613448826133e1565b604082019050919050565b6000602082019050818103600083015261346c81613430565b9050919050565b7f4e487b7100000000000000000000000000000000000000000000000000000000600052603260045260246000fd5b7f4552433732313a20696e76616c696420746f6b656e2049440000000000000000600082015250565b60006134d8601883612afa565b91506134e3826134a2565b602082019050919050565b60006020820190508181036000830152613507816134cb565b9050919050565b7f4552433732313a2061646472657373207a65726f206973206e6f74206120766160008201527f6c6964206f776e65720000000000000000000000000000000000000000000000602082015250565b600061356a602983612afa565b91506135758261350e565b604082019050919050565b600060208201905081810360008301526135998161355d565b9050919050565b6000815190506135af81612a04565b92915050565b6000602082840312156135cb576135ca6128aa565b5b60006135d9848285016135a0565b91505092915050565b7f456d706c6f796565436172643a2054686973206164647265737320646f65736e60008201527f2774206861766520616e7920656d706c6f79656520636172642e000000000000602082015250565b600061363e603a83612afa565b9150613649826135e2565b604082019050919050565b6000602082019050818103600083015261366d81613631565b9050919050565b7f416e20656d706c6f7965652063616e206f6e6c792068617665203120746f6b6560008201527f6e00000000000000000000000000000000000000000000000000000000000000602082015250565b60006136d0602183612afa565b91506136db82613674565b604082019050919050565b600060208201905081810360008301526136ff816136c3565b9050919050565b7f4e487b7100000000000000000000000000000000000000000000000000000000600052601160045260246000fd5b6000613740826129fa565b915061374b836129fa565b925082820190508082111561376357613762613706565b5b92915050565b7f456d706c6f796565436172643a20746f6b656e2067656e65726174696f6e206660008201527f61696c6564000000000000000000000000000000000000000000000000000000602082015250565b60006137c5602583612afa565b91506137d082613769565b604082019050919050565b600060208201905081810360008301526137f4816137b8565b9050919050565b60006040820190506138106000830185612ba1565b61381d6020830184612c0b565b9392505050565b7f4f776e61626c653a206e6577206f776e657220697320746865207a65726f206160008201527f6464726573730000000000000000000000000000000000000000000000000000602082015250565b6000613880602683612afa565b915061388b82613824565b604082019050919050565b600060208201905081810360008301526138af81613873565b9050919050565b7f4f776e61626c653a2063616c6c6572206973206e6f7420746865206f776e6572600082015250565b60006138ec602083612afa565b91506138f7826138b6565b602082019050919050565b6000602082019050818103600083015261391b816138df565b9050919050565b7f45524320353438343a204275726e206973206e6f7420616c6c6f776564000000600082015250565b6000613958601d83612afa565b915061396382613922565b602082019050919050565b600060208201905081810360008301526139878161394b565b9050919050565b7f45524320353438343a204f6e6c792074686520697373756572206f662074686560008201527f20746f6b656e20697320616c6c6f77656420746f206275726e2e000000000000602082015250565b60006139ea603a83612afa565b91506139f58261398e565b604082019050919050565b60006020820190508181036000830152613a19816139dd565b9050919050565b7f45524320353438343a204f6e6c7920746865206f776e6572206f66207468652060008201527f746f6b656e20697320616c6c6f77656420746f206275726e2e00000000000000602082015250565b6000613a7c603983612afa565b9150613a8782613a20565b604082019050919050565b60006020820190508181036000830152613aab81613a6f565b9050919050565b7f45524320353438343a204f6e6c7920746865206f776e6572206f72207468652060008201527f697373756572206f662074686520746f6b656e2061726520616c6c6f7765642060208201527f746f206275726e2e000000000000000000000000000000000000000000000000604082015250565b6000613b34604883612afa565b9150613b3f82613ab2565b606082019050919050565b60006020820190508181036000830152613b6381613b27565b9050919050565b7f45524320353438343a205472616e73666572206973206e6f7420616c6c6f776560008201527f6400000000000000000000000000000000000000000000000000000000000000602082015250565b6000613bc6602183612afa565b9150613bd182613b6a565b604082019050919050565b60006020820190508181036000830152613bf581613bb9565b9050919050565b7f4552433732313a20617070726f766520746f2063616c6c657200000000000000600082015250565b6000613c32601983612afa565b9150613c3d82613bfc565b602082019050919050565b60006020820190508181036000830152613c6181613c25565b9050919050565b7f4552433732313a207472616e7366657220746f206e6f6e20455243373231526560008201527f63656976657220696d706c656d656e7465720000000000000000000000000000602082015250565b6000613cc4603283612afa565b9150613ccf82613c68565b604082019050919050565b60006020820190508181036000830152613cf381613cb7565b9050919050565b60008190508160005260206000209050919050565b60006020601f8301049050919050565b600082821b905092915050565b600060088302613d5c7fffffffffffffffffffffffffffffffffffffffffffffffffffffffffffffffff82613d1f565b613d668683613d1f565b95508019841693508086168417925050509392505050565b6000819050919050565b6000613da3613d9e613d99846129fa565b613d7e565b6129fa565b9050919050565b6000819050919050565b613dbd83613d88565b613dd1613dc982613daa565b848454613d2c565b825550505050565b600090565b613de6613dd9565b613df1818484613db4565b505050565b5b81811015613e1557613e0a600082613dde565b600181019050613df7565b5050565b601f821115613e5a57613e2b81613cfa565b613e3484613d0f565b81016020851015613e43578190505b613e57613e4f85613d0f565b830182613df6565b50505b505050565b600082821c905092915050565b6000613e7d60001984600802613e5f565b1980831691505092915050565b6000613e968383613e6c565b9150826002028217905092915050565b613eaf82612aef565b67ffffffffffffffff811115613ec857613ec7612d3e565b5b613ed2825461301b565b613edd828285613e19565b600060209050601f831160018114613f105760008415613efe578287015190505b613f088582613e8a565b865550613f70565b601f198416613f1e86613cfa565b60005b82811015613f4657848901518255600182019150602085019450602081019050613f21565b86831015613f635784890151613f5f601f891682613e6c565b8355505b6001600288020188555050505b505050505050565b600081519050919050565b600082825260208201905092915050565b6000613f9f82613f78565b613fa98185613f83565b9350613fb9818560208601612b0b565b613fc281612b35565b840191505092915050565b6000608082019050613fe26000830187612ba1565b613fef6020830186612ba1565b613ffc6040830185612c0b565b818103606083015261400e8184613f94565b905095945050505050565b600081519050614028816128e0565b92915050565b600060208284031215614044576140436128aa565b5b600061405284828501614019565b91505092915050565b7f455243373231456e756d657261626c653a20636f6e736563757469766520747260008201527f616e7366657273206e6f7420737570706f727465640000000000000000000000602082015250565b60006140b7603583612afa565b91506140c28261405b565b604082019050919050565b600060208201905081810360008301526140e6816140aa565b9050919050565b60006140f8826129fa565b9150614103836129fa565b925082820390508181111561411b5761411a613706565b5b92915050565b7f4e487b7100000000000000000000000000000000000000000000000000000000600052603160045260246000fd5b7f4552433732313a206d696e7420746f20746865207a65726f2061646472657373600082015250565b6000614186602083612afa565b915061419182614150565b602082019050919050565b600060208201905081810360008301526141b581614179565b9050919050565b7f4552433732313a20746f6b656e20616c7265616479206d696e74656400000000600082015250565b60006141f2601c83612afa565b91506141fd826141bc565b602082019050919050565b60006020820190508181036000830152614221816141e5565b905091905056fea2646970667358221220f4a000b998a03b7a7c392e0d7885737615c29e8c2c0dc7ffa40658f72ecb2f2e64736f6c63430008110033",
  "devdoc": {
    "author": "Bertrand Presles",
    "kind": "dev",
    "methods": {
      "approve(address,uint256)": {
        "details": "See {IERC721-approve}."
      },
      "balanceOf(address)": {
        "details": "See {IERC721-balanceOf}."
      },
      "burnAuth(uint256)": {
        "params": {
          "tokenId": "The token Id."
        },
        "returns": {
          "_0": "BurnAuth The burn policy for the token."
        }
      },
      "burnCard(address)": {
        "params": {
          "employee": "Current holder of the card."
        }
      },
      "getApproved(uint256)": {
        "details": "See {IERC721-getApproved}."
      },
      "getEmployeeCardEndTime(uint256)": {
        "returns": {
          "_0": "End time in unix timestamp format. It returns 0 if the card doesn't have end time yet."
        }
      },
      "getEmployeeCardId(address)": {
        "params": {
          "employee": "Employee address."
        },
        "returns": {
          "_0": "The employee card id."
        }
      },
      "invalidateEmployeeCard(uint256,uint256)": {
        "details": "Saves the end date (in unix timestamp format) in _tokenEndTimes mapping.",
        "params": {
          "tokenId": "The token id to invalidate."
        }
      },
      "isApprovedForAll(address,address)": {
        "details": "See {IERC721-isApprovedForAll}."
      },
      "isTokenValid(uint256)": {
        "details": "A valid token is a token without end time set",
        "returns": {
          "_0": "True is it's still valid, false otherwise."
        }
      },
      "mint(address,string)": {
        "params": {
          "_recipient": "Recipient address.",
          "_tokenURI": "The token URI. emit EmployeeCardMinted event when card is minted."
        }
      },
      "name()": {
        "details": "See {IERC721Metadata-name}."
      },
      "owner()": {
        "details": "Returns the address of the current owner."
      },
      "ownerOf(uint256)": {
        "details": "See {IERC721-ownerOf}."
      },
      "renounceOwnership()": {
        "details": "Leaves the contract without owner. It will not be possible to call `onlyOwner` functions anymore. Can only be called by the current owner. NOTE: Renouncing ownership will leave the contract without an owner, thereby removing any functionality that is only available to the owner."
      },
      "safeTransferFrom(address,address,uint256)": {
        "details": "See {IERC721-safeTransferFrom}."
      },
      "safeTransferFrom(address,address,uint256,bytes)": {
        "details": "See {IERC721-safeTransferFrom}."
      },
      "setApprovalForAll(address,bool)": {
        "details": "See {IERC721-setApprovalForAll}."
      },
      "supportsInterface(bytes4)": {
        "details": "See {IERC165-supportsInterface}."
      },
      "symbol()": {
        "details": "See {IERC721Metadata-symbol}."
      },
      "tokenByIndex(uint256)": {
        "details": "See {IERC721Enumerable-tokenByIndex}."
      },
      "tokenOfOwnerByIndex(address,uint256)": {
        "details": "See {IERC721Enumerable-tokenOfOwnerByIndex}."
      },
      "tokenURI(uint256)": {
        "details": "Returns an URI for a given token ID. Revert if the token ID does not exist. May return an empty string.",
        "params": {
          "tokenId": "uint256 ID of the token to query"
        },
        "returns": {
          "_0": "The token URI "
        }
      },
      "totalSupply()": {
        "details": "See {IERC721Enumerable-totalSupply}."
      },
      "transferFrom(address,address,uint256)": {
        "details": "See {IERC721-transferFrom}."
      },
      "transferOwnership(address)": {
        "details": "Transfers ownership of the contract to a new account (`newOwner`). Can only be called by the current owner."
      }
    },
    "title": "An SBT for professionnal decentralized identity and proof of experience.",
    "version": 1
  },
  "userdoc": {
    "events": {
      "Issued(address,address,uint256,uint8)": {
        "notice": "Emitted when a soulbound token is issued."
      }
    },
    "kind": "user",
    "methods": {
      "burnAuth(uint256)": {
        "notice": "Gets the burn authorization information for this token."
      },
      "burnCard(address)": {
        "notice": "Burns a card."
      },
      "getEmployeeCardEndTime(uint256)": {
        "notice": "Gets an employee card SBT end time."
      },
      "getEmployeeCardId(address)": {
        "notice": "Gets the employee card id."
      },
      "invalidateEmployeeCard(uint256,uint256)": {
        "notice": "Invalidates an SBT token."
      },
      "isTokenValid(uint256)": {
        "notice": "Returns if the SBT is still valid."
      },
      "mint(address,string)": {
        "notice": "Mint a new employee card Consensual SBT token."
      },
      "tokenURI(uint256)": {
        "notice": "Gets the token URI for the passed token id."
      }
    },
    "notice": "You can use this contract to generate digital ids for your employees that can also be used as proof of their work in your company",
    "version": 1
  },
  "storageLayout": {
    "storage": [
      {
        "astId": 828,
        "contract": "contracts/identity/EmployeeCard.sol:EmployeeCard",
        "label": "_name",
        "offset": 0,
        "slot": "0",
        "type": "t_string_storage"
      },
      {
        "astId": 830,
        "contract": "contracts/identity/EmployeeCard.sol:EmployeeCard",
        "label": "_symbol",
        "offset": 0,
        "slot": "1",
        "type": "t_string_storage"
      },
      {
        "astId": 834,
        "contract": "contracts/identity/EmployeeCard.sol:EmployeeCard",
        "label": "_owners",
        "offset": 0,
        "slot": "2",
        "type": "t_mapping(t_uint256,t_address)"
      },
      {
        "astId": 838,
        "contract": "contracts/identity/EmployeeCard.sol:EmployeeCard",
        "label": "_balances",
        "offset": 0,
        "slot": "3",
        "type": "t_mapping(t_address,t_uint256)"
      },
      {
        "astId": 842,
        "contract": "contracts/identity/EmployeeCard.sol:EmployeeCard",
        "label": "_tokenApprovals",
        "offset": 0,
        "slot": "4",
        "type": "t_mapping(t_uint256,t_address)"
      },
      {
        "astId": 848,
        "contract": "contracts/identity/EmployeeCard.sol:EmployeeCard",
        "label": "_operatorApprovals",
        "offset": 0,
        "slot": "5",
        "type": "t_mapping(t_address,t_mapping(t_address,t_bool))"
      },
      {
        "astId": 1896,
        "contract": "contracts/identity/EmployeeCard.sol:EmployeeCard",
        "label": "_ownedTokens",
        "offset": 0,
        "slot": "6",
        "type": "t_mapping(t_address,t_mapping(t_uint256,t_uint256))"
      },
      {
        "astId": 1900,
        "contract": "contracts/identity/EmployeeCard.sol:EmployeeCard",
        "label": "_ownedTokensIndex",
        "offset": 0,
        "slot": "7",
        "type": "t_mapping(t_uint256,t_uint256)"
      },
      {
        "astId": 1903,
        "contract": "contracts/identity/EmployeeCard.sol:EmployeeCard",
        "label": "_allTokens",
        "offset": 0,
        "slot": "8",
        "type": "t_array(t_uint256)dyn_storage"
      },
      {
        "astId": 1907,
        "contract": "contracts/identity/EmployeeCard.sol:EmployeeCard",
        "label": "_allTokensIndex",
        "offset": 0,
        "slot": "9",
        "type": "t_mapping(t_uint256,t_uint256)"
      },
      {
        "astId": 7,
        "contract": "contracts/identity/EmployeeCard.sol:EmployeeCard",
        "label": "_owner",
        "offset": 0,
        "slot": "10",
        "type": "t_address"
      },
      {
        "astId": 4887,
        "contract": "contracts/identity/EmployeeCard.sol:EmployeeCard",
        "label": "burnAuths",
        "offset": 0,
        "slot": "11",
        "type": "t_mapping(t_uint256,t_enum(BurnAuth)5086)"
      },
      {
        "astId": 4578,
        "contract": "contracts/identity/EmployeeCard.sol:EmployeeCard",
        "label": "_tokenURIs",
        "offset": 0,
        "slot": "12",
        "type": "t_mapping(t_uint256,t_string_storage)"
      },
      {
        "astId": 4583,
        "contract": "contracts/identity/EmployeeCard.sol:EmployeeCard",
        "label": "_tokenEndTimes",
        "offset": 0,
        "slot": "13",
        "type": "t_mapping(t_uint256,t_uint256)"
      }
    ],
    "types": {
      "t_address": {
        "encoding": "inplace",
        "label": "address",
        "numberOfBytes": "20"
      },
      "t_array(t_uint256)dyn_storage": {
        "base": "t_uint256",
        "encoding": "dynamic_array",
        "label": "uint256[]",
        "numberOfBytes": "32"
      },
      "t_bool": {
        "encoding": "inplace",
        "label": "bool",
        "numberOfBytes": "1"
      },
      "t_enum(BurnAuth)5086": {
        "encoding": "inplace",
        "label": "enum IERC5484.BurnAuth",
        "numberOfBytes": "1"
      },
      "t_mapping(t_address,t_bool)": {
        "encoding": "mapping",
        "key": "t_address",
        "label": "mapping(address => bool)",
        "numberOfBytes": "32",
        "value": "t_bool"
      },
      "t_mapping(t_address,t_mapping(t_address,t_bool))": {
        "encoding": "mapping",
        "key": "t_address",
        "label": "mapping(address => mapping(address => bool))",
        "numberOfBytes": "32",
        "value": "t_mapping(t_address,t_bool)"
      },
      "t_mapping(t_address,t_mapping(t_uint256,t_uint256))": {
        "encoding": "mapping",
        "key": "t_address",
        "label": "mapping(address => mapping(uint256 => uint256))",
        "numberOfBytes": "32",
        "value": "t_mapping(t_uint256,t_uint256)"
      },
      "t_mapping(t_address,t_uint256)": {
        "encoding": "mapping",
        "key": "t_address",
        "label": "mapping(address => uint256)",
        "numberOfBytes": "32",
        "value": "t_uint256"
      },
      "t_mapping(t_uint256,t_address)": {
        "encoding": "mapping",
        "key": "t_uint256",
        "label": "mapping(uint256 => address)",
        "numberOfBytes": "32",
        "value": "t_address"
      },
      "t_mapping(t_uint256,t_enum(BurnAuth)5086)": {
        "encoding": "mapping",
        "key": "t_uint256",
        "label": "mapping(uint256 => enum IERC5484.BurnAuth)",
        "numberOfBytes": "32",
        "value": "t_enum(BurnAuth)5086"
      },
      "t_mapping(t_uint256,t_string_storage)": {
        "encoding": "mapping",
        "key": "t_uint256",
        "label": "mapping(uint256 => string)",
        "numberOfBytes": "32",
        "value": "t_string_storage"
      },
      "t_mapping(t_uint256,t_uint256)": {
        "encoding": "mapping",
        "key": "t_uint256",
        "label": "mapping(uint256 => uint256)",
        "numberOfBytes": "32",
        "value": "t_uint256"
      },
      "t_string_storage": {
        "encoding": "bytes",
        "label": "string",
        "numberOfBytes": "32"
      },
      "t_uint256": {
        "encoding": "inplace",
        "label": "uint256",
        "numberOfBytes": "32"
      }
    }
  }
}