{
  "address": "0xC11828777793dEc62eDe1871d551b4e940BBe217",
  "abi": [
    {
      "inputs": [
        {
          "internalType": "string",
          "name": "name",
          "type": "string"
        },
        {
          "internalType": "string",
          "name": "symbol",
          "type": "string"
        }
      ],
      "stateMutability": "nonpayable",
      "type": "constructor"
    },
    {
      "anonymous": false,
      "inputs": [
        {
          "indexed": true,
          "internalType": "address",
          "name": "owner",
          "type": "address"
        },
        {
          "indexed": true,
          "internalType": "address",
          "name": "approved",
          "type": "address"
        },
        {
          "indexed": true,
          "internalType": "uint256",
          "name": "tokenId",
          "type": "uint256"
        }
      ],
      "name": "Approval",
      "type": "event"
    },
    {
      "anonymous": false,
      "inputs": [
        {
          "indexed": true,
          "internalType": "address",
          "name": "owner",
          "type": "address"
        },
        {
          "indexed": true,
          "internalType": "address",
          "name": "operator",
          "type": "address"
        },
        {
          "indexed": false,
          "internalType": "bool",
          "name": "approved",
          "type": "bool"
        }
      ],
      "name": "ApprovalForAll",
      "type": "event"
    },
    {
      "anonymous": false,
      "inputs": [
        {
          "indexed": false,
          "internalType": "address",
          "name": "sender",
          "type": "address"
        },
        {
          "indexed": false,
          "internalType": "uint256",
          "name": "amount",
          "type": "uint256"
        },
        {
          "indexed": false,
          "internalType": "bytes",
          "name": "data",
          "type": "bytes"
        }
      ],
      "name": "CallReceived",
      "type": "event"
    },
    {
      "anonymous": false,
      "inputs": [
        {
          "indexed": false,
          "internalType": "uint256",
          "name": "tokenId",
          "type": "uint256"
        },
        {
          "indexed": false,
          "internalType": "uint256",
          "name": "endTime",
          "type": "uint256"
        }
      ],
      "name": "EmployeeCardEnded",
      "type": "event"
    },
    {
      "anonymous": false,
      "inputs": [
        {
          "indexed": false,
          "internalType": "address",
          "name": "employee",
          "type": "address"
        },
        {
          "indexed": false,
          "internalType": "uint256",
          "name": "tokenId",
          "type": "uint256"
        }
      ],
      "name": "EmployeeCardMinted",
      "type": "event"
    },
    {
      "anonymous": false,
      "inputs": [
        {
          "indexed": true,
          "internalType": "address",
          "name": "from",
          "type": "address"
        },
        {
          "indexed": true,
          "internalType": "address",
          "name": "to",
          "type": "address"
        },
        {
          "indexed": true,
          "internalType": "uint256",
          "name": "tokenId",
          "type": "uint256"
        },
        {
          "indexed": false,
          "internalType": "enum IERC5484.BurnAuth",
          "name": "burnAuth",
          "type": "uint8"
        }
      ],
      "name": "Issued",
      "type": "event"
    },
    {
      "anonymous": false,
      "inputs": [
        {
          "indexed": true,
          "internalType": "address",
          "name": "previousOwner",
          "type": "address"
        },
        {
          "indexed": true,
          "internalType": "address",
          "name": "newOwner",
          "type": "address"
        }
      ],
      "name": "OwnershipTransferred",
      "type": "event"
    },
    {
      "anonymous": false,
      "inputs": [
        {
          "indexed": false,
          "internalType": "address",
          "name": "sender",
          "type": "address"
        },
        {
          "indexed": false,
          "internalType": "uint256",
          "name": "amount",
          "type": "uint256"
        }
      ],
      "name": "TokenReceived",
      "type": "event"
    },
    {
      "anonymous": false,
      "inputs": [
        {
          "indexed": true,
          "internalType": "address",
          "name": "from",
          "type": "address"
        },
        {
          "indexed": true,
          "internalType": "address",
          "name": "to",
          "type": "address"
        },
        {
          "indexed": true,
          "internalType": "uint256",
          "name": "tokenId",
          "type": "uint256"
        }
      ],
      "name": "Transfer",
      "type": "event"
    },
    {
      "anonymous": false,
      "inputs": [
        {
          "indexed": false,
          "internalType": "address",
          "name": "employee",
          "type": "address"
        }
      ],
      "name": "VacationRightsCalculated",
      "type": "event"
    },
    {
      "inputs": [
        {
          "internalType": "address",
          "name": "to",
          "type": "address"
        },
        {
          "internalType": "uint256",
          "name": "tokenId",
          "type": "uint256"
        }
      ],
      "name": "approve",
      "outputs": [],
      "stateMutability": "nonpayable",
      "type": "function"
    },
    {
      "inputs": [
        {
          "internalType": "address",
          "name": "owner",
          "type": "address"
        }
      ],
      "name": "balanceOf",
      "outputs": [
        {
          "internalType": "uint256",
          "name": "",
          "type": "uint256"
        }
      ],
      "stateMutability": "view",
      "type": "function"
    },
    {
      "inputs": [
        {
          "internalType": "uint256",
          "name": "tokenId",
          "type": "uint256"
        }
      ],
      "name": "burnAuth",
      "outputs": [
        {
          "internalType": "enum IERC5484.BurnAuth",
          "name": "",
          "type": "uint8"
        }
      ],
      "stateMutability": "view",
      "type": "function"
    },
    {
      "inputs": [
        {
          "internalType": "address",
          "name": "employee",
          "type": "address"
        }
      ],
      "name": "burnCard",
      "outputs": [],
      "stateMutability": "nonpayable",
      "type": "function"
    },
    {
      "inputs": [
        {
          "internalType": "uint256",
          "name": "tokenId",
          "type": "uint256"
        }
      ],
      "name": "getApproved",
      "outputs": [
        {
          "internalType": "address",
          "name": "",
          "type": "address"
        }
      ],
      "stateMutability": "view",
      "type": "function"
    },
    {
      "inputs": [
        {
          "internalType": "address",
          "name": "employee",
          "type": "address"
        }
      ],
      "name": "getEmployeeCardId",
      "outputs": [
        {
          "internalType": "uint256",
          "name": "",
          "type": "uint256"
        }
      ],
      "stateMutability": "view",
      "type": "function"
    },
    {
      "inputs": [
        {
          "internalType": "uint256",
          "name": "tokenId",
          "type": "uint256"
        },
        {
          "internalType": "uint256",
          "name": "endTime",
          "type": "uint256"
        }
      ],
      "name": "invalidateEmployeeCard",
      "outputs": [],
      "stateMutability": "nonpayable",
      "type": "function"
    },
    {
      "inputs": [
        {
          "internalType": "address",
          "name": "owner",
          "type": "address"
        },
        {
          "internalType": "address",
          "name": "operator",
          "type": "address"
        }
      ],
      "name": "isApprovedForAll",
      "outputs": [
        {
          "internalType": "bool",
          "name": "",
          "type": "bool"
        }
      ],
      "stateMutability": "view",
      "type": "function"
    },
    {
      "inputs": [
        {
          "internalType": "uint256",
          "name": "tokenId",
          "type": "uint256"
        }
      ],
      "name": "isTokenValid",
      "outputs": [
        {
          "internalType": "bool",
          "name": "",
          "type": "bool"
        }
      ],
      "stateMutability": "view",
      "type": "function"
    },
    {
      "inputs": [
        {
          "internalType": "address",
          "name": "_recipient",
          "type": "address"
        },
        {
          "internalType": "string",
          "name": "_tokenURI",
          "type": "string"
        }
      ],
      "name": "mint",
      "outputs": [],
      "stateMutability": "nonpayable",
      "type": "function"
    },
    {
      "inputs": [],
      "name": "name",
      "outputs": [
        {
          "internalType": "string",
          "name": "",
          "type": "string"
        }
      ],
      "stateMutability": "view",
      "type": "function"
    },
    {
      "inputs": [],
      "name": "owner",
      "outputs": [
        {
          "internalType": "address",
          "name": "",
          "type": "address"
        }
      ],
      "stateMutability": "view",
      "type": "function"
    },
    {
      "inputs": [
        {
          "internalType": "uint256",
          "name": "tokenId",
          "type": "uint256"
        }
      ],
      "name": "ownerOf",
      "outputs": [
        {
          "internalType": "address",
          "name": "",
          "type": "address"
        }
      ],
      "stateMutability": "view",
      "type": "function"
    },
    {
      "inputs": [],
      "name": "renounceOwnership",
      "outputs": [],
      "stateMutability": "nonpayable",
      "type": "function"
    },
    {
      "inputs": [
        {
          "internalType": "address",
          "name": "from",
          "type": "address"
        },
        {
          "internalType": "address",
          "name": "to",
          "type": "address"
        },
        {
          "internalType": "uint256",
          "name": "tokenId",
          "type": "uint256"
        }
      ],
      "name": "safeTransferFrom",
      "outputs": [],
      "stateMutability": "nonpayable",
      "type": "function"
    },
    {
      "inputs": [
        {
          "internalType": "address",
          "name": "from",
          "type": "address"
        },
        {
          "internalType": "address",
          "name": "to",
          "type": "address"
        },
        {
          "internalType": "uint256",
          "name": "tokenId",
          "type": "uint256"
        },
        {
          "internalType": "bytes",
          "name": "data",
          "type": "bytes"
        }
      ],
      "name": "safeTransferFrom",
      "outputs": [],
      "stateMutability": "nonpayable",
      "type": "function"
    },
    {
      "inputs": [
        {
          "internalType": "address",
          "name": "operator",
          "type": "address"
        },
        {
          "internalType": "bool",
          "name": "approved",
          "type": "bool"
        }
      ],
      "name": "setApprovalForAll",
      "outputs": [],
      "stateMutability": "nonpayable",
      "type": "function"
    },
    {
      "inputs": [
        {
          "internalType": "bytes4",
          "name": "interfaceId",
          "type": "bytes4"
        }
      ],
      "name": "supportsInterface",
      "outputs": [
        {
          "internalType": "bool",
          "name": "",
          "type": "bool"
        }
      ],
      "stateMutability": "view",
      "type": "function"
    },
    {
      "inputs": [],
      "name": "symbol",
      "outputs": [
        {
          "internalType": "string",
          "name": "",
          "type": "string"
        }
      ],
      "stateMutability": "view",
      "type": "function"
    },
    {
      "inputs": [
        {
          "internalType": "uint256",
          "name": "index",
          "type": "uint256"
        }
      ],
      "name": "tokenByIndex",
      "outputs": [
        {
          "internalType": "uint256",
          "name": "",
          "type": "uint256"
        }
      ],
      "stateMutability": "view",
      "type": "function"
    },
    {
      "inputs": [
        {
          "internalType": "address",
          "name": "owner",
          "type": "address"
        },
        {
          "internalType": "uint256",
          "name": "index",
          "type": "uint256"
        }
      ],
      "name": "tokenOfOwnerByIndex",
      "outputs": [
        {
          "internalType": "uint256",
          "name": "",
          "type": "uint256"
        }
      ],
      "stateMutability": "view",
      "type": "function"
    },
    {
      "inputs": [
        {
          "internalType": "uint256",
          "name": "tokenId",
          "type": "uint256"
        }
      ],
      "name": "tokenURI",
      "outputs": [
        {
          "internalType": "string",
          "name": "",
          "type": "string"
        }
      ],
      "stateMutability": "view",
      "type": "function"
    },
    {
      "inputs": [],
      "name": "totalSupply",
      "outputs": [
        {
          "internalType": "uint256",
          "name": "",
          "type": "uint256"
        }
      ],
      "stateMutability": "view",
      "type": "function"
    },
    {
      "inputs": [
        {
          "internalType": "address",
          "name": "from",
          "type": "address"
        },
        {
          "internalType": "address",
          "name": "to",
          "type": "address"
        },
        {
          "internalType": "uint256",
          "name": "tokenId",
          "type": "uint256"
        }
      ],
      "name": "transferFrom",
      "outputs": [],
      "stateMutability": "nonpayable",
      "type": "function"
    },
    {
      "inputs": [
        {
          "internalType": "address",
          "name": "newOwner",
          "type": "address"
        }
      ],
      "name": "transferOwnership",
      "outputs": [],
      "stateMutability": "nonpayable",
      "type": "function"
    }
  ],
  "transactionHash": "0x84fc2563472532eaaf94bba1902885d617cc47ac44c9264fb88c4f0e0c56164c",
  "args": [
    "Alyra Employee Card",
    "AEC"
  ],
  "numDeployments": 1,
  "solcInputHash": "65ea298bf8cd9c1160428b1a790d7e48",
  "bytecode": "0x60806040523480156200001157600080fd5b50604051620048a0380380620048a08339818101604052810190620000379190620002ec565b8181818181600090816200004c9190620005bc565b5080600190816200005e9190620005bc565b50505062000081620000756200008b60201b60201c565b6200009360201b60201c565b50505050620006a3565b600033905090565b6000600a60009054906101000a900473ffffffffffffffffffffffffffffffffffffffff16905081600a60006101000a81548173ffffffffffffffffffffffffffffffffffffffff021916908373ffffffffffffffffffffffffffffffffffffffff1602179055508173ffffffffffffffffffffffffffffffffffffffff168173ffffffffffffffffffffffffffffffffffffffff167f8be0079c531659141344cd1fd0a4f28419497f9722a3daafe3b4186f6b6457e060405160405180910390a35050565b6000604051905090565b600080fd5b600080fd5b600080fd5b600080fd5b6000601f19601f8301169050919050565b7f4e487b7100000000000000000000000000000000000000000000000000000000600052604160045260246000fd5b620001c28262000177565b810181811067ffffffffffffffff82111715620001e457620001e362000188565b5b80604052505050565b6000620001f962000159565b9050620002078282620001b7565b919050565b600067ffffffffffffffff8211156200022a576200022962000188565b5b620002358262000177565b9050602081019050919050565b60005b838110156200026257808201518184015260208101905062000245565b60008484015250505050565b6000620002856200027f846200020c565b620001ed565b905082815260208101848484011115620002a457620002a362000172565b5b620002b184828562000242565b509392505050565b600082601f830112620002d157620002d06200016d565b5b8151620002e38482602086016200026e565b91505092915050565b6000806040838503121562000306576200030562000163565b5b600083015167ffffffffffffffff81111562000327576200032662000168565b5b6200033585828601620002b9565b925050602083015167ffffffffffffffff81111562000359576200035862000168565b5b6200036785828601620002b9565b9150509250929050565b600081519050919050565b7f4e487b7100000000000000000000000000000000000000000000000000000000600052602260045260246000fd5b60006002820490506001821680620003c457607f821691505b602082108103620003da57620003d96200037c565b5b50919050565b60008190508160005260206000209050919050565b60006020601f8301049050919050565b600082821b905092915050565b600060088302620004447fffffffffffffffffffffffffffffffffffffffffffffffffffffffffffffffff8262000405565b62000450868362000405565b95508019841693508086168417925050509392505050565b6000819050919050565b6000819050919050565b60006200049d62000497620004918462000468565b62000472565b62000468565b9050919050565b6000819050919050565b620004b9836200047c565b620004d1620004c882620004a4565b84845462000412565b825550505050565b600090565b620004e8620004d9565b620004f5818484620004ae565b505050565b5b818110156200051d5762000511600082620004de565b600181019050620004fb565b5050565b601f8211156200056c576200053681620003e0565b6200054184620003f5565b8101602085101562000551578190505b620005696200056085620003f5565b830182620004fa565b50505b505050565b600082821c905092915050565b6000620005916000198460080262000571565b1980831691505092915050565b6000620005ac83836200057e565b9150826002028217905092915050565b620005c78262000371565b67ffffffffffffffff811115620005e357620005e262000188565b5b620005ef8254620003ab565b620005fc82828562000521565b600060209050601f8311600181146200063457600084156200061f578287015190505b6200062b85826200059e565b8655506200069b565b601f1984166200064486620003e0565b60005b828110156200066e5784890151825560018201915060208501945060208101905062000647565b868310156200068e57848901516200068a601f8916826200057e565b8355505b6001600288020188555050505b505050505050565b6141ed80620006b36000396000f3fe608060405234801561001057600080fd5b50600436106101735760003560e01c80636352211e116100de578063b88d4fde11610097578063c92243d811610071578063c92243d81461046e578063d0def5211461049e578063e985e9c5146104ba578063f2fde38b146104ea57610173565b8063b88d4fde146103f2578063b97d91551461040e578063c87b56dd1461043e57610173565b80636352211e1461033057806370a0823114610360578063715018a6146103905780638da5cb5b1461039a57806395d89b41146103b8578063a22cb465146103d657610173565b806318160ddd1161013057806318160ddd1461025e5780631ba635021461027c57806323b872dd146102985780632f745c59146102b457806342842e0e146102e45780634f6ccce71461030057610173565b806301ffc9a71461017857806304711ae8146101a85780630489b56f146101c457806306fdde03146101f4578063081812fc14610212578063095ea7b314610242575b600080fd5b610192600480360381019061018d919061289b565b610506565b60405161019f91906128e3565b60405180910390f35b6101c260048036038101906101bd919061295c565b610580565b005b6101de60048036038101906101d991906129bf565b6105e9565b6040516101eb9190612a63565b60405180910390f35b6101fc61065b565b6040516102099190612b0e565b60405180910390f35b61022c600480360381019061022791906129bf565b6106ed565b6040516102399190612b3f565b60405180910390f35b61025c60048036038101906102579190612b5a565b610733565b005b61026661084a565b6040516102739190612ba9565b60405180910390f35b61029660048036038101906102919190612bc4565b610857565b005b6102b260048036038101906102ad9190612c04565b610900565b005b6102ce60048036038101906102c99190612b5a565b610960565b6040516102db9190612ba9565b60405180910390f35b6102fe60048036038101906102f99190612c04565b610a05565b005b61031a600480360381019061031591906129bf565b610a25565b6040516103279190612ba9565b60405180910390f35b61034a600480360381019061034591906129bf565b610a96565b6040516103579190612b3f565b60405180910390f35b61037a6004803603810190610375919061295c565b610b1c565b6040516103879190612ba9565b60405180910390f35b610398610bd3565b005b6103a2610be7565b6040516103af9190612b3f565b60405180910390f35b6103c0610c11565b6040516103cd9190612b0e565b60405180910390f35b6103f060048036038101906103eb9190612c83565b610ca3565b005b61040c60048036038101906104079190612df8565b610cb9565b005b6104286004803603810190610423919061295c565b610d1b565b6040516104359190612ba9565b60405180910390f35b610458600480360381019061045391906129bf565b610dfa565b6040516104659190612b0e565b60405180910390f35b610488600480360381019061048391906129bf565b610eb1565b60405161049591906128e3565b60405180910390f35b6104b860048036038101906104b39190612edb565b610ef8565b005b6104d460048036038101906104cf9190612f3b565b6110bc565b6040516104e191906128e3565b60405180910390f35b61050460048036038101906104ff919061295c565b611150565b005b60007f780e9d63000000000000000000000000000000000000000000000000000000007bffffffffffffffffffffffffffffffffffffffffffffffffffffffff1916827bffffffffffffffffffffffffffffffffffffffffffffffffffffffff191614806105795750610578826111d3565b5b9050919050565b6105886112b5565b600061059382610d1b565b905061059e81611333565b6000600c600083815260200190815260200160002080546105be90612faa565b9050146105e557600c600082815260200190815260200160002060006105e491906127d2565b5b5050565b60006105f482611670565b610633576040517f08c379a000000000000000000000000000000000000000000000000000000000815260040161062a9061304d565b60405180910390fd5b600b600083815260200190815260200160002060009054906101000a900460ff169050919050565b60606000805461066a90612faa565b80601f016020809104026020016040519081016040528092919081815260200182805461069690612faa565b80156106e35780601f106106b8576101008083540402835291602001916106e3565b820191906000526020600020905b8154815290600101906020018083116106c657829003601f168201915b5050505050905090565b60006106f8826116b1565b6004600083815260200190815260200160002060009054906101000a900473ffffffffffffffffffffffffffffffffffffffff169050919050565b600061073e82610a96565b90508073ffffffffffffffffffffffffffffffffffffffff168373ffffffffffffffffffffffffffffffffffffffff16036107ae576040517f08c379a00000000000000000000000000000000000000000000000000000000081526004016107a5906130df565b60405180910390fd5b8073ffffffffffffffffffffffffffffffffffffffff166107cd6116fc565b73ffffffffffffffffffffffffffffffffffffffff1614806107fc57506107fb816107f66116fc565b6110bc565b5b61083b576040517f08c379a000000000000000000000000000000000000000000000000000000000815260040161083290613171565b60405180910390fd5b6108458383611704565b505050565b6000600880549050905090565b61085f6112b5565b610868826116b1565b428110156108ab576040517f08c379a00000000000000000000000000000000000000000000000000000000081526004016108a290613203565b60405180910390fd5b80600d6000848152602001908152602001600020819055507f52767825acc7341e2660d222b20ba1359d0b47fed9b395535e2659656e74193182826040516108f4929190613223565b60405180910390a15050565b61091161090b6116fc565b826117bd565b610950576040517f08c379a0000000000000000000000000000000000000000000000000000000008152600401610947906132be565b60405180910390fd5b61095b838383611852565b505050565b600061096b83610b1c565b82106109ac576040517f08c379a00000000000000000000000000000000000000000000000000000000081526004016109a390613350565b60405180910390fd5b600660008473ffffffffffffffffffffffffffffffffffffffff1673ffffffffffffffffffffffffffffffffffffffff168152602001908152602001600020600083815260200190815260200160002054905092915050565b610a2083838360405180602001604052806000815250610cb9565b505050565b6000610a2f61084a565b8210610a70576040517f08c379a0000000000000000000000000000000000000000000000000000000008152600401610a67906133e2565b60405180910390fd5b60088281548110610a8457610a83613402565b5b90600052602060002001549050919050565b600080610aa28361188d565b9050600073ffffffffffffffffffffffffffffffffffffffff168173ffffffffffffffffffffffffffffffffffffffff1603610b13576040517f08c379a0000000000000000000000000000000000000000000000000000000008152600401610b0a9061347d565b60405180910390fd5b80915050919050565b60008073ffffffffffffffffffffffffffffffffffffffff168273ffffffffffffffffffffffffffffffffffffffff1603610b8c576040517f08c379a0000000000000000000000000000000000000000000000000000000008152600401610b839061350f565b60405180910390fd5b600360008373ffffffffffffffffffffffffffffffffffffffff1673ffffffffffffffffffffffffffffffffffffffff168152602001908152602001600020549050919050565b610bdb6112b5565b610be560006118ca565b565b6000600a60009054906101000a900473ffffffffffffffffffffffffffffffffffffffff16905090565b606060018054610c2090612faa565b80601f0160208091040260200160405190810160405280929190818152602001828054610c4c90612faa565b8015610c995780601f10610c6e57610100808354040283529160200191610c99565b820191906000526020600020905b815481529060010190602001808311610c7c57829003601f168201915b5050505050905090565b610cb5610cae6116fc565b8383611990565b5050565b610cca610cc46116fc565b836117bd565b610d09576040517f08c379a0000000000000000000000000000000000000000000000000000000008152600401610d00906132be565b60405180910390fd5b610d1584848484611afc565b50505050565b60003073ffffffffffffffffffffffffffffffffffffffff166370a08231836040518263ffffffff1660e01b8152600401610d569190612b3f565b602060405180830381865afa158015610d73573d6000803e3d6000fd5b505050506040513d601f19601f82011682018060405250810190610d979190613544565b600010610dd9576040517f08c379a0000000000000000000000000000000000000000000000000000000008152600401610dd0906135e3565b60405180910390fd5b6000610de6836000610960565b9050610df1816116b1565b80915050919050565b6060610e0582611670565b610e0e57600080fd5b600c60008381526020019081526020016000208054610e2c90612faa565b80601f0160208091040260200160405190810160405280929190818152602001828054610e5890612faa565b8015610ea55780601f10610e7a57610100808354040283529160200191610ea5565b820191906000526020600020905b815481529060010190602001808311610e8857829003601f168201915b50505050509050919050565b6000610ebc826116b1565b6000600d6000848152602001908152602001600020541480610ef1575042600d60008481526020019081526020016000205410155b9050919050565b610f006112b5565b6000610f0b84610b1c565b14610f4b576040517f08c379a0000000000000000000000000000000000000000000000000000000008152600401610f4290613675565b60405180910390fd5b600060013073ffffffffffffffffffffffffffffffffffffffff166318160ddd6040518163ffffffff1660e01b8152600401602060405180830381865afa158015610f9a573d6000803e3d6000fd5b505050506040513d601f19601f82011682018060405250810190610fbe9190613544565b610fc891906136c4565b9050610fd684826002611b58565b610fdf81611670565b61101e576040517f08c379a00000000000000000000000000000000000000000000000000000000081526004016110159061376a565b60405180910390fd5b61106c8184848080601f016020809104026020016040519081016040528093929190818152602001838380828437600081840152601f19601f82011690508083019250505050505050611b78565b7fa22bf9c97dde6fadc0c06873f9a4a3f2f9d592a1973a74c3bb6f7f1746efa087848260405161109d92919061378a565b60405180910390a16110b66110b0610be7565b82611704565b50505050565b6000600560008473ffffffffffffffffffffffffffffffffffffffff1673ffffffffffffffffffffffffffffffffffffffff16815260200190815260200160002060008373ffffffffffffffffffffffffffffffffffffffff1673ffffffffffffffffffffffffffffffffffffffff16815260200190815260200160002060009054906101000a900460ff16905092915050565b6111586112b5565b600073ffffffffffffffffffffffffffffffffffffffff168173ffffffffffffffffffffffffffffffffffffffff16036111c7576040517f08c379a00000000000000000000000000000000000000000000000000000000081526004016111be90613825565b60405180910390fd5b6111d0816118ca565b50565b60007f80ac58cd000000000000000000000000000000000000000000000000000000007bffffffffffffffffffffffffffffffffffffffffffffffffffffffff1916827bffffffffffffffffffffffffffffffffffffffffffffffffffffffff1916148061129e57507f5b5e139f000000000000000000000000000000000000000000000000000000007bffffffffffffffffffffffffffffffffffffffffffffffffffffffff1916827bffffffffffffffffffffffffffffffffffffffffffffffffffffffff1916145b806112ae57506112ad82611baf565b5b9050919050565b6112bd6116fc565b73ffffffffffffffffffffffffffffffffffffffff166112db610be7565b73ffffffffffffffffffffffffffffffffffffffff1614611331576040517f08c379a000000000000000000000000000000000000000000000000000000000815260040161132890613891565b60405180910390fd5b565b600380811115611346576113456129ec565b5b600b600083815260200190815260200160002060009054906101000a900460ff166003811115611379576113786129ec565b5b036113b9576040517f08c379a00000000000000000000000000000000000000000000000000000000081526004016113b0906138fd565b60405180910390fd5b600060038111156113cd576113cc6129ec565b5b600b600083815260200190815260200160002060009054906101000a900460ff166003811115611400576113ff6129ec565b5b036114865761140d6116fc565b73ffffffffffffffffffffffffffffffffffffffff1661142b610be7565b73ffffffffffffffffffffffffffffffffffffffff1614611481576040517f08c379a00000000000000000000000000000000000000000000000000000000081526004016114789061398f565b60405180910390fd5b611664565b6001600381111561149a576114996129ec565b5b600b600083815260200190815260200160002060009054906101000a900460ff1660038111156114cd576114cc6129ec565b5b03611554576114da6116fc565b73ffffffffffffffffffffffffffffffffffffffff166114f98261188d565b73ffffffffffffffffffffffffffffffffffffffff161461154f576040517f08c379a000000000000000000000000000000000000000000000000000000000815260040161154690613a21565b60405180910390fd5b611663565b60026003811115611568576115676129ec565b5b600b600083815260200190815260200160002060009054906101000a900460ff16600381111561159b5761159a6129ec565b5b03611662576115a86116fc565b73ffffffffffffffffffffffffffffffffffffffff166115c78261188d565b73ffffffffffffffffffffffffffffffffffffffff16148061162257506115ec6116fc565b73ffffffffffffffffffffffffffffffffffffffff1661160a610be7565b73ffffffffffffffffffffffffffffffffffffffff16145b611661576040517f08c379a000000000000000000000000000000000000000000000000000000000815260040161165890613ad9565b60405180910390fd5b5b5b5b61166d81611c19565b50565b60008073ffffffffffffffffffffffffffffffffffffffff166116928361188d565b73ffffffffffffffffffffffffffffffffffffffff1614159050919050565b6116ba81611670565b6116f9576040517f08c379a00000000000000000000000000000000000000000000000000000000081526004016116f09061347d565b60405180910390fd5b50565b600033905090565b816004600083815260200190815260200160002060006101000a81548173ffffffffffffffffffffffffffffffffffffffff021916908373ffffffffffffffffffffffffffffffffffffffff160217905550808273ffffffffffffffffffffffffffffffffffffffff1661177783610a96565b73ffffffffffffffffffffffffffffffffffffffff167f8c5be1e5ebec7d5bd14f71427d1e84f3dd0314c0f7b2291e5b200ac8c7c3b92560405160405180910390a45050565b6000806117c983610a96565b90508073ffffffffffffffffffffffffffffffffffffffff168473ffffffffffffffffffffffffffffffffffffffff16148061180b575061180a81856110bc565b5b8061184957508373ffffffffffffffffffffffffffffffffffffffff16611831846106ed565b73ffffffffffffffffffffffffffffffffffffffff16145b91505092915050565b6040517f08c379a000000000000000000000000000000000000000000000000000000000815260040161188490613b6b565b60405180910390fd5b60006002600083815260200190815260200160002060009054906101000a900473ffffffffffffffffffffffffffffffffffffffff169050919050565b6000600a60009054906101000a900473ffffffffffffffffffffffffffffffffffffffff16905081600a60006101000a81548173ffffffffffffffffffffffffffffffffffffffff021916908373ffffffffffffffffffffffffffffffffffffffff1602179055508173ffffffffffffffffffffffffffffffffffffffff168173ffffffffffffffffffffffffffffffffffffffff167f8be0079c531659141344cd1fd0a4f28419497f9722a3daafe3b4186f6b6457e060405160405180910390a35050565b8173ffffffffffffffffffffffffffffffffffffffff168373ffffffffffffffffffffffffffffffffffffffff16036119fe576040517f08c379a00000000000000000000000000000000000000000000000000000000081526004016119f590613bd7565b60405180910390fd5b80600560008573ffffffffffffffffffffffffffffffffffffffff1673ffffffffffffffffffffffffffffffffffffffff16815260200190815260200160002060008473ffffffffffffffffffffffffffffffffffffffff1673ffffffffffffffffffffffffffffffffffffffff16815260200190815260200160002060006101000a81548160ff0219169083151502179055508173ffffffffffffffffffffffffffffffffffffffff168373ffffffffffffffffffffffffffffffffffffffff167f17307eab39ab6107e8899845ad3d59bd9653f200f220920489ca2b5937696c3183604051611aef91906128e3565b60405180910390a3505050565b611b07848484611852565b611b1384848484611d67565b611b52576040517f08c379a0000000000000000000000000000000000000000000000000000000008152600401611b4990613c69565b60405180910390fd5b50505050565b611b7383838360405180602001604052806000815250611eee565b505050565b611b8182611670565b611b8a57600080fd5b80600c60008481526020019081526020016000209081611baa9190613e35565b505050565b60007f01ffc9a7000000000000000000000000000000000000000000000000000000007bffffffffffffffffffffffffffffffffffffffffffffffffffffffff1916827bffffffffffffffffffffffffffffffffffffffffffffffffffffffff1916149050919050565b6000611c2482610a96565b9050611c34816000846001611fa7565b611c3d82610a96565b90506004600083815260200190815260200160002060006101000a81549073ffffffffffffffffffffffffffffffffffffffff02191690556001600360008373ffffffffffffffffffffffffffffffffffffffff1673ffffffffffffffffffffffffffffffffffffffff168152602001908152602001600020600082825403925050819055506002600083815260200190815260200160002060006101000a81549073ffffffffffffffffffffffffffffffffffffffff021916905581600073ffffffffffffffffffffffffffffffffffffffff168273ffffffffffffffffffffffffffffffffffffffff167fddf252ad1be2c89b69c2b068fc378daa952ba7f163c4a11628f55a4df523b3ef60405160405180910390a4611d63816000846001612105565b5050565b6000611d888473ffffffffffffffffffffffffffffffffffffffff1661210b565b15611ee1578373ffffffffffffffffffffffffffffffffffffffff1663150b7a02611db16116fc565b8786866040518563ffffffff1660e01b8152600401611dd39493929190613f5c565b6020604051808303816000875af1925050508015611e0f57506040513d601f19601f82011682018060405250810190611e0c9190613fbd565b60015b611e91573d8060008114611e3f576040519150601f19603f3d011682016040523d82523d6000602084013e611e44565b606091505b506000815103611e89576040517f08c379a0000000000000000000000000000000000000000000000000000000008152600401611e8090613c69565b60405180910390fd5b805181602001fd5b63150b7a0260e01b7bffffffffffffffffffffffffffffffffffffffffffffffffffffffff1916817bffffffffffffffffffffffffffffffffffffffffffffffffffffffff191614915050611ee6565b600190505b949350505050565b81600b600085815260200190815260200160002060006101000a81548160ff02191690836003811115611f2457611f236129ec565b5b0217905550611f3484848361212e565b828473ffffffffffffffffffffffffffffffffffffffff16611f546116fc565b73ffffffffffffffffffffffffffffffffffffffff167f135ffb3383e06280e062ac5095bbf8faa98517161e596a2536bd98a9a8b64a8885604051611f999190612a63565b60405180910390a450505050565b611fb384848484612189565b6001811115611ff7576040517f08c379a0000000000000000000000000000000000000000000000000000000008152600401611fee9061405c565b60405180910390fd5b6000829050600073ffffffffffffffffffffffffffffffffffffffff168573ffffffffffffffffffffffffffffffffffffffff160361203e57612039816122af565b61207d565b8373ffffffffffffffffffffffffffffffffffffffff168573ffffffffffffffffffffffffffffffffffffffff161461207c5761207b85826122f8565b5b5b600073ffffffffffffffffffffffffffffffffffffffff168473ffffffffffffffffffffffffffffffffffffffff16036120bf576120ba81612465565b6120fe565b8473ffffffffffffffffffffffffffffffffffffffff168473ffffffffffffffffffffffffffffffffffffffff16146120fd576120fc8482612536565b5b5b5050505050565b50505050565b6000808273ffffffffffffffffffffffffffffffffffffffff163b119050919050565b61213883836125b5565b6121456000848484611d67565b612184576040517f08c379a000000000000000000000000000000000000000000000000000000000815260040161217b90613c69565b60405180910390fd5b505050565b60018111156122a957600073ffffffffffffffffffffffffffffffffffffffff168473ffffffffffffffffffffffffffffffffffffffff161461221d5780600360008673ffffffffffffffffffffffffffffffffffffffff1673ffffffffffffffffffffffffffffffffffffffff1681526020019081526020016000206000828254612215919061407c565b925050819055505b600073ffffffffffffffffffffffffffffffffffffffff168373ffffffffffffffffffffffffffffffffffffffff16146122a85780600360008573ffffffffffffffffffffffffffffffffffffffff1673ffffffffffffffffffffffffffffffffffffffff16815260200190815260200160002060008282546122a091906136c4565b925050819055505b5b50505050565b6008805490506009600083815260200190815260200160002081905550600881908060018154018082558091505060019003906000526020600020016000909190919091505550565b6000600161230584610b1c565b61230f919061407c565b90506000600760008481526020019081526020016000205490508181146123f4576000600660008673ffffffffffffffffffffffffffffffffffffffff1673ffffffffffffffffffffffffffffffffffffffff168152602001908152602001600020600084815260200190815260200160002054905080600660008773ffffffffffffffffffffffffffffffffffffffff1673ffffffffffffffffffffffffffffffffffffffff168152602001908152602001600020600084815260200190815260200160002081905550816007600083815260200190815260200160002081905550505b6007600084815260200190815260200160002060009055600660008573ffffffffffffffffffffffffffffffffffffffff1673ffffffffffffffffffffffffffffffffffffffff16815260200190815260200160002060008381526020019081526020016000206000905550505050565b60006001600880549050612479919061407c565b90506000600960008481526020019081526020016000205490506000600883815481106124a9576124a8613402565b5b9060005260206000200154905080600883815481106124cb576124ca613402565b5b90600052602060002001819055508160096000838152602001908152602001600020819055506009600085815260200190815260200160002060009055600880548061251a576125196140b0565b5b6001900381819060005260206000200160009055905550505050565b600061254183610b1c565b905081600660008573ffffffffffffffffffffffffffffffffffffffff1673ffffffffffffffffffffffffffffffffffffffff168152602001908152602001600020600083815260200190815260200160002081905550806007600084815260200190815260200160002081905550505050565b600073ffffffffffffffffffffffffffffffffffffffff168273ffffffffffffffffffffffffffffffffffffffff1603612624576040517f08c379a000000000000000000000000000000000000000000000000000000000815260040161261b9061412b565b60405180910390fd5b61262d81611670565b1561266d576040517f08c379a000000000000000000000000000000000000000000000000000000000815260040161266490614197565b60405180910390fd5b61267b600083836001611fa7565b61268481611670565b156126c4576040517f08c379a00000000000000000000000000000000000000000000000000000000081526004016126bb90614197565b60405180910390fd5b6001600360008473ffffffffffffffffffffffffffffffffffffffff1673ffffffffffffffffffffffffffffffffffffffff16815260200190815260200160002060008282540192505081905550816002600083815260200190815260200160002060006101000a81548173ffffffffffffffffffffffffffffffffffffffff021916908373ffffffffffffffffffffffffffffffffffffffff160217905550808273ffffffffffffffffffffffffffffffffffffffff16600073ffffffffffffffffffffffffffffffffffffffff167fddf252ad1be2c89b69c2b068fc378daa952ba7f163c4a11628f55a4df523b3ef60405160405180910390a46127ce600083836001612105565b5050565b5080546127de90612faa565b6000825580601f106127f0575061280f565b601f01602090049060005260206000209081019061280e9190612812565b5b50565b5b8082111561282b576000816000905550600101612813565b5090565b6000604051905090565b600080fd5b600080fd5b60007fffffffff0000000000000000000000000000000000000000000000000000000082169050919050565b61287881612843565b811461288357600080fd5b50565b6000813590506128958161286f565b92915050565b6000602082840312156128b1576128b0612839565b5b60006128bf84828501612886565b91505092915050565b60008115159050919050565b6128dd816128c8565b82525050565b60006020820190506128f860008301846128d4565b92915050565b600073ffffffffffffffffffffffffffffffffffffffff82169050919050565b6000612929826128fe565b9050919050565b6129398161291e565b811461294457600080fd5b50565b60008135905061295681612930565b92915050565b60006020828403121561297257612971612839565b5b600061298084828501612947565b91505092915050565b6000819050919050565b61299c81612989565b81146129a757600080fd5b50565b6000813590506129b981612993565b92915050565b6000602082840312156129d5576129d4612839565b5b60006129e3848285016129aa565b91505092915050565b7f4e487b7100000000000000000000000000000000000000000000000000000000600052602160045260246000fd5b60048110612a2c57612a2b6129ec565b5b50565b6000819050612a3d82612a1b565b919050565b6000612a4d82612a2f565b9050919050565b612a5d81612a42565b82525050565b6000602082019050612a786000830184612a54565b92915050565b600081519050919050565b600082825260208201905092915050565b60005b83811015612ab8578082015181840152602081019050612a9d565b60008484015250505050565b6000601f19601f8301169050919050565b6000612ae082612a7e565b612aea8185612a89565b9350612afa818560208601612a9a565b612b0381612ac4565b840191505092915050565b60006020820190508181036000830152612b288184612ad5565b905092915050565b612b398161291e565b82525050565b6000602082019050612b546000830184612b30565b92915050565b60008060408385031215612b7157612b70612839565b5b6000612b7f85828601612947565b9250506020612b90858286016129aa565b9150509250929050565b612ba381612989565b82525050565b6000602082019050612bbe6000830184612b9a565b92915050565b60008060408385031215612bdb57612bda612839565b5b6000612be9858286016129aa565b9250506020612bfa858286016129aa565b9150509250929050565b600080600060608486031215612c1d57612c1c612839565b5b6000612c2b86828701612947565b9350506020612c3c86828701612947565b9250506040612c4d868287016129aa565b9150509250925092565b612c60816128c8565b8114612c6b57600080fd5b50565b600081359050612c7d81612c57565b92915050565b60008060408385031215612c9a57612c99612839565b5b6000612ca885828601612947565b9250506020612cb985828601612c6e565b9150509250929050565b600080fd5b600080fd5b7f4e487b7100000000000000000000000000000000000000000000000000000000600052604160045260246000fd5b612d0582612ac4565b810181811067ffffffffffffffff82111715612d2457612d23612ccd565b5b80604052505050565b6000612d3761282f565b9050612d438282612cfc565b919050565b600067ffffffffffffffff821115612d6357612d62612ccd565b5b612d6c82612ac4565b9050602081019050919050565b82818337600083830152505050565b6000612d9b612d9684612d48565b612d2d565b905082815260208101848484011115612db757612db6612cc8565b5b612dc2848285612d79565b509392505050565b600082601f830112612ddf57612dde612cc3565b5b8135612def848260208601612d88565b91505092915050565b60008060008060808587031215612e1257612e11612839565b5b6000612e2087828801612947565b9450506020612e3187828801612947565b9350506040612e42878288016129aa565b925050606085013567ffffffffffffffff811115612e6357612e6261283e565b5b612e6f87828801612dca565b91505092959194509250565b600080fd5b600080fd5b60008083601f840112612e9b57612e9a612cc3565b5b8235905067ffffffffffffffff811115612eb857612eb7612e7b565b5b602083019150836001820283011115612ed457612ed3612e80565b5b9250929050565b600080600060408486031215612ef457612ef3612839565b5b6000612f0286828701612947565b935050602084013567ffffffffffffffff811115612f2357612f2261283e565b5b612f2f86828701612e85565b92509250509250925092565b60008060408385031215612f5257612f51612839565b5b6000612f6085828601612947565b9250506020612f7185828601612947565b9150509250929050565b7f4e487b7100000000000000000000000000000000000000000000000000000000600052602260045260246000fd5b60006002820490506001821680612fc257607f821691505b602082108103612fd557612fd4612f7b565b5b50919050565b7f456d706c6f796565436172643a20746f6b656e20646f6573206e6f742065786960008201527f7374000000000000000000000000000000000000000000000000000000000000602082015250565b6000613037602283612a89565b915061304282612fdb565b604082019050919050565b600060208201905081810360008301526130668161302a565b9050919050565b7f4552433732313a20617070726f76616c20746f2063757272656e74206f776e6560008201527f7200000000000000000000000000000000000000000000000000000000000000602082015250565b60006130c9602183612a89565b91506130d48261306d565b604082019050919050565b600060208201905081810360008301526130f8816130bc565b9050919050565b7f4552433732313a20617070726f76652063616c6c6572206973206e6f7420746f60008201527f6b656e206f776e6572206f7220617070726f76656420666f7220616c6c000000602082015250565b600061315b603d83612a89565b9150613166826130ff565b604082019050919050565b6000602082019050818103600083015261318a8161314e565b9050919050565b7f456d706c6f796565436172643a20796f75206d7573742073706563696679206160008201527f20656e642074696d6520696e2074686520667574757265000000000000000000602082015250565b60006131ed603783612a89565b91506131f882613191565b604082019050919050565b6000602082019050818103600083015261321c816131e0565b9050919050565b60006040820190506132386000830185612b9a565b6132456020830184612b9a565b9392505050565b7f4552433732313a2063616c6c6572206973206e6f7420746f6b656e206f776e6560008201527f72206f7220617070726f76656400000000000000000000000000000000000000602082015250565b60006132a8602d83612a89565b91506132b38261324c565b604082019050919050565b600060208201905081810360008301526132d78161329b565b9050919050565b7f455243373231456e756d657261626c653a206f776e657220696e646578206f7560008201527f74206f6620626f756e6473000000000000000000000000000000000000000000602082015250565b600061333a602b83612a89565b9150613345826132de565b604082019050919050565b600060208201905081810360008301526133698161332d565b9050919050565b7f455243373231456e756d657261626c653a20676c6f62616c20696e646578206f60008201527f7574206f6620626f756e64730000000000000000000000000000000000000000602082015250565b60006133cc602c83612a89565b91506133d782613370565b604082019050919050565b600060208201905081810360008301526133fb816133bf565b9050919050565b7f4e487b7100000000000000000000000000000000000000000000000000000000600052603260045260246000fd5b7f4552433732313a20696e76616c696420746f6b656e2049440000000000000000600082015250565b6000613467601883612a89565b915061347282613431565b602082019050919050565b600060208201905081810360008301526134968161345a565b9050919050565b7f4552433732313a2061646472657373207a65726f206973206e6f74206120766160008201527f6c6964206f776e65720000000000000000000000000000000000000000000000602082015250565b60006134f9602983612a89565b91506135048261349d565b604082019050919050565b60006020820190508181036000830152613528816134ec565b9050919050565b60008151905061353e81612993565b92915050565b60006020828403121561355a57613559612839565b5b60006135688482850161352f565b91505092915050565b7f456d706c6f796565436172643a2054686973206164647265737320646f65736e60008201527f2774206861766520616e7920656d706c6f79656520636172642e000000000000602082015250565b60006135cd603a83612a89565b91506135d882613571565b604082019050919050565b600060208201905081810360008301526135fc816135c0565b9050919050565b7f416e20656d706c6f7965652063616e206f6e6c792068617665203120746f6b6560008201527f6e00000000000000000000000000000000000000000000000000000000000000602082015250565b600061365f602183612a89565b915061366a82613603565b604082019050919050565b6000602082019050818103600083015261368e81613652565b9050919050565b7f4e487b7100000000000000000000000000000000000000000000000000000000600052601160045260246000fd5b60006136cf82612989565b91506136da83612989565b92508282019050808211156136f2576136f1613695565b5b92915050565b7f456d706c6f796565436172643a20746f6b656e2067656e65726174696f6e206660008201527f61696c6564000000000000000000000000000000000000000000000000000000602082015250565b6000613754602583612a89565b915061375f826136f8565b604082019050919050565b6000602082019050818103600083015261378381613747565b9050919050565b600060408201905061379f6000830185612b30565b6137ac6020830184612b9a565b9392505050565b7f4f776e61626c653a206e6577206f776e657220697320746865207a65726f206160008201527f6464726573730000000000000000000000000000000000000000000000000000602082015250565b600061380f602683612a89565b915061381a826137b3565b604082019050919050565b6000602082019050818103600083015261383e81613802565b9050919050565b7f4f776e61626c653a2063616c6c6572206973206e6f7420746865206f776e6572600082015250565b600061387b602083612a89565b915061388682613845565b602082019050919050565b600060208201905081810360008301526138aa8161386e565b9050919050565b7f45524320353438343a204275726e206973206e6f7420616c6c6f776564000000600082015250565b60006138e7601d83612a89565b91506138f2826138b1565b602082019050919050565b60006020820190508181036000830152613916816138da565b9050919050565b7f45524320353438343a204f6e6c792074686520697373756572206f662074686560008201527f20746f6b656e20697320616c6c6f77656420746f206275726e2e000000000000602082015250565b6000613979603a83612a89565b91506139848261391d565b604082019050919050565b600060208201905081810360008301526139a88161396c565b9050919050565b7f45524320353438343a204f6e6c7920746865206f776e6572206f66207468652060008201527f746f6b656e20697320616c6c6f77656420746f206275726e2e00000000000000602082015250565b6000613a0b603983612a89565b9150613a16826139af565b604082019050919050565b60006020820190508181036000830152613a3a816139fe565b9050919050565b7f45524320353438343a204f6e6c7920746865206f776e6572206f72207468652060008201527f697373756572206f662074686520746f6b656e2061726520616c6c6f7765642060208201527f746f206275726e2e000000000000000000000000000000000000000000000000604082015250565b6000613ac3604883612a89565b9150613ace82613a41565b606082019050919050565b60006020820190508181036000830152613af281613ab6565b9050919050565b7f45524320353438343a205472616e73666572206973206e6f7420616c6c6f776560008201527f6400000000000000000000000000000000000000000000000000000000000000602082015250565b6000613b55602183612a89565b9150613b6082613af9565b604082019050919050565b60006020820190508181036000830152613b8481613b48565b9050919050565b7f4552433732313a20617070726f766520746f2063616c6c657200000000000000600082015250565b6000613bc1601983612a89565b9150613bcc82613b8b565b602082019050919050565b60006020820190508181036000830152613bf081613bb4565b9050919050565b7f4552433732313a207472616e7366657220746f206e6f6e20455243373231526560008201527f63656976657220696d706c656d656e7465720000000000000000000000000000602082015250565b6000613c53603283612a89565b9150613c5e82613bf7565b604082019050919050565b60006020820190508181036000830152613c8281613c46565b9050919050565b60008190508160005260206000209050919050565b60006020601f8301049050919050565b600082821b905092915050565b600060088302613ceb7fffffffffffffffffffffffffffffffffffffffffffffffffffffffffffffffff82613cae565b613cf58683613cae565b95508019841693508086168417925050509392505050565b6000819050919050565b6000613d32613d2d613d2884612989565b613d0d565b612989565b9050919050565b6000819050919050565b613d4c83613d17565b613d60613d5882613d39565b848454613cbb565b825550505050565b600090565b613d75613d68565b613d80818484613d43565b505050565b5b81811015613da457613d99600082613d6d565b600181019050613d86565b5050565b601f821115613de957613dba81613c89565b613dc384613c9e565b81016020851015613dd2578190505b613de6613dde85613c9e565b830182613d85565b50505b505050565b600082821c905092915050565b6000613e0c60001984600802613dee565b1980831691505092915050565b6000613e258383613dfb565b9150826002028217905092915050565b613e3e82612a7e565b67ffffffffffffffff811115613e5757613e56612ccd565b5b613e618254612faa565b613e6c828285613da8565b600060209050601f831160018114613e9f5760008415613e8d578287015190505b613e978582613e19565b865550613eff565b601f198416613ead86613c89565b60005b82811015613ed557848901518255600182019150602085019450602081019050613eb0565b86831015613ef25784890151613eee601f891682613dfb565b8355505b6001600288020188555050505b505050505050565b600081519050919050565b600082825260208201905092915050565b6000613f2e82613f07565b613f388185613f12565b9350613f48818560208601612a9a565b613f5181612ac4565b840191505092915050565b6000608082019050613f716000830187612b30565b613f7e6020830186612b30565b613f8b6040830185612b9a565b8181036060830152613f9d8184613f23565b905095945050505050565b600081519050613fb78161286f565b92915050565b600060208284031215613fd357613fd2612839565b5b6000613fe184828501613fa8565b91505092915050565b7f455243373231456e756d657261626c653a20636f6e736563757469766520747260008201527f616e7366657273206e6f7420737570706f727465640000000000000000000000602082015250565b6000614046603583612a89565b915061405182613fea565b604082019050919050565b6000602082019050818103600083015261407581614039565b9050919050565b600061408782612989565b915061409283612989565b92508282039050818111156140aa576140a9613695565b5b92915050565b7f4e487b7100000000000000000000000000000000000000000000000000000000600052603160045260246000fd5b7f4552433732313a206d696e7420746f20746865207a65726f2061646472657373600082015250565b6000614115602083612a89565b9150614120826140df565b602082019050919050565b6000602082019050818103600083015261414481614108565b9050919050565b7f4552433732313a20746f6b656e20616c7265616479206d696e74656400000000600082015250565b6000614181601c83612a89565b915061418c8261414b565b602082019050919050565b600060208201905081810360008301526141b081614174565b905091905056fea264697066735822122031b07bf82783f1054783f0832dab4f9361ebbc708c655f1ba156327c8923ad4b64736f6c63430008110033",
  "devdoc": {
    "author": "Bertrand Presles",
    "kind": "dev",
    "methods": {
      "approve(address,uint256)": {
        "details": "See {IERC721-approve}."
      },
      "balanceOf(address)": {
        "details": "See {IERC721-balanceOf}."
      },
      "burnAuth(uint256)": {
        "params": {
          "tokenId": "The token Id."
        },
        "returns": {
          "_0": "BurnAuth The burn policy for the token."
        }
      },
      "burnCard(address)": {
        "params": {
          "employee": "Current holder of the card."
        }
      },
      "getApproved(uint256)": {
        "details": "See {IERC721-getApproved}."
      },
      "getEmployeeCardId(address)": {
        "params": {
          "employee": "Employee address."
        },
        "returns": {
          "_0": "The employee card id."
        }
      },
      "invalidateEmployeeCard(uint256,uint256)": {
        "details": "Saves the end date (in unix timestamp format) in _tokenEndTimes mapping.",
        "params": {
          "tokenId": "The token id to invalidate."
        }
      },
      "isApprovedForAll(address,address)": {
        "details": "See {IERC721-isApprovedForAll}."
      },
      "isTokenValid(uint256)": {
        "details": "A valid token is a token without end time set",
        "returns": {
          "_0": "True is it's still valid, false otherwise."
        }
      },
      "mint(address,string)": {
        "params": {
          "_recipient": "Recipient address.",
          "_tokenURI": "The token URI. emit EmployeeCardMinted event when card is minted."
        }
      },
      "name()": {
        "details": "See {IERC721Metadata-name}."
      },
      "owner()": {
        "details": "Returns the address of the current owner."
      },
      "ownerOf(uint256)": {
        "details": "See {IERC721-ownerOf}."
      },
      "renounceOwnership()": {
        "details": "Leaves the contract without owner. It will not be possible to call `onlyOwner` functions anymore. Can only be called by the current owner. NOTE: Renouncing ownership will leave the contract without an owner, thereby removing any functionality that is only available to the owner."
      },
      "safeTransferFrom(address,address,uint256)": {
        "details": "See {IERC721-safeTransferFrom}."
      },
      "safeTransferFrom(address,address,uint256,bytes)": {
        "details": "See {IERC721-safeTransferFrom}."
      },
      "setApprovalForAll(address,bool)": {
        "details": "See {IERC721-setApprovalForAll}."
      },
      "supportsInterface(bytes4)": {
        "details": "See {IERC165-supportsInterface}."
      },
      "symbol()": {
        "details": "See {IERC721Metadata-symbol}."
      },
      "tokenByIndex(uint256)": {
        "details": "See {IERC721Enumerable-tokenByIndex}."
      },
      "tokenOfOwnerByIndex(address,uint256)": {
        "details": "See {IERC721Enumerable-tokenOfOwnerByIndex}."
      },
      "tokenURI(uint256)": {
        "details": "Returns an URI for a given token ID. Revert if the token ID does not exist. May return an empty string.",
        "params": {
          "tokenId": "uint256 ID of the token to query"
        },
        "returns": {
          "_0": "The token URI "
        }
      },
      "totalSupply()": {
        "details": "See {IERC721Enumerable-totalSupply}."
      },
      "transferFrom(address,address,uint256)": {
        "details": "See {IERC721-transferFrom}."
      },
      "transferOwnership(address)": {
        "details": "Transfers ownership of the contract to a new account (`newOwner`). Can only be called by the current owner."
      }
    },
    "title": "An SBT for professionnal decentralized identity and proof of experience.",
    "version": 1
  },
  "userdoc": {
    "events": {
      "Issued(address,address,uint256,uint8)": {
        "notice": "Emitted when a soulbound token is issued."
      }
    },
    "kind": "user",
    "methods": {
      "burnAuth(uint256)": {
        "notice": "Gets the burn authorization information for this token."
      },
      "burnCard(address)": {
        "notice": "Burns a card."
      },
      "getEmployeeCardId(address)": {
        "notice": "Gets the employee card id."
      },
      "invalidateEmployeeCard(uint256,uint256)": {
        "notice": "Invalidates an SBT token."
      },
      "isTokenValid(uint256)": {
        "notice": "Returns if the SBT is still valid."
      },
      "mint(address,string)": {
        "notice": "Mint a new employee card Consensual SBT token."
      },
      "tokenURI(uint256)": {
        "notice": "Gets the token URI for the passed token id."
      }
    },
    "notice": "You can use this contract to generate digital ids for your employees that can also be used as proof of their work in your company",
    "version": 1
  },
  "storageLayout": {
    "storage": [
      {
        "astId": 828,
        "contract": "contracts/identity/EmployeeCard.sol:EmployeeCard",
        "label": "_name",
        "offset": 0,
        "slot": "0",
        "type": "t_string_storage"
      },
      {
        "astId": 830,
        "contract": "contracts/identity/EmployeeCard.sol:EmployeeCard",
        "label": "_symbol",
        "offset": 0,
        "slot": "1",
        "type": "t_string_storage"
      },
      {
        "astId": 834,
        "contract": "contracts/identity/EmployeeCard.sol:EmployeeCard",
        "label": "_owners",
        "offset": 0,
        "slot": "2",
        "type": "t_mapping(t_uint256,t_address)"
      },
      {
        "astId": 838,
        "contract": "contracts/identity/EmployeeCard.sol:EmployeeCard",
        "label": "_balances",
        "offset": 0,
        "slot": "3",
        "type": "t_mapping(t_address,t_uint256)"
      },
      {
        "astId": 842,
        "contract": "contracts/identity/EmployeeCard.sol:EmployeeCard",
        "label": "_tokenApprovals",
        "offset": 0,
        "slot": "4",
        "type": "t_mapping(t_uint256,t_address)"
      },
      {
        "astId": 848,
        "contract": "contracts/identity/EmployeeCard.sol:EmployeeCard",
        "label": "_operatorApprovals",
        "offset": 0,
        "slot": "5",
        "type": "t_mapping(t_address,t_mapping(t_address,t_bool))"
      },
      {
        "astId": 1896,
        "contract": "contracts/identity/EmployeeCard.sol:EmployeeCard",
        "label": "_ownedTokens",
        "offset": 0,
        "slot": "6",
        "type": "t_mapping(t_address,t_mapping(t_uint256,t_uint256))"
      },
      {
        "astId": 1900,
        "contract": "contracts/identity/EmployeeCard.sol:EmployeeCard",
        "label": "_ownedTokensIndex",
        "offset": 0,
        "slot": "7",
        "type": "t_mapping(t_uint256,t_uint256)"
      },
      {
        "astId": 1903,
        "contract": "contracts/identity/EmployeeCard.sol:EmployeeCard",
        "label": "_allTokens",
        "offset": 0,
        "slot": "8",
        "type": "t_array(t_uint256)dyn_storage"
      },
      {
        "astId": 1907,
        "contract": "contracts/identity/EmployeeCard.sol:EmployeeCard",
        "label": "_allTokensIndex",
        "offset": 0,
        "slot": "9",
        "type": "t_mapping(t_uint256,t_uint256)"
      },
      {
        "astId": 7,
        "contract": "contracts/identity/EmployeeCard.sol:EmployeeCard",
        "label": "_owner",
        "offset": 0,
        "slot": "10",
        "type": "t_address"
      },
      {
        "astId": 4874,
        "contract": "contracts/identity/EmployeeCard.sol:EmployeeCard",
        "label": "burnAuths",
        "offset": 0,
        "slot": "11",
        "type": "t_mapping(t_uint256,t_enum(BurnAuth)5073)"
      },
      {
        "astId": 4582,
        "contract": "contracts/identity/EmployeeCard.sol:EmployeeCard",
        "label": "_tokenURIs",
        "offset": 0,
        "slot": "12",
        "type": "t_mapping(t_uint256,t_string_storage)"
      },
      {
        "astId": 4587,
        "contract": "contracts/identity/EmployeeCard.sol:EmployeeCard",
        "label": "_tokenEndTimes",
        "offset": 0,
        "slot": "13",
        "type": "t_mapping(t_uint256,t_uint256)"
      }
    ],
    "types": {
      "t_address": {
        "encoding": "inplace",
        "label": "address",
        "numberOfBytes": "20"
      },
      "t_array(t_uint256)dyn_storage": {
        "base": "t_uint256",
        "encoding": "dynamic_array",
        "label": "uint256[]",
        "numberOfBytes": "32"
      },
      "t_bool": {
        "encoding": "inplace",
        "label": "bool",
        "numberOfBytes": "1"
      },
      "t_enum(BurnAuth)5073": {
        "encoding": "inplace",
        "label": "enum IERC5484.BurnAuth",
        "numberOfBytes": "1"
      },
      "t_mapping(t_address,t_bool)": {
        "encoding": "mapping",
        "key": "t_address",
        "label": "mapping(address => bool)",
        "numberOfBytes": "32",
        "value": "t_bool"
      },
      "t_mapping(t_address,t_mapping(t_address,t_bool))": {
        "encoding": "mapping",
        "key": "t_address",
        "label": "mapping(address => mapping(address => bool))",
        "numberOfBytes": "32",
        "value": "t_mapping(t_address,t_bool)"
      },
      "t_mapping(t_address,t_mapping(t_uint256,t_uint256))": {
        "encoding": "mapping",
        "key": "t_address",
        "label": "mapping(address => mapping(uint256 => uint256))",
        "numberOfBytes": "32",
        "value": "t_mapping(t_uint256,t_uint256)"
      },
      "t_mapping(t_address,t_uint256)": {
        "encoding": "mapping",
        "key": "t_address",
        "label": "mapping(address => uint256)",
        "numberOfBytes": "32",
        "value": "t_uint256"
      },
      "t_mapping(t_uint256,t_address)": {
        "encoding": "mapping",
        "key": "t_uint256",
        "label": "mapping(uint256 => address)",
        "numberOfBytes": "32",
        "value": "t_address"
      },
      "t_mapping(t_uint256,t_enum(BurnAuth)5073)": {
        "encoding": "mapping",
        "key": "t_uint256",
        "label": "mapping(uint256 => enum IERC5484.BurnAuth)",
        "numberOfBytes": "32",
        "value": "t_enum(BurnAuth)5073"
      },
      "t_mapping(t_uint256,t_string_storage)": {
        "encoding": "mapping",
        "key": "t_uint256",
        "label": "mapping(uint256 => string)",
        "numberOfBytes": "32",
        "value": "t_string_storage"
      },
      "t_mapping(t_uint256,t_uint256)": {
        "encoding": "mapping",
        "key": "t_uint256",
        "label": "mapping(uint256 => uint256)",
        "numberOfBytes": "32",
        "value": "t_uint256"
      },
      "t_string_storage": {
        "encoding": "bytes",
        "label": "string",
        "numberOfBytes": "32"
      },
      "t_uint256": {
        "encoding": "inplace",
        "label": "uint256",
        "numberOfBytes": "32"
      }
    }
  }
}