{
  "address": "0xE7FfE20725328eE1fD3E761466D10C126432ef7d",
  "abi": [
    {
      "inputs": [
        {
          "internalType": "address",
          "name": "widContractAddress",
          "type": "address"
        },
        {
          "internalType": "address payable",
          "name": "sbtContractAddress",
          "type": "address"
        }
      ],
      "stateMutability": "nonpayable",
      "type": "constructor"
    },
    {
      "anonymous": false,
      "inputs": [
        {
          "indexed": true,
          "internalType": "address",
          "name": "previousOwner",
          "type": "address"
        },
        {
          "indexed": true,
          "internalType": "address",
          "name": "newOwner",
          "type": "address"
        }
      ],
      "name": "OwnershipTransferred",
      "type": "event"
    },
    {
      "anonymous": false,
      "inputs": [
        {
          "indexed": false,
          "internalType": "uint256",
          "name": "sessionId",
          "type": "uint256"
        }
      ],
      "name": "ProposalSessionRegistered",
      "type": "event"
    },
    {
      "anonymous": false,
      "inputs": [
        {
          "indexed": false,
          "internalType": "address",
          "name": "voter",
          "type": "address"
        },
        {
          "indexed": false,
          "internalType": "uint256",
          "name": "sessionId",
          "type": "uint256"
        },
        {
          "indexed": false,
          "internalType": "bool",
          "name": "vote",
          "type": "bool"
        },
        {
          "indexed": false,
          "internalType": "uint256",
          "name": "voices",
          "type": "uint256"
        }
      ],
      "name": "Voted",
      "type": "event"
    },
    {
      "anonymous": false,
      "inputs": [
        {
          "indexed": false,
          "internalType": "uint256",
          "name": "sessionId",
          "type": "uint256"
        }
      ],
      "name": "VotingSessionReinitialized",
      "type": "event"
    },
    {
      "inputs": [
        {
          "internalType": "string",
          "name": "_desc",
          "type": "string"
        },
        {
          "internalType": "uint256",
          "name": "_startDate",
          "type": "uint256"
        },
        {
          "internalType": "uint256",
          "name": "_endDate",
          "type": "uint256"
        }
      ],
      "name": "addProposal",
      "outputs": [],
      "stateMutability": "nonpayable",
      "type": "function"
    },
    {
      "inputs": [
        {
          "internalType": "uint256",
          "name": "_sessionId",
          "type": "uint256"
        }
      ],
      "name": "getOneProposalSession",
      "outputs": [
        {
          "components": [
            {
              "components": [
                {
                  "internalType": "string",
                  "name": "description",
                  "type": "string"
                },
                {
                  "internalType": "uint256",
                  "name": "voteCountYes",
                  "type": "uint256"
                },
                {
                  "internalType": "uint256",
                  "name": "voteCountNo",
                  "type": "uint256"
                }
              ],
              "internalType": "struct Governance.Proposal",
              "name": "proposal",
              "type": "tuple"
            },
            {
              "internalType": "uint256",
              "name": "startTime",
              "type": "uint256"
            },
            {
              "internalType": "uint256",
              "name": "endTime",
              "type": "uint256"
            }
          ],
          "internalType": "struct Governance.ProposalVotingSession",
          "name": "",
          "type": "tuple"
        }
      ],
      "stateMutability": "view",
      "type": "function"
    },
    {
      "inputs": [],
      "name": "getStackingContractAddress",
      "outputs": [
        {
          "internalType": "address",
          "name": "",
          "type": "address"
        }
      ],
      "stateMutability": "view",
      "type": "function"
    },
    {
      "inputs": [
        {
          "internalType": "uint256",
          "name": "votingSessionId",
          "type": "uint256"
        }
      ],
      "name": "getVoterStatus",
      "outputs": [
        {
          "internalType": "bool",
          "name": "",
          "type": "bool"
        }
      ],
      "stateMutability": "view",
      "type": "function"
    },
    {
      "inputs": [],
      "name": "getVotingPower",
      "outputs": [
        {
          "internalType": "uint256",
          "name": "",
          "type": "uint256"
        }
      ],
      "stateMutability": "view",
      "type": "function"
    },
    {
      "inputs": [
        {
          "internalType": "uint256",
          "name": "_votingSessionId",
          "type": "uint256"
        }
      ],
      "name": "getVotingSessionStatus",
      "outputs": [
        {
          "internalType": "enum Governance.VotingSessionStatus",
          "name": "",
          "type": "uint8"
        }
      ],
      "stateMutability": "view",
      "type": "function"
    },
    {
      "inputs": [],
      "name": "owner",
      "outputs": [
        {
          "internalType": "address",
          "name": "",
          "type": "address"
        }
      ],
      "stateMutability": "view",
      "type": "function"
    },
    {
      "inputs": [],
      "name": "renounceOwnership",
      "outputs": [],
      "stateMutability": "nonpayable",
      "type": "function"
    },
    {
      "inputs": [
        {
          "internalType": "uint256",
          "name": "_duration",
          "type": "uint256"
        },
        {
          "internalType": "uint256",
          "name": "_amount",
          "type": "uint256"
        }
      ],
      "name": "stackWID",
      "outputs": [],
      "stateMutability": "nonpayable",
      "type": "function"
    },
    {
      "inputs": [
        {
          "internalType": "address",
          "name": "newOwner",
          "type": "address"
        }
      ],
      "name": "transferOwnership",
      "outputs": [],
      "stateMutability": "nonpayable",
      "type": "function"
    },
    {
      "inputs": [
        {
          "internalType": "uint256",
          "name": "_depositId",
          "type": "uint256"
        }
      ],
      "name": "unstackWID",
      "outputs": [],
      "stateMutability": "nonpayable",
      "type": "function"
    },
    {
      "inputs": [
        {
          "internalType": "uint256",
          "name": "_sessionId",
          "type": "uint256"
        },
        {
          "internalType": "bool",
          "name": "_vote",
          "type": "bool"
        },
        {
          "internalType": "uint256",
          "name": "_votingPower",
          "type": "uint256"
        }
      ],
      "name": "voteOnProposal",
      "outputs": [],
      "stateMutability": "nonpayable",
      "type": "function"
    }
  ],
  "transactionHash": "0x62286c744472fadd52c51e6d5d730466f0eefe8a3b239bf4525472397c61b894",
  "args": [
    "0x5664BB8f9007a38F74095DB7c1Be6E5e39010649",
    "0x34e6b600b68217da09a281D6eB45fbe1a3261862"
  ],
  "numDeployments": 3,
  "solcInputHash": "fae491fdda32b2eedcf6070716764283",
  "bytecode": "0x60c06040523480156200001157600080fd5b506040516200646f3803806200646f833981810160405281019062000037919062000288565b620000576200004b620000ff60201b60201c565b6200010760201b60201c565b816040516200006690620001cb565b620000729190620002e0565b604051809103906000f0801580156200008f573d6000803e3d6000fd5b5073ffffffffffffffffffffffffffffffffffffffff1660808173ffffffffffffffffffffffffffffffffffffffff16815250508073ffffffffffffffffffffffffffffffffffffffff1660a08173ffffffffffffffffffffffffffffffffffffffff16815250505050620002fd565b600033905090565b60008060009054906101000a900473ffffffffffffffffffffffffffffffffffffffff169050816000806101000a81548173ffffffffffffffffffffffffffffffffffffffff021916908373ffffffffffffffffffffffffffffffffffffffff1602179055508173ffffffffffffffffffffffffffffffffffffffff168173ffffffffffffffffffffffffffffffffffffffff167f8be0079c531659141344cd1fd0a4f28419497f9722a3daafe3b4186f6b6457e060405160405180910390a35050565b612ce8806200378783390190565b600080fd5b600073ffffffffffffffffffffffffffffffffffffffff82169050919050565b60006200020b82620001de565b9050919050565b6200021d81620001fe565b81146200022957600080fd5b50565b6000815190506200023d8162000212565b92915050565b60006200025082620001de565b9050919050565b620002628162000243565b81146200026e57600080fd5b50565b600081519050620002828162000257565b92915050565b60008060408385031215620002a257620002a1620001d9565b5b6000620002b2858286016200022c565b9250506020620002c58582860162000271565b9150509250929050565b620002da81620001fe565b82525050565b6000602082019050620002f76000830184620002cf565b92915050565b60805160a0516133a7620003e06000396000818161023e015281816102da01528181610532015281816105ce01528181610835015281816108d101528181610a4001528181610adc015281816110870152818161112301528181611535015281816115d1015281816118e60152818161198201528181611b1801528181611bb401528181611cb70152611d530152600081816103b50152818161048f015281816106a9015281816109aa01528181610bb701528181610de7015281816111fe015281816116ac01528181611a5b01528181611c8d0152611e2e01526133a76000f3fe608060405234801561001057600080fd5b50600436106100b45760003560e01c8063715018a611610071578063715018a61461018b57806380670d8f146101955780638da5cb5b146101b1578063a6382e35146101cf578063ad42b1ea146101ed578063f2fde38b1461021d576100b4565b8063087f0270146100b957806313a3deac146100d75780631521c7ec146101075780633106fea014610123578063316738ec1461013f5780635c08a75f1461015b575b600080fd5b6100c1610239565b6040516100ce91906121f2565b60405180910390f35b6100f160048036038101906100ec9190612243565b61052d565b6040516100fe919061228b565b60405180910390f35b610121600480360381019061011c91906122a6565b610831565b005b61013d60048036038101906101389190612312565b610a3c565b005b610159600480360381019061015491906123ca565b611083565b005b61017560048036038101906101709190612243565b611529565b604051610182919061257d565b60405180910390f35b6101936118ce565b005b6101af60048036038101906101aa9190612243565b6118e2565b005b6101b9611aea565b6040516101c691906125e0565b60405180910390f35b6101d7611b13565b6040516101e491906125e0565b60405180910390f35b61020760048036038101906102029190612243565b611cb2565b6040516102149190612672565b60405180910390f35b610237600480360381019061023291906126b9565b611fc4565b005b6000807f000000000000000000000000000000000000000000000000000000000000000073ffffffffffffffffffffffffffffffffffffffff1663b97d9155336040518263ffffffff1660e01b815260040161029591906125e0565b602060405180830381865afa1580156102b2573d6000803e3d6000fd5b505050506040513d601f19601f820116820180604052508101906102d691906126fb565b90507f000000000000000000000000000000000000000000000000000000000000000073ffffffffffffffffffffffffffffffffffffffff1663c92243d8826040518263ffffffff1660e01b815260040161033191906121f2565b602060405180830381865afa15801561034e573d6000803e3d6000fd5b505050506040513d601f19601f82011682018060405250810190610372919061273d565b6103b1576040517f08c379a00000000000000000000000000000000000000000000000000000000081526004016103a890612813565b60405180910390fd5b60007f000000000000000000000000000000000000000000000000000000000000000073ffffffffffffffffffffffffffffffffffffffff166370a08231336040518263ffffffff1660e01b815260040161040c91906125e0565b602060405180830381865afa158015610429573d6000803e3d6000fd5b505050506040513d601f19601f8201168201806040525081019061044d91906126fb565b1161048d576040517f08c379a0000000000000000000000000000000000000000000000000000000008152600401610484906128a5565b60405180910390fd5b7f000000000000000000000000000000000000000000000000000000000000000073ffffffffffffffffffffffffffffffffffffffff166370a08231336040518263ffffffff1660e01b81526004016104e691906125e0565b602060405180830381865afa158015610503573d6000803e3d6000fd5b505050506040513d601f19601f8201168201806040525081019061052791906126fb565b91505090565b6000807f000000000000000000000000000000000000000000000000000000000000000073ffffffffffffffffffffffffffffffffffffffff1663b97d9155336040518263ffffffff1660e01b815260040161058991906125e0565b602060405180830381865afa1580156105a6573d6000803e3d6000fd5b505050506040513d601f19601f820116820180604052508101906105ca91906126fb565b90507f000000000000000000000000000000000000000000000000000000000000000073ffffffffffffffffffffffffffffffffffffffff1663c92243d8826040518263ffffffff1660e01b815260040161062591906121f2565b602060405180830381865afa158015610642573d6000803e3d6000fd5b505050506040513d601f19601f82011682018060405250810190610666919061273d565b6106a5576040517f08c379a000000000000000000000000000000000000000000000000000000000815260040161069c90612813565b60405180910390fd5b60007f000000000000000000000000000000000000000000000000000000000000000073ffffffffffffffffffffffffffffffffffffffff166370a08231336040518263ffffffff1660e01b815260040161070091906125e0565b602060405180830381865afa15801561071d573d6000803e3d6000fd5b505050506040513d601f19601f8201168201806040525081019061074191906126fb565b11610781576040517f08c379a0000000000000000000000000000000000000000000000000000000008152600401610778906128a5565b60405180910390fd5b60018054905083106107c8576040517f08c379a00000000000000000000000000000000000000000000000000000000081526004016107bf90612937565b60405180910390fd5b6002600084815260200190815260200160002060003373ffffffffffffffffffffffffffffffffffffffff1673ffffffffffffffffffffffffffffffffffffffff16815260200190815260200160002060020160009054906101000a900460ff16915050919050565b60007f000000000000000000000000000000000000000000000000000000000000000073ffffffffffffffffffffffffffffffffffffffff1663b97d9155336040518263ffffffff1660e01b815260040161088c91906125e0565b602060405180830381865afa1580156108a9573d6000803e3d6000fd5b505050506040513d601f19601f820116820180604052508101906108cd91906126fb565b90507f000000000000000000000000000000000000000000000000000000000000000073ffffffffffffffffffffffffffffffffffffffff1663c92243d8826040518263ffffffff1660e01b815260040161092891906121f2565b602060405180830381865afa158015610945573d6000803e3d6000fd5b505050506040513d601f19601f82011682018060405250810190610969919061273d565b6109a8576040517f08c379a000000000000000000000000000000000000000000000000000000000815260040161099f90612813565b60405180910390fd5b7f000000000000000000000000000000000000000000000000000000000000000073ffffffffffffffffffffffffffffffffffffffff16631e5d930f8433856040518463ffffffff1660e01b8152600401610a0593929190612957565b600060405180830381600087803b158015610a1f57600080fd5b505af1158015610a33573d6000803e3d6000fd5b50505050505050565b60007f000000000000000000000000000000000000000000000000000000000000000073ffffffffffffffffffffffffffffffffffffffff1663b97d9155336040518263ffffffff1660e01b8152600401610a9791906125e0565b602060405180830381865afa158015610ab4573d6000803e3d6000fd5b505050506040513d601f19601f82011682018060405250810190610ad891906126fb565b90507f000000000000000000000000000000000000000000000000000000000000000073ffffffffffffffffffffffffffffffffffffffff1663c92243d8826040518263ffffffff1660e01b8152600401610b3391906121f2565b602060405180830381865afa158015610b50573d6000803e3d6000fd5b505050506040513d601f19601f82011682018060405250810190610b74919061273d565b610bb3576040517f08c379a0000000000000000000000000000000000000000000000000000000008152600401610baa90612813565b60405180910390fd5b60007f000000000000000000000000000000000000000000000000000000000000000073ffffffffffffffffffffffffffffffffffffffff166370a08231336040518263ffffffff1660e01b8152600401610c0e91906125e0565b602060405180830381865afa158015610c2b573d6000803e3d6000fd5b505050506040513d601f19601f82011682018060405250810190610c4f91906126fb565b11610c8f576040517f08c379a0000000000000000000000000000000000000000000000000000000008152600401610c86906128a5565b60405180910390fd5b6001805490508410610cd6576040517f08c379a0000000000000000000000000000000000000000000000000000000008152600401610ccd90612937565b60405180910390fd5b4260018581548110610ceb57610cea61298e565b5b90600052602060002090600502016003015410610d3d576040517f08c379a0000000000000000000000000000000000000000000000000000000008152600401610d3490612a2f565b60405180910390fd5b600015156002600086815260200190815260200160002060003373ffffffffffffffffffffffffffffffffffffffff1673ffffffffffffffffffffffffffffffffffffffff16815260200190815260200160002060020160009054906101000a900460ff16151514610de4576040517f08c379a0000000000000000000000000000000000000000000000000000000008152600401610ddb90612ac1565b60405180910390fd5b817f000000000000000000000000000000000000000000000000000000000000000073ffffffffffffffffffffffffffffffffffffffff166370a08231336040518263ffffffff1660e01b8152600401610e3e91906125e0565b602060405180830381865afa158015610e5b573d6000803e3d6000fd5b505050506040513d601f19601f82011682018060405250810190610e7f91906126fb565b1015610ec0576040517f08c379a0000000000000000000000000000000000000000000000000000000008152600401610eb790612b79565b60405180910390fd5b82610f08578160018581548110610eda57610ed961298e565b5b90600052602060002090600502016000016002016000828254610efd9190612bc8565b925050819055610f47565b8160018581548110610f1d57610f1c61298e565b5b90600052602060002090600502016000016001016000828254610f409190612bc8565b9250508190555b5060405180606001604052803373ffffffffffffffffffffffffffffffffffffffff168152602001838152602001600115158152506002600086815260200190815260200160002060003373ffffffffffffffffffffffffffffffffffffffff1673ffffffffffffffffffffffffffffffffffffffff16815260200190815260200160002060008201518160000160006101000a81548173ffffffffffffffffffffffffffffffffffffffff021916908373ffffffffffffffffffffffffffffffffffffffff1602179055506020820151816001015560408201518160020160006101000a81548160ff0219169083151502179055509050507f9fea94799b68dbb994c4e44547ea7b5c9e4068fbc385b8b688005a16b60c3cc6338585856040516110759493929190612bfc565b60405180910390a150505050565b60007f000000000000000000000000000000000000000000000000000000000000000073ffffffffffffffffffffffffffffffffffffffff1663b97d9155336040518263ffffffff1660e01b81526004016110de91906125e0565b602060405180830381865afa1580156110fb573d6000803e3d6000fd5b505050506040513d601f19601f8201168201806040525081019061111f91906126fb565b90507f000000000000000000000000000000000000000000000000000000000000000073ffffffffffffffffffffffffffffffffffffffff1663c92243d8826040518263ffffffff1660e01b815260040161117a91906121f2565b602060405180830381865afa158015611197573d6000803e3d6000fd5b505050506040513d601f19601f820116820180604052508101906111bb919061273d565b6111fa576040517f08c379a00000000000000000000000000000000000000000000000000000000081526004016111f190612813565b60405180910390fd5b60007f000000000000000000000000000000000000000000000000000000000000000073ffffffffffffffffffffffffffffffffffffffff166370a08231336040518263ffffffff1660e01b815260040161125591906125e0565b602060405180830381865afa158015611272573d6000803e3d6000fd5b505050506040513d601f19601f8201168201806040525081019061129691906126fb565b116112d6576040517f08c379a00000000000000000000000000000000000000000000000000000000081526004016112cd906128a5565b60405180910390fd5b428311611318576040517f08c379a000000000000000000000000000000000000000000000000000000000815260040161130f90612cb3565b60405180910390fd5b81831061135a576040517f08c379a000000000000000000000000000000000000000000000000000000000815260040161135190612d45565b60405180910390fd5b60405160200161136990612d8b565b604051602081830303815290604052805190602001208585604051602001611392929190612de7565b60405160208183030381529060405280519060200120036113e8576040517f08c379a00000000000000000000000000000000000000000000000000000000081526004016113df90612e57565b60405180910390fd5b6113f0612191565b85858080601f016020809104026020016040519081016040528093929190818152602001838380828437600081840152601f19601f8201169050808301925050505050505081600001819052506114456121b2565b8181600001819052508481602001818152505083816040018181525050600181908060018154018082558091505060019003906000526020600020906005020160009091909190915060008201518160000160008201518160000190816114ac91906130b2565b5060208201518160010155604082015181600201555050602082015181600301556040820151816004015550507f286eacf5b6704a302e166bc24702bf2880710cb8684f1584f160dbb817b7a4206001808054905061150b9190613184565b60405161151891906121f2565b60405180910390a150505050505050565b6115316121b2565b60007f000000000000000000000000000000000000000000000000000000000000000073ffffffffffffffffffffffffffffffffffffffff1663b97d9155336040518263ffffffff1660e01b815260040161158c91906125e0565b602060405180830381865afa1580156115a9573d6000803e3d6000fd5b505050506040513d601f19601f820116820180604052508101906115cd91906126fb565b90507f000000000000000000000000000000000000000000000000000000000000000073ffffffffffffffffffffffffffffffffffffffff1663c92243d8826040518263ffffffff1660e01b815260040161162891906121f2565b602060405180830381865afa158015611645573d6000803e3d6000fd5b505050506040513d601f19601f82011682018060405250810190611669919061273d565b6116a8576040517f08c379a000000000000000000000000000000000000000000000000000000000815260040161169f90612813565b60405180910390fd5b60007f000000000000000000000000000000000000000000000000000000000000000073ffffffffffffffffffffffffffffffffffffffff166370a08231336040518263ffffffff1660e01b815260040161170391906125e0565b602060405180830381865afa158015611720573d6000803e3d6000fd5b505050506040513d601f19601f8201168201806040525081019061174491906126fb565b11611784576040517f08c379a000000000000000000000000000000000000000000000000000000000815260040161177b906128a5565b60405180910390fd5b60018054905083106117cb576040517f08c379a00000000000000000000000000000000000000000000000000000000081526004016117c29061322a565b60405180910390fd5b600183815481106117df576117de61298e565b5b90600052602060002090600502016040518060600160405290816000820160405180606001604052908160008201805461181890612ed5565b80601f016020809104026020016040519081016040528092919081815260200182805461184490612ed5565b80156118915780601f1061186657610100808354040283529160200191611891565b820191906000526020600020905b81548152906001019060200180831161187457829003601f168201915b5050505050815260200160018201548152602001600282015481525050815260200160038201548152602001600482015481525050915050919050565b6118d6612047565b6118e060006120c5565b565b60007f000000000000000000000000000000000000000000000000000000000000000073ffffffffffffffffffffffffffffffffffffffff1663b97d9155336040518263ffffffff1660e01b815260040161193d91906125e0565b602060405180830381865afa15801561195a573d6000803e3d6000fd5b505050506040513d601f19601f8201168201806040525081019061197e91906126fb565b90507f000000000000000000000000000000000000000000000000000000000000000073ffffffffffffffffffffffffffffffffffffffff1663c92243d8826040518263ffffffff1660e01b81526004016119d991906121f2565b602060405180830381865afa1580156119f6573d6000803e3d6000fd5b505050506040513d601f19601f82011682018060405250810190611a1a919061273d565b611a59576040517f08c379a0000000000000000000000000000000000000000000000000000000008152600401611a5090612813565b60405180910390fd5b7f000000000000000000000000000000000000000000000000000000000000000073ffffffffffffffffffffffffffffffffffffffff1663b6e969be83336040518363ffffffff1660e01b8152600401611ab492919061324a565b600060405180830381600087803b158015611ace57600080fd5b505af1158015611ae2573d6000803e3d6000fd5b505050505050565b60008060009054906101000a900473ffffffffffffffffffffffffffffffffffffffff16905090565b6000807f000000000000000000000000000000000000000000000000000000000000000073ffffffffffffffffffffffffffffffffffffffff1663b97d9155336040518263ffffffff1660e01b8152600401611b6f91906125e0565b602060405180830381865afa158015611b8c573d6000803e3d6000fd5b505050506040513d601f19601f82011682018060405250810190611bb091906126fb565b90507f000000000000000000000000000000000000000000000000000000000000000073ffffffffffffffffffffffffffffffffffffffff1663c92243d8826040518263ffffffff1660e01b8152600401611c0b91906121f2565b602060405180830381865afa158015611c28573d6000803e3d6000fd5b505050506040513d601f19601f82011682018060405250810190611c4c919061273d565b611c8b576040517f08c379a0000000000000000000000000000000000000000000000000000000008152600401611c8290612813565b60405180910390fd5b7f000000000000000000000000000000000000000000000000000000000000000091505090565b6000807f000000000000000000000000000000000000000000000000000000000000000073ffffffffffffffffffffffffffffffffffffffff1663b97d9155336040518263ffffffff1660e01b8152600401611d0e91906125e0565b602060405180830381865afa158015611d2b573d6000803e3d6000fd5b505050506040513d601f19601f82011682018060405250810190611d4f91906126fb565b90507f000000000000000000000000000000000000000000000000000000000000000073ffffffffffffffffffffffffffffffffffffffff1663c92243d8826040518263ffffffff1660e01b8152600401611daa91906121f2565b602060405180830381865afa158015611dc7573d6000803e3d6000fd5b505050506040513d601f19601f82011682018060405250810190611deb919061273d565b611e2a576040517f08c379a0000000000000000000000000000000000000000000000000000000008152600401611e2190612813565b60405180910390fd5b60007f000000000000000000000000000000000000000000000000000000000000000073ffffffffffffffffffffffffffffffffffffffff166370a08231336040518263ffffffff1660e01b8152600401611e8591906125e0565b602060405180830381865afa158015611ea2573d6000803e3d6000fd5b505050506040513d601f19601f82011682018060405250810190611ec691906126fb565b11611f06576040517f08c379a0000000000000000000000000000000000000000000000000000000008152600401611efd906128a5565b60405180910390fd5b6001805490508310611f4d576040517f08c379a0000000000000000000000000000000000000000000000000000000008152600401611f4490612937565b60405180910390fd5b4260018481548110611f6257611f6161298e565b5b9060005260206000209060050201600301541115611f835760009150611fbe565b4260018481548110611f9857611f9761298e565b5b9060005260206000209060050201600401541015611fb95760029150611fbe565b600191505b50919050565b611fcc612047565b600073ffffffffffffffffffffffffffffffffffffffff168173ffffffffffffffffffffffffffffffffffffffff160361203b576040517f08c379a0000000000000000000000000000000000000000000000000000000008152600401612032906132e5565b60405180910390fd5b612044816120c5565b50565b61204f612189565b73ffffffffffffffffffffffffffffffffffffffff1661206d611aea565b73ffffffffffffffffffffffffffffffffffffffff16146120c3576040517f08c379a00000000000000000000000000000000000000000000000000000000081526004016120ba90613351565b60405180910390fd5b565b60008060009054906101000a900473ffffffffffffffffffffffffffffffffffffffff169050816000806101000a81548173ffffffffffffffffffffffffffffffffffffffff021916908373ffffffffffffffffffffffffffffffffffffffff1602179055508173ffffffffffffffffffffffffffffffffffffffff168173ffffffffffffffffffffffffffffffffffffffff167f8be0079c531659141344cd1fd0a4f28419497f9722a3daafe3b4186f6b6457e060405160405180910390a35050565b600033905090565b60405180606001604052806060815260200160008152602001600081525090565b60405180606001604052806121c5612191565b815260200160008152602001600081525090565b6000819050919050565b6121ec816121d9565b82525050565b600060208201905061220760008301846121e3565b92915050565b600080fd5b600080fd5b612220816121d9565b811461222b57600080fd5b50565b60008135905061223d81612217565b92915050565b6000602082840312156122595761225861220d565b5b60006122678482850161222e565b91505092915050565b60008115159050919050565b61228581612270565b82525050565b60006020820190506122a0600083018461227c565b92915050565b600080604083850312156122bd576122bc61220d565b5b60006122cb8582860161222e565b92505060206122dc8582860161222e565b9150509250929050565b6122ef81612270565b81146122fa57600080fd5b50565b60008135905061230c816122e6565b92915050565b60008060006060848603121561232b5761232a61220d565b5b60006123398682870161222e565b935050602061234a868287016122fd565b925050604061235b8682870161222e565b9150509250925092565b600080fd5b600080fd5b600080fd5b60008083601f84011261238a57612389612365565b5b8235905067ffffffffffffffff8111156123a7576123a661236a565b5b6020830191508360018202830111156123c3576123c261236f565b5b9250929050565b600080600080606085870312156123e4576123e361220d565b5b600085013567ffffffffffffffff81111561240257612401612212565b5b61240e87828801612374565b945094505060206124218782880161222e565b92505060406124328782880161222e565b91505092959194509250565b600081519050919050565b600082825260208201905092915050565b60005b8381101561247857808201518184015260208101905061245d565b60008484015250505050565b6000601f19601f8301169050919050565b60006124a08261243e565b6124aa8185612449565b93506124ba81856020860161245a565b6124c381612484565b840191505092915050565b6124d7816121d9565b82525050565b600060608301600083015184820360008601526124fa8282612495565b915050602083015161250f60208601826124ce565b50604083015161252260408601826124ce565b508091505092915050565b6000606083016000830151848203600086015261254a82826124dd565b915050602083015161255f60208601826124ce565b50604083015161257260408601826124ce565b508091505092915050565b60006020820190508181036000830152612597818461252d565b905092915050565b600073ffffffffffffffffffffffffffffffffffffffff82169050919050565b60006125ca8261259f565b9050919050565b6125da816125bf565b82525050565b60006020820190506125f560008301846125d1565b92915050565b7f4e487b7100000000000000000000000000000000000000000000000000000000600052602160045260246000fd5b6003811061263b5761263a6125fb565b5b50565b600081905061264c8261262a565b919050565b600061265c8261263e565b9050919050565b61266c81612651565b82525050565b60006020820190506126876000830184612663565b92915050565b612696816125bf565b81146126a157600080fd5b50565b6000813590506126b38161268d565b92915050565b6000602082840312156126cf576126ce61220d565b5b60006126dd848285016126a4565b91505092915050565b6000815190506126f581612217565b92915050565b6000602082840312156127115761271061220d565b5b600061271f848285016126e6565b91505092915050565b600081519050612737816122e6565b92915050565b6000602082840312156127535761275261220d565b5b600061276184828501612728565b91505092915050565b600082825260208201905092915050565b7f596f757220656d706c6f7965652063617264206d757374207374696c6c20626560008201527f2076616c696420746f20706172746963697061746520746f2074686520676f7660208201527f65726e616e636500000000000000000000000000000000000000000000000000604082015250565b60006127fd60478361276a565b91506128088261277b565b606082019050919050565b6000602082019050818103600083015261282c816127f0565b9050919050565b7f576f726b494420476f7665726e616e63653a20596f7520646f6e27742068617660008201527f6520616e7920766f74696e6720706f7765722e00000000000000000000000000602082015250565b600061288f60338361276a565b915061289a82612833565b604082019050919050565b600060208201905081810360008301526128be81612882565b9050919050565b7f476f7665726e616e63653a20566f74696e672073657373696f6e20646f65736e60008201527f2774206578697374000000000000000000000000000000000000000000000000602082015250565b600061292160288361276a565b915061292c826128c5565b604082019050919050565b6000602082019050818103600083015261295081612914565b9050919050565b600060608201905061296c60008301866121e3565b61297960208301856125d1565b61298660408301846121e3565b949350505050565b7f4e487b7100000000000000000000000000000000000000000000000000000000600052603260045260246000fd5b7f476f7665726e616e63653a20566f74696e672073657373696f6e2069736e277460008201527f206f70656e207965740000000000000000000000000000000000000000000000602082015250565b6000612a1960298361276a565b9150612a24826129bd565b604082019050919050565b60006020820190508181036000830152612a4881612a0c565b9050919050565b7f476f7665726e616e63653a20596f75206861766520616c726561647920766f7460008201527f6564000000000000000000000000000000000000000000000000000000000000602082015250565b6000612aab60228361276a565b9150612ab682612a4f565b604082019050919050565b60006020820190508181036000830152612ada81612a9e565b9050919050565b7f476f7665726e616e63653a20596f7520646f6e2774206861766520656e6f756760008201527f6820535749447320666f72207468652063686f73656e20616d6f756e74206f6660208201527f20766f74696e6720706f77657200000000000000000000000000000000000000604082015250565b6000612b63604d8361276a565b9150612b6e82612ae1565b606082019050919050565b60006020820190508181036000830152612b9281612b56565b9050919050565b7f4e487b7100000000000000000000000000000000000000000000000000000000600052601160045260246000fd5b6000612bd3826121d9565b9150612bde836121d9565b9250828201905080821115612bf657612bf5612b99565b5b92915050565b6000608082019050612c1160008301876125d1565b612c1e60208301866121e3565b612c2b604083018561227c565b612c3860608301846121e3565b95945050505050565b7f596f75722070726f706f73616c2063616e277420626520696e2074686520706160008201527f7374000000000000000000000000000000000000000000000000000000000000602082015250565b6000612c9d60228361276a565b9150612ca882612c41565b604082019050919050565b60006020820190508181036000830152612ccc81612c90565b9050919050565b7f596f75722070726f706f73616c20656e6420646174652063616e27742062652060008201527f6265666f72652074686520737461727420646174650000000000000000000000602082015250565b6000612d2f60358361276a565b9150612d3a82612cd3565b604082019050919050565b60006020820190508181036000830152612d5e81612d22565b9050919050565b50565b6000612d7560008361276a565b9150612d8082612d65565b600082019050919050565b60006020820190508181036000830152612da481612d68565b9050919050565b82818337600083830152505050565b6000612dc6838561276a565b9350612dd3838584612dab565b612ddc83612484565b840190509392505050565b60006020820190508181036000830152612e02818486612dba565b90509392505050565b7f596f75722070726f706f73616c2063616e277420626520656d70747900000000600082015250565b6000612e41601c8361276a565b9150612e4c82612e0b565b602082019050919050565b60006020820190508181036000830152612e7081612e34565b9050919050565b7f4e487b7100000000000000000000000000000000000000000000000000000000600052604160045260246000fd5b7f4e487b7100000000000000000000000000000000000000000000000000000000600052602260045260246000fd5b60006002820490506001821680612eed57607f821691505b602082108103612f0057612eff612ea6565b5b50919050565b60008190508160005260206000209050919050565b60006020601f8301049050919050565b600082821b905092915050565b600060088302612f687fffffffffffffffffffffffffffffffffffffffffffffffffffffffffffffffff82612f2b565b612f728683612f2b565b95508019841693508086168417925050509392505050565b6000819050919050565b6000612faf612faa612fa5846121d9565b612f8a565b6121d9565b9050919050565b6000819050919050565b612fc983612f94565b612fdd612fd582612fb6565b848454612f38565b825550505050565b600090565b612ff2612fe5565b612ffd818484612fc0565b505050565b5b8181101561302157613016600082612fea565b600181019050613003565b5050565b601f8211156130665761303781612f06565b61304084612f1b565b8101602085101561304f578190505b61306361305b85612f1b565b830182613002565b50505b505050565b600082821c905092915050565b60006130896000198460080261306b565b1980831691505092915050565b60006130a28383613078565b9150826002028217905092915050565b6130bb8261243e565b67ffffffffffffffff8111156130d4576130d3612e77565b5b6130de8254612ed5565b6130e9828285613025565b600060209050601f83116001811461311c576000841561310a578287015190505b6131148582613096565b86555061317c565b601f19841661312a86612f06565b60005b828110156131525784890151825560018201915060208501945060208101905061312d565b8683101561316f578489015161316b601f891682613078565b8355505b6001600288020188555050505b505050505050565b600061318f826121d9565b915061319a836121d9565b92508282039050818111156131b2576131b1612b99565b5b92915050565b7f476f7665726e616e63653a20496e76616c696420766f74696e6720736573736960008201527f6f6e000000000000000000000000000000000000000000000000000000000000602082015250565b600061321460228361276a565b915061321f826131b8565b604082019050919050565b6000602082019050818103600083015261324381613207565b9050919050565b600060408201905061325f60008301856121e3565b61326c60208301846125d1565b9392505050565b7f4f776e61626c653a206e6577206f776e657220697320746865207a65726f206160008201527f6464726573730000000000000000000000000000000000000000000000000000602082015250565b60006132cf60268361276a565b91506132da82613273565b604082019050919050565b600060208201905081810360008301526132fe816132c2565b9050919050565b7f4f776e61626c653a2063616c6c6572206973206e6f7420746865206f776e6572600082015250565b600061333b60208361276a565b915061334682613305565b602082019050919050565b6000602082019050818103600083015261336a8161332e565b905091905056fea2646970667358221220c80aee5a16fd2a957c6747492ea6a28a39eb1606b9de1e8e08cd9ed1ebccbe7664736f6c6343000811003360a06040523480156200001157600080fd5b5060405162002ce838038062002ce883398181016040528101906200003791906200025c565b6040518060400160405280600b81526020017f537461636b6564205749440000000000000000000000000000000000000000008152506040518060400160405280600481526020017f53574944000000000000000000000000000000000000000000000000000000008152508160039081620000b4919062000508565b508060049081620000c6919062000508565b505050620000e9620000dd6200012460201b60201c565b6200012c60201b60201c565b8073ffffffffffffffffffffffffffffffffffffffff1660808173ffffffffffffffffffffffffffffffffffffffff168152505050620005ef565b600033905090565b6000600560009054906101000a900473ffffffffffffffffffffffffffffffffffffffff16905081600560006101000a81548173ffffffffffffffffffffffffffffffffffffffff021916908373ffffffffffffffffffffffffffffffffffffffff1602179055508173ffffffffffffffffffffffffffffffffffffffff168173ffffffffffffffffffffffffffffffffffffffff167f8be0079c531659141344cd1fd0a4f28419497f9722a3daafe3b4186f6b6457e060405160405180910390a35050565b600080fd5b600073ffffffffffffffffffffffffffffffffffffffff82169050919050565b60006200022482620001f7565b9050919050565b620002368162000217565b81146200024257600080fd5b50565b60008151905062000256816200022b565b92915050565b600060208284031215620002755762000274620001f2565b5b6000620002858482850162000245565b91505092915050565b600081519050919050565b7f4e487b7100000000000000000000000000000000000000000000000000000000600052604160045260246000fd5b7f4e487b7100000000000000000000000000000000000000000000000000000000600052602260045260246000fd5b600060028204905060018216806200031057607f821691505b602082108103620003265762000325620002c8565b5b50919050565b60008190508160005260206000209050919050565b60006020601f8301049050919050565b600082821b905092915050565b600060088302620003907fffffffffffffffffffffffffffffffffffffffffffffffffffffffffffffffff8262000351565b6200039c868362000351565b95508019841693508086168417925050509392505050565b6000819050919050565b6000819050919050565b6000620003e9620003e3620003dd84620003b4565b620003be565b620003b4565b9050919050565b6000819050919050565b6200040583620003c8565b6200041d6200041482620003f0565b8484546200035e565b825550505050565b600090565b6200043462000425565b62000441818484620003fa565b505050565b5b8181101562000469576200045d6000826200042a565b60018101905062000447565b5050565b601f821115620004b85762000482816200032c565b6200048d8462000341565b810160208510156200049d578190505b620004b5620004ac8562000341565b83018262000446565b50505b505050565b600082821c905092915050565b6000620004dd60001984600802620004bd565b1980831691505092915050565b6000620004f88383620004ca565b9150826002028217905092915050565b62000513826200028e565b67ffffffffffffffff8111156200052f576200052e62000299565b5b6200053b8254620002f7565b620005488282856200046d565b600060209050601f8311600181146200058057600084156200056b578287015190505b620005778582620004ea565b865550620005e7565b601f19841662000590866200032c565b60005b82811015620005ba5784890151825560018201915060208501945060208101905062000593565b86831015620005da5784890151620005d6601f891682620004ca565b8355505b6001600288020188555050505b505050505050565b6080516126d662000612600039600081816106080152610c0901526126d66000f3fe608060405234801561001057600080fd5b50600436106101005760003560e01c8063715018a611610097578063a9059cbb11610066578063a9059cbb146102b1578063b6e969be146102e1578063dd62ed3e146102fd578063f2fde38b1461032d57610100565b8063715018a61461023b5780638da5cb5b1461024557806395d89b4114610263578063a457c2d71461028157610100565b806323b872dd116100d357806323b872dd1461018d578063313ce567146101bd57806339509351146101db57806370a082311461020b57610100565b806306fdde0314610105578063095ea7b31461012357806318160ddd146101535780631e5d930f14610171575b600080fd5b61010d610349565b60405161011a9190611804565b60405180910390f35b61013d600480360381019061013891906118bf565b6103db565b60405161014a919061191a565b60405180910390f35b61015b6103fe565b6040516101689190611944565b60405180910390f35b61018b6004803603810190610186919061195f565b610408565b005b6101a760048036038101906101a291906119b2565b610731565b6040516101b4919061191a565b60405180910390f35b6101c5610760565b6040516101d29190611a21565b60405180910390f35b6101f560048036038101906101f091906118bf565b610769565b604051610202919061191a565b60405180910390f35b61022560048036038101906102209190611a3c565b6107a0565b6040516102329190611944565b60405180910390f35b6102436107e8565b005b61024d6107fc565b60405161025a9190611a78565b60405180910390f35b61026b610826565b6040516102789190611804565b60405180910390f35b61029b600480360381019061029691906118bf565b6108b8565b6040516102a8919061191a565b60405180910390f35b6102cb60048036038101906102c691906118bf565b61092f565b6040516102d8919061191a565b60405180910390f35b6102fb60048036038101906102f69190611a93565b610952565b005b61031760048036038101906103129190611ad3565b610d26565b6040516103249190611944565b60405180910390f35b61034760048036038101906103429190611a3c565b610dad565b005b60606003805461035890611b42565b80601f016020809104026020016040519081016040528092919081815260200182805461038490611b42565b80156103d15780601f106103a6576101008083540402835291602001916103d1565b820191906000526020600020905b8154815290600101906020018083116103b457829003601f168201915b5050505050905090565b6000806103e6610e30565b90506103f3818585610e38565b600191505092915050565b6000600254905090565b610410611001565b60008111610453576040517f08c379a000000000000000000000000000000000000000000000000000000000815260040161044a90611be5565b60405180910390fd5b62f099c083148061046757506301e1338083145b8061047557506305a39a8083145b806104835750630966018083145b6104c2576040517f08c379a00000000000000000000000000000000000000000000000000000000081526004016104b990611c9d565b60405180910390fd5b600062f099c084036104ee57600a6064836104dd9190611d1b565b6104e79190611d4c565b905061054a565b6301e1338084036105195760146064836105089190611d1b565b6105129190611d4c565b9050610549565b6305a39a80840361054457603c6064836105339190611d1b565b61053d9190611d4c565b9050610548565b8190505b5b5b600042905060006007600081548092919061056490611d8e565b919050559050604051806080016040528087815260200183815260200185815260200184815250600660008773ffffffffffffffffffffffffffffffffffffffff1673ffffffffffffffffffffffffffffffffffffffff1681526020019081526020016000206000838152602001908152602001600020600082015181600001556020820151816001015560408201518160020155606082015181600301559050507f000000000000000000000000000000000000000000000000000000000000000073ffffffffffffffffffffffffffffffffffffffff166323b872dd8630876040518463ffffffff1660e01b815260040161066393929190611dd6565b6020604051808303816000875af1158015610682573d6000803e3d6000fd5b505050506040513d601f19601f820116820180604052508101906106a69190611e39565b506106b1858461107f565b7f27bd75c4ba951c26c00bab0e8a2e27786a18a5e5c9c2bbef0bc4574fd848924481868689866040516106e8959493929190611e66565b60405180910390a17fee2134be49e1d259fb5d158c6a4746c63622f1f887ae68cd12254f3d4ca657ee8584604051610721929190611eb9565b60405180910390a1505050505050565b60008061073c610e30565b90506107498582856111d5565b610754858585611261565b60019150509392505050565b60006012905090565b600080610774610e30565b90506107958185856107868589610d26565b6107909190611ee2565b610e38565b600191505092915050565b60008060008373ffffffffffffffffffffffffffffffffffffffff1673ffffffffffffffffffffffffffffffffffffffff168152602001908152602001600020549050919050565b6107f0611001565b6107fa60006114d7565b565b6000600560009054906101000a900473ffffffffffffffffffffffffffffffffffffffff16905090565b60606004805461083590611b42565b80601f016020809104026020016040519081016040528092919081815260200182805461086190611b42565b80156108ae5780601f10610883576101008083540402835291602001916108ae565b820191906000526020600020905b81548152906001019060200180831161089157829003601f168201915b5050505050905090565b6000806108c3610e30565b905060006108d18286610d26565b905083811015610916576040517f08c379a000000000000000000000000000000000000000000000000000000000815260040161090d90611f88565b60405180910390fd5b6109238286868403610e38565b60019250505092915050565b60008061093a610e30565b9050610947818585611261565b600191505092915050565b61095a611001565b6000600660008373ffffffffffffffffffffffffffffffffffffffff1673ffffffffffffffffffffffffffffffffffffffff168152602001908152602001600020600084815260200190815260200160002060000154116109f0576040517f08c379a00000000000000000000000000000000000000000000000000000000081526004016109e79061201a565b60405180910390fd5b42600660008373ffffffffffffffffffffffffffffffffffffffff1673ffffffffffffffffffffffffffffffffffffffff168152602001908152602001600020600084815260200190815260200160002060000154600660008473ffffffffffffffffffffffffffffffffffffffff1673ffffffffffffffffffffffffffffffffffffffff168152602001908152602001600020600085815260200190815260200160002060010154610aa39190611ee2565b1115610ae4576040517f08c379a0000000000000000000000000000000000000000000000000000000008152600401610adb906120ac565b60405180910390fd5b6000600660008373ffffffffffffffffffffffffffffffffffffffff1673ffffffffffffffffffffffffffffffffffffffff16815260200190815260200160002060008481526020019081526020016000206002015490506000600660008473ffffffffffffffffffffffffffffffffffffffff1673ffffffffffffffffffffffffffffffffffffffff1681526020019081526020016000206000858152602001908152602001600020600301549050600660008473ffffffffffffffffffffffffffffffffffffffff1673ffffffffffffffffffffffffffffffffffffffff168152602001908152602001600020600085815260200190815260200160002060008082016000905560018201600090556002820160009055600382016000905550507f000000000000000000000000000000000000000000000000000000000000000073ffffffffffffffffffffffffffffffffffffffff1663a9059cbb84846040518363ffffffff1660e01b8152600401610c62929190611eb9565b6020604051808303816000875af1158015610c81573d6000803e3d6000fd5b505050506040513d601f19601f82011682018060405250810190610ca59190611e39565b50610cb0838261159d565b7f313549ba0251deb61e99c49403466f6dab3bdcb95201fb8058669c64248bc8bc8383604051610ce1929190611eb9565b60405180910390a17fc2d7d0d37a2d585644b6c65898ac2fbba77672d3a0a7eaf38331a63f6fe0d3fe81604051610d189190611944565b60405180910390a150505050565b6000600160008473ffffffffffffffffffffffffffffffffffffffff1673ffffffffffffffffffffffffffffffffffffffff16815260200190815260200160002060008373ffffffffffffffffffffffffffffffffffffffff1673ffffffffffffffffffffffffffffffffffffffff16815260200190815260200160002054905092915050565b610db5611001565b600073ffffffffffffffffffffffffffffffffffffffff168173ffffffffffffffffffffffffffffffffffffffff1603610e24576040517f08c379a0000000000000000000000000000000000000000000000000000000008152600401610e1b9061213e565b60405180910390fd5b610e2d816114d7565b50565b600033905090565b600073ffffffffffffffffffffffffffffffffffffffff168373ffffffffffffffffffffffffffffffffffffffff1603610ea7576040517f08c379a0000000000000000000000000000000000000000000000000000000008152600401610e9e906121d0565b60405180910390fd5b600073ffffffffffffffffffffffffffffffffffffffff168273ffffffffffffffffffffffffffffffffffffffff1603610f16576040517f08c379a0000000000000000000000000000000000000000000000000000000008152600401610f0d90612262565b60405180910390fd5b80600160008573ffffffffffffffffffffffffffffffffffffffff1673ffffffffffffffffffffffffffffffffffffffff16815260200190815260200160002060008473ffffffffffffffffffffffffffffffffffffffff1673ffffffffffffffffffffffffffffffffffffffff168152602001908152602001600020819055508173ffffffffffffffffffffffffffffffffffffffff168373ffffffffffffffffffffffffffffffffffffffff167f8c5be1e5ebec7d5bd14f71427d1e84f3dd0314c0f7b2291e5b200ac8c7c3b92583604051610ff49190611944565b60405180910390a3505050565b611009610e30565b73ffffffffffffffffffffffffffffffffffffffff166110276107fc565b73ffffffffffffffffffffffffffffffffffffffff161461107d576040517f08c379a0000000000000000000000000000000000000000000000000000000008152600401611074906122ce565b60405180910390fd5b565b600073ffffffffffffffffffffffffffffffffffffffff168273ffffffffffffffffffffffffffffffffffffffff16036110ee576040517f08c379a00000000000000000000000000000000000000000000000000000000081526004016110e59061233a565b60405180910390fd5b6110fa6000838361176a565b806002600082825461110c9190611ee2565b92505081905550806000808473ffffffffffffffffffffffffffffffffffffffff1673ffffffffffffffffffffffffffffffffffffffff168152602001908152602001600020600082825401925050819055508173ffffffffffffffffffffffffffffffffffffffff16600073ffffffffffffffffffffffffffffffffffffffff167fddf252ad1be2c89b69c2b068fc378daa952ba7f163c4a11628f55a4df523b3ef836040516111bd9190611944565b60405180910390a36111d16000838361176f565b5050565b60006111e18484610d26565b90507fffffffffffffffffffffffffffffffffffffffffffffffffffffffffffffffff811461125b578181101561124d576040517f08c379a0000000000000000000000000000000000000000000000000000000008152600401611244906123a6565b60405180910390fd5b61125a8484848403610e38565b5b50505050565b600073ffffffffffffffffffffffffffffffffffffffff168373ffffffffffffffffffffffffffffffffffffffff16036112d0576040517f08c379a00000000000000000000000000000000000000000000000000000000081526004016112c790612438565b60405180910390fd5b600073ffffffffffffffffffffffffffffffffffffffff168273ffffffffffffffffffffffffffffffffffffffff160361133f576040517f08c379a0000000000000000000000000000000000000000000000000000000008152600401611336906124ca565b60405180910390fd5b61134a83838361176a565b60008060008573ffffffffffffffffffffffffffffffffffffffff1673ffffffffffffffffffffffffffffffffffffffff168152602001908152602001600020549050818110156113d0576040517f08c379a00000000000000000000000000000000000000000000000000000000081526004016113c79061255c565b60405180910390fd5b8181036000808673ffffffffffffffffffffffffffffffffffffffff1673ffffffffffffffffffffffffffffffffffffffff16815260200190815260200160002081905550816000808573ffffffffffffffffffffffffffffffffffffffff1673ffffffffffffffffffffffffffffffffffffffff168152602001908152602001600020600082825401925050819055508273ffffffffffffffffffffffffffffffffffffffff168473ffffffffffffffffffffffffffffffffffffffff167fddf252ad1be2c89b69c2b068fc378daa952ba7f163c4a11628f55a4df523b3ef846040516114be9190611944565b60405180910390a36114d184848461176f565b50505050565b6000600560009054906101000a900473ffffffffffffffffffffffffffffffffffffffff16905081600560006101000a81548173ffffffffffffffffffffffffffffffffffffffff021916908373ffffffffffffffffffffffffffffffffffffffff1602179055508173ffffffffffffffffffffffffffffffffffffffff168173ffffffffffffffffffffffffffffffffffffffff167f8be0079c531659141344cd1fd0a4f28419497f9722a3daafe3b4186f6b6457e060405160405180910390a35050565b600073ffffffffffffffffffffffffffffffffffffffff168273ffffffffffffffffffffffffffffffffffffffff160361160c576040517f08c379a0000000000000000000000000000000000000000000000000000000008152600401611603906125ee565b60405180910390fd5b6116188260008361176a565b60008060008473ffffffffffffffffffffffffffffffffffffffff1673ffffffffffffffffffffffffffffffffffffffff1681526020019081526020016000205490508181101561169e576040517f08c379a000000000000000000000000000000000000000000000000000000000815260040161169590612680565b60405180910390fd5b8181036000808573ffffffffffffffffffffffffffffffffffffffff1673ffffffffffffffffffffffffffffffffffffffff1681526020019081526020016000208190555081600260008282540392505081905550600073ffffffffffffffffffffffffffffffffffffffff168373ffffffffffffffffffffffffffffffffffffffff167fddf252ad1be2c89b69c2b068fc378daa952ba7f163c4a11628f55a4df523b3ef846040516117519190611944565b60405180910390a36117658360008461176f565b505050565b505050565b505050565b600081519050919050565b600082825260208201905092915050565b60005b838110156117ae578082015181840152602081019050611793565b60008484015250505050565b6000601f19601f8301169050919050565b60006117d682611774565b6117e0818561177f565b93506117f0818560208601611790565b6117f9816117ba565b840191505092915050565b6000602082019050818103600083015261181e81846117cb565b905092915050565b600080fd5b600073ffffffffffffffffffffffffffffffffffffffff82169050919050565b60006118568261182b565b9050919050565b6118668161184b565b811461187157600080fd5b50565b6000813590506118838161185d565b92915050565b6000819050919050565b61189c81611889565b81146118a757600080fd5b50565b6000813590506118b981611893565b92915050565b600080604083850312156118d6576118d5611826565b5b60006118e485828601611874565b92505060206118f5858286016118aa565b9150509250929050565b60008115159050919050565b611914816118ff565b82525050565b600060208201905061192f600083018461190b565b92915050565b61193e81611889565b82525050565b60006020820190506119596000830184611935565b92915050565b60008060006060848603121561197857611977611826565b5b6000611986868287016118aa565b935050602061199786828701611874565b92505060406119a8868287016118aa565b9150509250925092565b6000806000606084860312156119cb576119ca611826565b5b60006119d986828701611874565b93505060206119ea86828701611874565b92505060406119fb868287016118aa565b9150509250925092565b600060ff82169050919050565b611a1b81611a05565b82525050565b6000602082019050611a366000830184611a12565b92915050565b600060208284031215611a5257611a51611826565b5b6000611a6084828501611874565b91505092915050565b611a728161184b565b82525050565b6000602082019050611a8d6000830184611a69565b92915050565b60008060408385031215611aaa57611aa9611826565b5b6000611ab8858286016118aa565b9250506020611ac985828601611874565b9150509250929050565b60008060408385031215611aea57611ae9611826565b5b6000611af885828601611874565b9250506020611b0985828601611874565b9150509250929050565b7f4e487b7100000000000000000000000000000000000000000000000000000000600052602260045260246000fd5b60006002820490506001821680611b5a57607f821691505b602082108103611b6d57611b6c611b13565b5b50919050565b7f535749443a20596f75206d7573742073656e64206120706f736974697665206160008201527f6d6f756e74206f66205749440000000000000000000000000000000000000000602082015250565b6000611bcf602c8361177f565b9150611bda82611b73565b604082019050919050565b60006020820190508181036000830152611bfe81611bc2565b9050919050565b7f535749443a204475726174696f6e206d7573742062652065697468657220362060008201527f6d6f6e7468732c203120796561722c2033207965617273206f7220352079656160208201527f7273000000000000000000000000000000000000000000000000000000000000604082015250565b6000611c8760428361177f565b9150611c9282611c05565b606082019050919050565b60006020820190508181036000830152611cb681611c7a565b9050919050565b7f4e487b7100000000000000000000000000000000000000000000000000000000600052601260045260246000fd5b7f4e487b7100000000000000000000000000000000000000000000000000000000600052601160045260246000fd5b6000611d2682611889565b9150611d3183611889565b925082611d4157611d40611cbd565b5b828204905092915050565b6000611d5782611889565b9150611d6283611889565b9250828202611d7081611889565b91508282048414831517611d8757611d86611cec565b5b5092915050565b6000611d9982611889565b91507fffffffffffffffffffffffffffffffffffffffffffffffffffffffffffffffff8203611dcb57611dca611cec565b5b600182019050919050565b6000606082019050611deb6000830186611a69565b611df86020830185611a69565b611e056040830184611935565b949350505050565b611e16816118ff565b8114611e2157600080fd5b50565b600081519050611e3381611e0d565b92915050565b600060208284031215611e4f57611e4e611826565b5b6000611e5d84828501611e24565b91505092915050565b600060a082019050611e7b6000830188611935565b611e886020830187611a69565b611e956040830186611935565b611ea26060830185611935565b611eaf6080830184611935565b9695505050505050565b6000604082019050611ece6000830185611a69565b611edb6020830184611935565b9392505050565b6000611eed82611889565b9150611ef883611889565b9250828201905080821115611f1057611f0f611cec565b5b92915050565b7f45524332303a2064656372656173656420616c6c6f77616e63652062656c6f7760008201527f207a65726f000000000000000000000000000000000000000000000000000000602082015250565b6000611f7260258361177f565b9150611f7d82611f16565b604082019050919050565b60006020820190508181036000830152611fa181611f65565b9050919050565b7f535749443a2054686520737065636966696564206465706f73697420646f657360008201527f6e27742065786973742e00000000000000000000000000000000000000000000602082015250565b6000612004602a8361177f565b915061200f82611fa8565b604082019050919050565b6000602082019050818103600083015261203381611ff7565b9050919050565b7f535749443a20596f752063616e277420756e737461636b206265666f7265207360008201527f7461636b696e67206475726174696f6e2069732066756c6c66696c6c65642e00602082015250565b6000612096603f8361177f565b91506120a18261203a565b604082019050919050565b600060208201905081810360008301526120c581612089565b9050919050565b7f4f776e61626c653a206e6577206f776e657220697320746865207a65726f206160008201527f6464726573730000000000000000000000000000000000000000000000000000602082015250565b600061212860268361177f565b9150612133826120cc565b604082019050919050565b600060208201905081810360008301526121578161211b565b9050919050565b7f45524332303a20617070726f76652066726f6d20746865207a65726f2061646460008201527f7265737300000000000000000000000000000000000000000000000000000000602082015250565b60006121ba60248361177f565b91506121c58261215e565b604082019050919050565b600060208201905081810360008301526121e9816121ad565b9050919050565b7f45524332303a20617070726f766520746f20746865207a65726f20616464726560008201527f7373000000000000000000000000000000000000000000000000000000000000602082015250565b600061224c60228361177f565b9150612257826121f0565b604082019050919050565b6000602082019050818103600083015261227b8161223f565b9050919050565b7f4f776e61626c653a2063616c6c6572206973206e6f7420746865206f776e6572600082015250565b60006122b860208361177f565b91506122c382612282565b602082019050919050565b600060208201905081810360008301526122e7816122ab565b9050919050565b7f45524332303a206d696e7420746f20746865207a65726f206164647265737300600082015250565b6000612324601f8361177f565b915061232f826122ee565b602082019050919050565b6000602082019050818103600083015261235381612317565b9050919050565b7f45524332303a20696e73756666696369656e7420616c6c6f77616e6365000000600082015250565b6000612390601d8361177f565b915061239b8261235a565b602082019050919050565b600060208201905081810360008301526123bf81612383565b9050919050565b7f45524332303a207472616e736665722066726f6d20746865207a65726f20616460008201527f6472657373000000000000000000000000000000000000000000000000000000602082015250565b600061242260258361177f565b915061242d826123c6565b604082019050919050565b6000602082019050818103600083015261245181612415565b9050919050565b7f45524332303a207472616e7366657220746f20746865207a65726f206164647260008201527f6573730000000000000000000000000000000000000000000000000000000000602082015250565b60006124b460238361177f565b91506124bf82612458565b604082019050919050565b600060208201905081810360008301526124e3816124a7565b9050919050565b7f45524332303a207472616e7366657220616d6f756e742065786365656473206260008201527f616c616e63650000000000000000000000000000000000000000000000000000602082015250565b600061254660268361177f565b9150612551826124ea565b604082019050919050565b6000602082019050818103600083015261257581612539565b9050919050565b7f45524332303a206275726e2066726f6d20746865207a65726f2061646472657360008201527f7300000000000000000000000000000000000000000000000000000000000000602082015250565b60006125d860218361177f565b91506125e38261257c565b604082019050919050565b60006020820190508181036000830152612607816125cb565b9050919050565b7f45524332303a206275726e20616d6f756e7420657863656564732062616c616e60008201527f6365000000000000000000000000000000000000000000000000000000000000602082015250565b600061266a60228361177f565b91506126758261260e565b604082019050919050565b600060208201905081810360008301526126998161265d565b905091905056fea26469706673582212206b295c49660542e5659182de254e28a29d580994376586a5c106f1243d72647d64736f6c63430008110033",
  "devdoc": {
    "details": "This contract depends on both SWID ERC20 token and WorkID ERC721 SBT token.",
    "kind": "dev",
    "methods": {
      "addProposal(string,uint256,uint256)": {
        "details": "The proposer define himself the period of the vote",
        "params": {
          "_desc": "Proposal description.",
          "_endDate": "Voting session end date.",
          "_startDate": "Voting session start date."
        }
      },
      "constructor": {
        "details": "SBT contract is used to control that the user has a valid employee status, the SWID contract is used to check how many ERC20 tokens he has staked.",
        "params": {
          "sbtContractAddress": "The SBT contract address.",
          "widContractAddress": "The WID contract address."
        }
      },
      "getOneProposalSession(uint256)": {
        "params": {
          "_sessionId": "The voting session id."
        },
        "returns": {
          "_0": "The proposal voting session details for the given _sessionId"
        }
      },
      "getStackingContractAddress()": {
        "returns": {
          "_0": "The stacking contract address."
        }
      },
      "getVoterStatus(uint256)": {
        "params": {
          "votingSessionId": "The voting session identifier."
        },
        "returns": {
          "_0": "True if msg.sender has already voted on this session id."
        }
      },
      "getVotingPower()": {
        "details": "The voting power is represented by the amount of SWID the user has.",
        "returns": {
          "_0": "The number of SWID the caller can use."
        }
      },
      "getVotingSessionStatus(uint256)": {
        "params": {
          "_votingSessionId": "The voting session number."
        },
        "returns": {
          "_0": "The voting session status."
        }
      },
      "owner()": {
        "details": "Returns the address of the current owner."
      },
      "renounceOwnership()": {
        "details": "Leaves the contract without owner. It will not be possible to call `onlyOwner` functions anymore. Can only be called by the current owner. NOTE: Renouncing ownership will leave the contract without an owner, thereby removing any functionality that is only available to the owner."
      },
      "stackWID(uint256,uint256)": {
        "params": {
          "_duration": "The stacking duration."
        }
      },
      "transferOwnership(address)": {
        "details": "Transfers ownership of the contract to a new account (`newOwner`). Can only be called by the current owner."
      },
      "unstackWID(uint256)": {
        "params": {
          "_depositId": "The deposit id to unstack."
        }
      },
      "voteOnProposal(uint256,bool,uint256)": {
        "details": "The vote is only possible if the current block timestamp is between startTime dans endTime of the session. Only valid voters (valid SBT holder with staked SWID tokens) can vote.",
        "params": {
          "_sessionId": "The voting session on which the voter want to vote.",
          "_vote": "The vote chosen by the voter.",
          "_votingPower": "The amount of SWID the voter want to use for this voting session."
        }
      }
    },
    "title": "Governance contract for WorkID.",
    "version": 1
  },
  "userdoc": {
    "kind": "user",
    "methods": {
      "addProposal(string,uint256,uint256)": {
        "notice": "Allows to add a proposal voting session."
      },
      "constructor": {
        "notice": "Instanciate a Voting contract passing the addresses of both SWID and SBT contracts."
      },
      "getOneProposalSession(uint256)": {
        "notice": "Gets a proposal session details."
      },
      "getStackingContractAddress()": {
        "notice": "Returns the stacking contract address."
      },
      "getVoterStatus(uint256)": {
        "notice": "Returns whether the user has voted on the voting session."
      },
      "getVotingPower()": {
        "notice": "Returns the voting power of the caller."
      },
      "getVotingSessionStatus(uint256)": {
        "notice": "Gets the voting session status according to the current timestamp."
      },
      "stackWID(uint256,uint256)": {
        "notice": "Stacking proxy function to stacking contract with control the user is a valid employee."
      },
      "unstackWID(uint256)": {
        "notice": "Unstacking proxy function to stacking contract with control the user is a valid employee."
      },
      "voteOnProposal(uint256,bool,uint256)": {
        "notice": "Allows to vote, either yes or no, on a proposal voting sesion."
      }
    },
    "notice": "Use this contract for governance with WorkID SBT and SWID tokens.",
    "version": 1
  },
  "storageLayout": {
    "storage": [
      {
        "astId": 7,
        "contract": "contracts/governance/Governance.sol:Governance",
        "label": "_owner",
        "offset": 0,
        "slot": "0",
        "type": "t_address"
      },
      {
        "astId": 3759,
        "contract": "contracts/governance/Governance.sol:Governance",
        "label": "votingSessions",
        "offset": 0,
        "slot": "1",
        "type": "t_array(t_struct(ProposalVotingSession)3751_storage)dyn_storage"
      },
      {
        "astId": 3766,
        "contract": "contracts/governance/Governance.sol:Governance",
        "label": "votingSessionsVoters",
        "offset": 0,
        "slot": "2",
        "type": "t_mapping(t_uint256,t_mapping(t_address,t_struct(Voter)3743_storage))"
      }
    ],
    "types": {
      "t_address": {
        "encoding": "inplace",
        "label": "address",
        "numberOfBytes": "20"
      },
      "t_array(t_struct(ProposalVotingSession)3751_storage)dyn_storage": {
        "base": "t_struct(ProposalVotingSession)3751_storage",
        "encoding": "dynamic_array",
        "label": "struct Governance.ProposalVotingSession[]",
        "numberOfBytes": "32"
      },
      "t_bool": {
        "encoding": "inplace",
        "label": "bool",
        "numberOfBytes": "1"
      },
      "t_mapping(t_address,t_struct(Voter)3743_storage)": {
        "encoding": "mapping",
        "key": "t_address",
        "label": "mapping(address => struct Governance.Voter)",
        "numberOfBytes": "32",
        "value": "t_struct(Voter)3743_storage"
      },
      "t_mapping(t_uint256,t_mapping(t_address,t_struct(Voter)3743_storage))": {
        "encoding": "mapping",
        "key": "t_uint256",
        "label": "mapping(uint256 => mapping(address => struct Governance.Voter))",
        "numberOfBytes": "32",
        "value": "t_mapping(t_address,t_struct(Voter)3743_storage)"
      },
      "t_string_storage": {
        "encoding": "bytes",
        "label": "string",
        "numberOfBytes": "32"
      },
      "t_struct(Proposal)3736_storage": {
        "encoding": "inplace",
        "label": "struct Governance.Proposal",
        "members": [
          {
            "astId": 3731,
            "contract": "contracts/governance/Governance.sol:Governance",
            "label": "description",
            "offset": 0,
            "slot": "0",
            "type": "t_string_storage"
          },
          {
            "astId": 3733,
            "contract": "contracts/governance/Governance.sol:Governance",
            "label": "voteCountYes",
            "offset": 0,
            "slot": "1",
            "type": "t_uint256"
          },
          {
            "astId": 3735,
            "contract": "contracts/governance/Governance.sol:Governance",
            "label": "voteCountNo",
            "offset": 0,
            "slot": "2",
            "type": "t_uint256"
          }
        ],
        "numberOfBytes": "96"
      },
      "t_struct(ProposalVotingSession)3751_storage": {
        "encoding": "inplace",
        "label": "struct Governance.ProposalVotingSession",
        "members": [
          {
            "astId": 3746,
            "contract": "contracts/governance/Governance.sol:Governance",
            "label": "proposal",
            "offset": 0,
            "slot": "0",
            "type": "t_struct(Proposal)3736_storage"
          },
          {
            "astId": 3748,
            "contract": "contracts/governance/Governance.sol:Governance",
            "label": "startTime",
            "offset": 0,
            "slot": "3",
            "type": "t_uint256"
          },
          {
            "astId": 3750,
            "contract": "contracts/governance/Governance.sol:Governance",
            "label": "endTime",
            "offset": 0,
            "slot": "4",
            "type": "t_uint256"
          }
        ],
        "numberOfBytes": "160"
      },
      "t_struct(Voter)3743_storage": {
        "encoding": "inplace",
        "label": "struct Governance.Voter",
        "members": [
          {
            "astId": 3738,
            "contract": "contracts/governance/Governance.sol:Governance",
            "label": "voter",
            "offset": 0,
            "slot": "0",
            "type": "t_address"
          },
          {
            "astId": 3740,
            "contract": "contracts/governance/Governance.sol:Governance",
            "label": "amountSwid",
            "offset": 0,
            "slot": "1",
            "type": "t_uint256"
          },
          {
            "astId": 3742,
            "contract": "contracts/governance/Governance.sol:Governance",
            "label": "hasVoted",
            "offset": 0,
            "slot": "2",
            "type": "t_bool"
          }
        ],
        "numberOfBytes": "96"
      },
      "t_uint256": {
        "encoding": "inplace",
        "label": "uint256",
        "numberOfBytes": "32"
      }
    }
  }
}